{
  "_format": "hh-sol-artifact-1",
  "contractName": "Player",
  "sourceName": "contracts/Wrapper.sol",
  "abi": [
    {
      "inputs": [
        {
          "internalType": "address payable",
          "name": "ownercontract",
          "type": "address"
        },
        {
          "internalType": "string[]",
          "name": "player_info_team1_input",
          "type": "string[]"
        },
        {
          "internalType": "string[]",
          "name": "player_info_team2_input",
          "type": "string[]"
        }
      ],
      "stateMutability": "nonpayable",
      "type": "constructor"
    },
    {
      "anonymous": false,
      "inputs": [
        {
          "indexed": false,
          "internalType": "address",
          "name": "sender",
          "type": "address"
        },
        {
          "indexed": false,
          "internalType": "uint256",
          "name": "amount",
          "type": "uint256"
        }
      ],
      "name": "betplaced",
      "type": "event"
    },
    {
      "inputs": [
        {
          "internalType": "address",
          "name": "sender",
          "type": "address"
        }
      ],
      "name": "amountrefundedplayer",
      "outputs": [
        {
          "internalType": "uint256",
          "name": "",
          "type": "uint256"
        }
      ],
      "stateMutability": "view",
      "type": "function"
    },
    {
      "inputs": [
        {
          "internalType": "string",
          "name": "playerbetplaced",
          "type": "string"
        }
      ],
      "name": "placebet",
      "outputs": [],
      "stateMutability": "payable",
      "type": "function"
    },
    {
      "inputs": [
        {
          "internalType": "string",
          "name": "first",
          "type": "string"
        },
        {
          "internalType": "string",
          "name": "second",
          "type": "string"
        },
        {
          "internalType": "string",
          "name": "third",
          "type": "string"
        }
      ],
      "name": "poolDistribution",
      "outputs": [],
      "stateMutability": "nonpayable",
      "type": "function"
    },
    {
      "inputs": [],
      "name": "viewbets",
      "outputs": [
        {
          "internalType": "address payable[]",
          "name": "",
          "type": "address[]"
        }
      ],
      "stateMutability": "view",
      "type": "function"
    },
    {
      "inputs": [],
      "name": "viewplayer",
      "outputs": [
        {
          "components": [
            {
              "internalType": "string[]",
              "name": "player_info_team1",
              "type": "string[]"
            },
            {
              "internalType": "string[]",
              "name": "player_info_team2",
              "type": "string[]"
            }
          ],
          "internalType": "struct Player.PlayerInfo",
          "name": "",
          "type": "tuple"
        }
      ],
      "stateMutability": "view",
      "type": "function"
    }
  ],
  "bytecode": "0x60806040523480156200001157600080fd5b506040516200205c3803806200205c833981810160405281019062000037919062000378565b826000806101000a81548173ffffffffffffffffffffffffffffffffffffffff021916908373ffffffffffffffffffffffffffffffffffffffff16021790555060405180604001604052808381526020018281525060056000820151816000019080519060200190620000ac929190620000d8565b506020820151816001019080519060200190620000cb929190620000d8565b50905050505050620005ae565b8280548282559060005260206000209081019282156200012c579160200282015b828111156200012b5782518290805190602001906200011a9291906200013f565b5091602001919060010190620000f9565b5b5090506200013b9190620001d0565b5090565b8280546200014d9062000500565b90600052602060002090601f016020900481019282620001715760008555620001bd565b82601f106200018c57805160ff1916838001178555620001bd565b82800160010185558215620001bd579182015b82811115620001bc5782518255916020019190600101906200019f565b5b509050620001cc9190620001f8565b5090565b5b80821115620001f45760008181620001ea919062000217565b50600101620001d1565b5090565b5b8082111562000213576000816000905550600101620001f9565b5090565b508054620002259062000500565b6000825580601f106200023957506200025a565b601f016020900490600052602060002090810190620002599190620001f8565b5b50565b6000620002746200026e8462000434565b62000400565b9050808382526020820190508260005b85811015620002b857815185016200029d88826200034b565b84526020840193506020830192505060018101905062000284565b5050509392505050565b6000620002d9620002d38462000463565b62000400565b905082815260208101848484011115620002f257600080fd5b620002ff848285620004ca565b509392505050565b600081519050620003188162000594565b92915050565b600082601f8301126200033057600080fd5b8151620003428482602086016200025d565b91505092915050565b600082601f8301126200035d57600080fd5b81516200036f848260208601620002c2565b91505092915050565b6000806000606084860312156200038e57600080fd5b60006200039e8682870162000307565b935050602084015167ffffffffffffffff811115620003bc57600080fd5b620003ca868287016200031e565b925050604084015167ffffffffffffffff811115620003e857600080fd5b620003f6868287016200031e565b9150509250925092565b6000604051905081810181811067ffffffffffffffff821117156200042a576200042962000565565b5b8060405250919050565b600067ffffffffffffffff82111562000452576200045162000565565b5b602082029050602081019050919050565b600067ffffffffffffffff82111562000481576200048062000565565b5b601f19601f8301169050602081019050919050565b6000620004a382620004aa565b9050919050565b600073ffffffffffffffffffffffffffffffffffffffff82169050919050565b60005b83811015620004ea578082015181840152602081019050620004cd565b83811115620004fa576000848401525b50505050565b600060028204905060018216806200051957607f821691505b6020821081141562000530576200052f62000536565b5b50919050565b7f4e487b7100000000000000000000000000000000000000000000000000000000600052602260045260246000fd5b7f4e487b7100000000000000000000000000000000000000000000000000000000600052604160045260246000fd5b6200059f8162000496565b8114620005ab57600080fd5b50565b611a9e80620005be6000396000f3fe60806040526004361061004a5760003560e01c80630696281a1461004f578063135dcff31461007a57806318ed2ad9146100b75780639039a14e146100e0578063ce64d8c81461010b575b600080fd5b34801561005b57600080fd5b50610064610127565b604051610071919061162a565b60405180910390f35b34801561008657600080fd5b506100a1600480360381019061009c9190611279565b6101b5565b6040516100ae919061166e565b60405180910390f35b3480156100c357600080fd5b506100de60048036038101906100d991906112e3565b6101fe565b005b3480156100ec57600080fd5b506100f5610e6f565b604051610102919061164c565b60405180910390f35b610125600480360381019061012091906112a2565b61103b565b005b606060018054806020026020016040519081016040528092919081815260200182805480156101ab57602002820191906000526020600020905b8160009054906101000a900473ffffffffffffffffffffffffffffffffffffffff1673ffffffffffffffffffffffffffffffffffffffff1681526020019060010190808311610161575b5050505050905090565b6000600460008373ffffffffffffffffffffffffffffffffffffffff1673ffffffffffffffffffffffffffffffffffffffff168152602001908152602001600020549050919050565b6000600280549050905060008060008060008567ffffffffffffffff811115610250577f4e487b7100000000000000000000000000000000000000000000000000000000600052604160045260246000fd5b60405190808252806020026020018201604052801561027e5781602001602082028036833780820191505090505b50905060005b868110156102e65760008282815181106102c7577f4e487b7100000000000000000000000000000000000000000000000000000000600052603260045260246000fd5b60200260200101818152505080806102de9061193b565b915050610284565b5060005b86811015610594578960405160200161030391906115d3565b6040516020818303038152906040528051906020012060038281548110610353577f4e487b7100000000000000000000000000000000000000000000000000000000600052603260045260246000fd5b9060005260206000200160405160200161036d91906115ea565b60405160208183030381529060405280519060200120148061041d57508860405160200161039b91906115d3565b60405160208183030381529060405280519060200120600382815481106103eb577f4e487b7100000000000000000000000000000000000000000000000000000000600052603260045260246000fd5b9060005260206000200160405160200161040591906115ea565b60405160208183030381529060405280519060200120145b806104b657508760405160200161043491906115d3565b6040516020818303038152906040528051906020012060038281548110610484577f4e487b7100000000000000000000000000000000000000000000000000000000600052603260045260246000fd5b9060005260206000200160405160200161049e91906115ea565b60405160208183030381529060405280519060200120145b156105205785806104c69061193b565b96505060028181548110610503577f4e487b7100000000000000000000000000000000000000000000000000000000600052603260045260246000fd5b9060005260206000200154846105199190611798565b9350610581565b848061052b9061193b565b95505060028181548110610568577f4e487b7100000000000000000000000000000000000000000000000000000000600052603260045260246000fd5b90600052602060002001548361057e9190611798565b92505b808061058c9061193b565b9150506102ea565b508585141561065a5760005b8681101561065457600281815481106105e2577f4e487b7100000000000000000000000000000000000000000000000000000000600052603260045260246000fd5b9060005260206000200154828281518110610626577f4e487b7100000000000000000000000000000000000000000000000000000000600052603260045260246000fd5b6020026020010181815161063a9190611798565b91508181525050808061064c9061193b565b9150506105a0565b50610b82565b60005b86811015610b80578960405160200161067691906115d3565b60405160208183030381529060405280519060200120600382815481106106c6577f4e487b7100000000000000000000000000000000000000000000000000000000600052603260045260246000fd5b906000526020600020016040516020016106e091906115ea565b60405160208183030381529060405280519060200120148061079057508860405160200161070e91906115d3565b604051602081830303815290604052805190602001206003828154811061075e577f4e487b7100000000000000000000000000000000000000000000000000000000600052603260045260246000fd5b9060005260206000200160405160200161077891906115ea565b60405160208183030381529060405280519060200120145b806108295750876040516020016107a791906115d3565b60405160208183030381529060405280519060200120600382815481106107f7577f4e487b7100000000000000000000000000000000000000000000000000000000600052603260045260246000fd5b9060005260206000200160405160200161081191906115ea565b60405160208183030381529060405280519060200120145b15610ac85760028181548110610868577f4e487b7100000000000000000000000000000000000000000000000000000000600052603260045260246000fd5b90600052602060002001548282815181106108ac577f4e487b7100000000000000000000000000000000000000000000000000000000600052603260045260246000fd5b602002602001018181516108c09190611798565b9150818152505060008460146108d6919061181f565b600960028481548110610912577f4e487b7100000000000000000000000000000000000000000000000000000000600052603260045260246000fd5b906000526020600020015486610928919061181f565b610932919061181f565b61093c91906117ee565b905080838381518110610978577f4e487b7100000000000000000000000000000000000000000000000000000000600052603260045260246000fd5b6020026020010181815161098c9190611798565b91508181525050600282815481106109cd577f4e487b7100000000000000000000000000000000000000000000000000000000600052603260045260246000fd5b906000526020600020015460026109e4919061181f565b838381518110610a1d577f4e487b7100000000000000000000000000000000000000000000000000000000600052603260045260246000fd5b60200260200101511115610ac25760028281548110610a65577f4e487b7100000000000000000000000000000000000000000000000000000000600052603260045260246000fd5b90600052602060002001546002610a7c919061181f565b838381518110610ab5577f4e487b7100000000000000000000000000000000000000000000000000000000600052603260045260246000fd5b6020026020010181815250505b50610b6d565b6002808281548110610b03577f4e487b7100000000000000000000000000000000000000000000000000000000600052603260045260246000fd5b9060005260206000200154610b1891906117ee565b828281518110610b51577f4e487b7100000000000000000000000000000000000000000000000000000000600052603260045260246000fd5b60200260200101818151610b659190611798565b915081815250505b8080610b789061193b565b91505061065d565b505b60005b86811015610d855760018181548110610bc7577f4e487b7100000000000000000000000000000000000000000000000000000000600052603260045260246000fd5b9060005260206000200160009054906101000a900473ffffffffffffffffffffffffffffffffffffffff1673ffffffffffffffffffffffffffffffffffffffff166108fc838381518110610c44577f4e487b7100000000000000000000000000000000000000000000000000000000600052603260045260246000fd5b60200260200101519081150290604051600060405180830381858888f19350505050158015610c77573d6000803e3d6000fd5b50818181518110610cb1577f4e487b7100000000000000000000000000000000000000000000000000000000600052603260045260246000fd5b60200260200101516004600060018481548110610cf7577f4e487b7100000000000000000000000000000000000000000000000000000000600052603260045260246000fd5b9060005260206000200160009054906101000a900473ffffffffffffffffffffffffffffffffffffffff1673ffffffffffffffffffffffffffffffffffffffff1673ffffffffffffffffffffffffffffffffffffffff1681526020019081526020016000206000828254610d6b9190611798565b925050819055508080610d7d9061193b565b915050610b85565b5047600460008060009054906101000a900473ffffffffffffffffffffffffffffffffffffffff1673ffffffffffffffffffffffffffffffffffffffff1673ffffffffffffffffffffffffffffffffffffffff1681526020019081526020016000206000828254610df69190611798565b9250508190555060008054906101000a900473ffffffffffffffffffffffffffffffffffffffff1673ffffffffffffffffffffffffffffffffffffffff166108fc479081150290604051600060405180830381858888f19350505050158015610e63573d6000803e3d6000fd5b50505050505050505050565b610e7761113f565b600560405180604001604052908160008201805480602002602001604051908101604052809291908181526020016000905b82821015610f55578382906000526020600020018054610ec890611909565b80601f0160208091040260200160405190810160405280929190818152602001828054610ef490611909565b8015610f415780601f10610f1657610100808354040283529160200191610f41565b820191906000526020600020905b815481529060010190602001808311610f2457829003601f168201915b505050505081526020019060010190610ea9565b50505050815260200160018201805480602002602001604051908101604052809291908181526020016000905b8282101561102e578382906000526020600020018054610fa190611909565b80601f0160208091040260200160405190810160405280929190818152602001828054610fcd90611909565b801561101a5780601f10610fef5761010080835404028352916020019161101a565b820191906000526020600020905b815481529060010190602001808311610ffd57829003601f168201915b505050505081526020019060010190610f82565b5050505081525050905090565b6001339080600181540180825580915050600190039060005260206000200160009091909190916101000a81548173ffffffffffffffffffffffffffffffffffffffff021916908373ffffffffffffffffffffffffffffffffffffffff1602179055506002349080600181540180825580915050600190039060005260206000200160009091909190915055600381908060018154018082558091505060019003906000526020600020016000909190919091509080519060200190611102929190611159565b507f505fa9d7c1e6de29c97a8f8c0506e116cd1398a62ae875c534f148877e62c6383334604051611134929190611601565b60405180910390a150565b604051806040016040528060608152602001606081525090565b82805461116590611909565b90600052602060002090601f01602090048101928261118757600085556111ce565b82601f106111a057805160ff19168380011785556111ce565b828001600101855582156111ce579182015b828111156111cd5782518255916020019190600101906111b2565b5b5090506111db91906111df565b5090565b5b808211156111f85760008160009055506001016111e0565b5090565b600061120f61120a846116ba565b611689565b90508281526020810184848401111561122757600080fd5b6112328482856118c7565b509392505050565b60008135905061124981611a51565b92915050565b600082601f83011261126057600080fd5b81356112708482602086016111fc565b91505092915050565b60006020828403121561128b57600080fd5b60006112998482850161123a565b91505092915050565b6000602082840312156112b457600080fd5b600082013567ffffffffffffffff8111156112ce57600080fd5b6112da8482850161124f565b91505092915050565b6000806000606084860312156112f857600080fd5b600084013567ffffffffffffffff81111561131257600080fd5b61131e8682870161124f565b935050602084013567ffffffffffffffff81111561133b57600080fd5b6113478682870161124f565b925050604084013567ffffffffffffffff81111561136457600080fd5b6113708682870161124f565b9150509250925092565b600061138683836113a6565b60208301905092915050565b600061139e8383611497565b905092915050565b6113af8161188b565b82525050565b6113be81611879565b82525050565b60006113cf8261171f565b6113d9818561175a565b93506113e4836116ea565b8060005b838110156114155781516113fc888261137a565b975061140783611740565b9250506001810190506113e8565b5085935050505092915050565b600061142d8261172a565b611437818561176b565b935083602082028501611449856116fa565b8060005b8581101561148557848403895281516114668582611392565b94506114718361174d565b925060208a0199505060018101905061144d565b50829750879550505050505092915050565b60006114a282611735565b6114ac818561177c565b93506114bc8185602086016118d6565b6114c581611a40565b840191505092915050565b60006114db82611735565b6114e5818561178d565b93506114f58185602086016118d6565b80840191505092915050565b6000815461150e81611909565b611518818661178d565b94506001821660008114611533576001811461154457611577565b60ff19831686528186019350611577565b61154d8561170a565b60005b8381101561156f57815481890152600182019150602081019050611550565b838801955050505b50505092915050565b6000604083016000830151848203600086015261159d8282611422565b915050602083015184820360208601526115b78282611422565b9150508091505092915050565b6115cd816118bd565b82525050565b60006115df82846114d0565b915081905092915050565b60006115f68284611501565b915081905092915050565b600060408201905061161660008301856113b5565b61162360208301846115c4565b9392505050565b6000602082019050818103600083015261164481846113c4565b905092915050565b600060208201905081810360008301526116668184611580565b905092915050565b600060208201905061168360008301846115c4565b92915050565b6000604051905081810181811067ffffffffffffffff821117156116b0576116af611a11565b5b8060405250919050565b600067ffffffffffffffff8211156116d5576116d4611a11565b5b601f19601f8301169050602081019050919050565b6000819050602082019050919050565b6000819050602082019050919050565b60008190508160005260206000209050919050565b600081519050919050565b600081519050919050565b600081519050919050565b6000602082019050919050565b6000602082019050919050565b600082825260208201905092915050565b600082825260208201905092915050565b600082825260208201905092915050565b600081905092915050565b60006117a3826118bd565b91506117ae836118bd565b9250827fffffffffffffffffffffffffffffffffffffffffffffffffffffffffffffffff038211156117e3576117e2611984565b5b828201905092915050565b60006117f9826118bd565b9150611804836118bd565b925082611814576118136119b3565b5b828204905092915050565b600061182a826118bd565b9150611835836118bd565b9250817fffffffffffffffffffffffffffffffffffffffffffffffffffffffffffffffff048311821515161561186e5761186d611984565b5b828202905092915050565b60006118848261189d565b9050919050565b60006118968261189d565b9050919050565b600073ffffffffffffffffffffffffffffffffffffffff82169050919050565b6000819050919050565b82818337600083830152505050565b60005b838110156118f45780820151818401526020810190506118d9565b83811115611903576000848401525b50505050565b6000600282049050600182168061192157607f821691505b60208210811415611935576119346119e2565b5b50919050565b6000611946826118bd565b91507fffffffffffffffffffffffffffffffffffffffffffffffffffffffffffffffff82141561197957611978611984565b5b600182019050919050565b7f4e487b7100000000000000000000000000000000000000000000000000000000600052601160045260246000fd5b7f4e487b7100000000000000000000000000000000000000000000000000000000600052601260045260246000fd5b7f4e487b7100000000000000000000000000000000000000000000000000000000600052602260045260246000fd5b7f4e487b7100000000000000000000000000000000000000000000000000000000600052604160045260246000fd5b6000601f19601f8301169050919050565b611a5a81611879565b8114611a6557600080fd5b5056fea26469706673582212206d53b9c189d2a849b1534465112337230225739d278b4b1d1d4868f6d7b6a55f64736f6c63430008000033",
  "linkReferences": {},
  "deployedLinkReferences": {}
}