{
  "_format": "hh-sol-artifact-1",
  "contractName": "Wrapper",
  "sourceName": "contracts/Wrapper.sol",
  "abi": [
    {
      "inputs": [],
      "stateMutability": "nonpayable",
      "type": "constructor"
    },
    {
      "inputs": [
        {
          "internalType": "contract Match",
          "name": "closeMatch",
          "type": "address"
        },
        {
          "internalType": "bool",
          "name": "result",
          "type": "bool"
        },
        {
          "internalType": "string",
          "name": "first",
          "type": "string"
        },
        {
          "internalType": "string",
          "name": "second",
          "type": "string"
        },
        {
          "internalType": "string",
          "name": "third",
          "type": "string"
        }
      ],
      "name": "closeBet",
      "outputs": [],
      "stateMutability": "nonpayable",
      "type": "function"
    },
    {
      "inputs": [
        {
          "internalType": "string",
          "name": "team1_input",
          "type": "string"
        },
        {
          "internalType": "string",
          "name": "team2_input",
          "type": "string"
        },
        {
          "internalType": "string",
          "name": "time_input",
          "type": "string"
        },
        {
          "internalType": "string",
          "name": "date_input",
          "type": "string"
        },
        {
          "internalType": "string",
          "name": "venue_input",
          "type": "string"
        },
        {
          "internalType": "string[]",
          "name": "player_info_team1_input",
          "type": "string[]"
        },
        {
          "internalType": "string[]",
          "name": "player_info_team2_input",
          "type": "string[]"
        }
      ],
      "name": "createbet",
      "outputs": [
        {
          "internalType": "contract Match",
          "name": "",
          "type": "address"
        }
      ],
      "stateMutability": "nonpayable",
      "type": "function"
    },
    {
      "inputs": [],
      "name": "viewclosematches",
      "outputs": [
        {
          "internalType": "contract Match[]",
          "name": "",
          "type": "address[]"
        }
      ],
      "stateMutability": "view",
      "type": "function"
    },
    {
      "inputs": [],
      "name": "viewlivematches",
      "outputs": [
        {
          "internalType": "contract Match[]",
          "name": "",
          "type": "address[]"
        }
      ],
      "stateMutability": "view",
      "type": "function"
    }
  ],
  "bytecode": "0x608060405234801561001057600080fd5b50336000806101000a81548173ffffffffffffffffffffffffffffffffffffffff021916908373ffffffffffffffffffffffffffffffffffffffff1602179055506156f5806100606000396000f3fe60806040523480156200001157600080fd5b5060043610620000525760003560e01c80633d465382146200005757806352b7b82d1462000079578063ce3b87e514620000af578063e8bdb76914620000d1575b600080fd5b62000061620000f1565b60405162000070919062000b70565b60405180910390f35b62000097600480360381019062000091919062000774565b62000181565b604051620000a6919062000bf6565b60405180910390f35b620000b96200025f565b604051620000c8919062000b70565b60405180910390f35b620000ef6004803603810190620000e99190620006a7565b620002ef565b005b606060028054806020026020016040519081016040528092919081815260200182805480156200017757602002820191906000526020600020905b8160009054906101000a900473ffffffffffffffffffffffffffffffffffffffff1673ffffffffffffffffffffffffffffffffffffffff16815260200190600101908083116200012c575b5050505050905090565b60008060008054906101000a900473ffffffffffffffffffffffffffffffffffffffff1689898989898989604051620001ba9062000567565b620001cd98979695949392919062000ab1565b604051809103906000f080158015620001ea573d6000803e3d6000fd5b5090506001819080600181540180825580915050600190039060005260206000200160009091909190916101000a81548173ffffffffffffffffffffffffffffffffffffffff021916908373ffffffffffffffffffffffffffffffffffffffff16021790555080915050979650505050505050565b60606001805480602002602001604051908101604052809291908181526020018280548015620002e557602002820191906000526020600020905b8160009054906101000a900473ffffffffffffffffffffffffffffffffffffffff1673ffffffffffffffffffffffffffffffffffffffff16815260200190600101908083116200029a575b5050505050905090565b600080600090505b600180549050811015620003b9578673ffffffffffffffffffffffffffffffffffffffff166001828154811062000357577f4e487b7100000000000000000000000000000000000000000000000000000000600052603260045260246000fd5b9060005260206000200160009054906101000a900473ffffffffffffffffffffffffffffffffffffffff1673ffffffffffffffffffffffffffffffffffffffff161415620003a3578091505b8080620003b09062000e27565b915050620002f7565b50600260018281548110620003f7577f4e487b7100000000000000000000000000000000000000000000000000000000600052603260045260246000fd5b9060005260206000200160009054906101000a900473ffffffffffffffffffffffffffffffffffffffff169080600181540180825580915050600190039060005260206000200160009091909190916101000a81548173ffffffffffffffffffffffffffffffffffffffff021916908373ffffffffffffffffffffffffffffffffffffffff16021790555060018181548110620004bd577f4e487b7100000000000000000000000000000000000000000000000000000000600052603260045260246000fd5b9060005260206000200160006101000a81549073ffffffffffffffffffffffffffffffffffffffff02191690558573ffffffffffffffffffffffffffffffffffffffff16633221688b868686866040518563ffffffff1660e01b81526004016200052b949392919062000b94565b600060405180830381600087803b1580156200054657600080fd5b505af11580156200055b573d6000803e3d6000fd5b50505050505050505050565b6147a78062000f1983390190565b60006200058c620005868462000c47565b62000c13565b9050808382526020820190508260005b85811015620005d05781358501620005b588826200067a565b8452602084019350602083019250506001810190506200059c565b5050509392505050565b6000620005f1620005eb8462000c76565b62000c13565b9050828152602081018484840111156200060a57600080fd5b6200061784828562000de2565b509392505050565b600082601f8301126200063157600080fd5b81356200064384826020860162000575565b91505092915050565b6000813590506200065d8162000ee4565b92915050565b600081359050620006748162000efe565b92915050565b600082601f8301126200068c57600080fd5b81356200069e848260208601620005da565b91505092915050565b600080600080600060a08688031215620006c057600080fd5b6000620006d08882890162000663565b9550506020620006e3888289016200064c565b945050604086013567ffffffffffffffff8111156200070157600080fd5b6200070f888289016200067a565b935050606086013567ffffffffffffffff8111156200072d57600080fd5b6200073b888289016200067a565b925050608086013567ffffffffffffffff8111156200075957600080fd5b62000767888289016200067a565b9150509295509295909350565b600080600080600080600060e0888a0312156200079057600080fd5b600088013567ffffffffffffffff811115620007ab57600080fd5b620007b98a828b016200067a565b975050602088013567ffffffffffffffff811115620007d757600080fd5b620007e58a828b016200067a565b965050604088013567ffffffffffffffff8111156200080357600080fd5b620008118a828b016200067a565b955050606088013567ffffffffffffffff8111156200082f57600080fd5b6200083d8a828b016200067a565b945050608088013567ffffffffffffffff8111156200085b57600080fd5b620008698a828b016200067a565b93505060a088013567ffffffffffffffff8111156200088757600080fd5b620008958a828b016200061f565b92505060c088013567ffffffffffffffff811115620008b357600080fd5b620008c18a828b016200061f565b91505092959891949750929550565b6000620008de838362000a0d565b60208301905092915050565b6000620008f8838362000a2f565b905092915050565b6200090b8162000d5c565b82525050565b60006200091e8262000cc9565b6200092a818562000d04565b9350620009378362000ca9565b8060005b838110156200096e578151620009528882620008d0565b97506200095f8362000cea565b9250506001810190506200093b565b5085935050505092915050565b6000620009888262000cd4565b62000994818562000d15565b935083602082028501620009a88562000cb9565b8060005b85811015620009ea5784840389528151620009c88582620008ea565b9450620009d58362000cf7565b925060208a01995050600181019050620009ac565b50829750879550505050505092915050565b62000a078162000d70565b82525050565b62000a188162000dba565b82525050565b62000a298162000dba565b82525050565b600062000a3c8262000cdf565b62000a48818562000d26565b935062000a5a81856020860162000df1565b62000a658162000ed3565b840191505092915050565b600062000a7d8262000cdf565b62000a89818562000d37565b935062000a9b81856020860162000df1565b62000aa68162000ed3565b840191505092915050565b60006101008201905062000ac9600083018b62000900565b818103602083015262000add818a62000a70565b9050818103604083015262000af3818962000a70565b9050818103606083015262000b09818862000a70565b9050818103608083015262000b1f818762000a70565b905081810360a083015262000b35818662000a70565b905081810360c083015262000b4b81856200097b565b905081810360e083015262000b6181846200097b565b90509998505050505050505050565b6000602082019050818103600083015262000b8c818462000911565b905092915050565b600060808201905062000bab6000830187620009fc565b818103602083015262000bbf818662000a70565b9050818103604083015262000bd5818562000a70565b9050818103606083015262000beb818462000a70565b905095945050505050565b600060208201905062000c0d600083018462000a1e565b92915050565b6000604051905081810181811067ffffffffffffffff8211171562000c3d5762000c3c62000ea4565b5b8060405250919050565b600067ffffffffffffffff82111562000c655762000c6462000ea4565b5b602082029050602081019050919050565b600067ffffffffffffffff82111562000c945762000c9362000ea4565b5b601f19601f8301169050602081019050919050565b6000819050602082019050919050565b6000819050602082019050919050565b600081519050919050565b600081519050919050565b600081519050919050565b6000602082019050919050565b6000602082019050919050565b600082825260208201905092915050565b600082825260208201905092915050565b600082825260208201905092915050565b600082825260208201905092915050565b600062000d558262000d90565b9050919050565b600062000d698262000d90565b9050919050565b60008115159050919050565b600062000d898262000d48565b9050919050565b600073ffffffffffffffffffffffffffffffffffffffff82169050919050565b6000819050919050565b600062000dc78262000dce565b9050919050565b600062000ddb8262000d90565b9050919050565b82818337600083830152505050565b60005b8381101562000e1157808201518184015260208101905062000df4565b8381111562000e21576000848401525b50505050565b600062000e348262000db0565b91507fffffffffffffffffffffffffffffffffffffffffffffffffffffffffffffffff82141562000e6a5762000e6962000e75565b5b600182019050919050565b7f4e487b7100000000000000000000000000000000000000000000000000000000600052601160045260246000fd5b7f4e487b7100000000000000000000000000000000000000000000000000000000600052604160045260246000fd5b6000601f19601f8301169050919050565b62000eef8162000d70565b811462000efb57600080fd5b50565b62000f098162000d7c565b811462000f1557600080fd5b5056fe60806040523480156200001157600080fd5b50604051620047a7380380620047a78339818101604052810190620000379190620003a2565b876000806101000a81548173ffffffffffffffffffffffffffffffffffffffff021916908373ffffffffffffffffffffffffffffffffffffffff1602179055506040518060a001604052808881526020018781526020018681526020018581526020018481525060076000820151816000019080519060200190620000be929190620001c9565b506020820151816001019080519060200190620000dd929190620001c9565b506040820151816002019080519060200190620000fc929190620001c9565b5060608201518160030190805190602001906200011b929190620001c9565b5060808201518160040190805190602001906200013a929190620001c9565b509050508782826040516200014f906200025a565b6200015d93929190620005fd565b604051809103906000f0801580156200017a573d6000803e3d6000fd5b50600160006101000a81548173ffffffffffffffffffffffffffffffffffffffff021916908373ffffffffffffffffffffffffffffffffffffffff16021790555050505050505050506200085c565b828054620001d7906200079d565b90600052602060002090601f016020900481019282620001fb576000855562000247565b82601f106200021657805160ff191683800117855562000247565b8280016001018555821562000247579182015b828111156200024657825182559160200191906001019062000229565b5b50905062000256919062000268565b5090565b6123a0806200240783390190565b5b808211156200028357600081600090555060010162000269565b5090565b60006200029e62000298846200067c565b62000648565b9050808382526020820190508260005b85811015620002e25781518501620002c7888262000375565b845260208401935060208301925050600181019050620002ae565b5050509392505050565b600062000303620002fd84620006ab565b62000648565b9050828152602081018484840111156200031c57600080fd5b6200032984828562000767565b509392505050565b600081519050620003428162000842565b92915050565b600082601f8301126200035a57600080fd5b81516200036c84826020860162000287565b91505092915050565b600082601f8301126200038757600080fd5b815162000399848260208601620002ec565b91505092915050565b600080600080600080600080610100898b031215620003c057600080fd5b6000620003d08b828c0162000331565b985050602089015167ffffffffffffffff811115620003ee57600080fd5b620003fc8b828c0162000375565b975050604089015167ffffffffffffffff8111156200041a57600080fd5b620004288b828c0162000375565b965050606089015167ffffffffffffffff8111156200044657600080fd5b620004548b828c0162000375565b955050608089015167ffffffffffffffff8111156200047257600080fd5b620004808b828c0162000375565b94505060a089015167ffffffffffffffff8111156200049e57600080fd5b620004ac8b828c0162000375565b93505060c089015167ffffffffffffffff811115620004ca57600080fd5b620004d88b828c0162000348565b92505060e089015167ffffffffffffffff811115620004f657600080fd5b620005048b828c0162000348565b9150509295985092959890939650565b6000620005228383620005bc565b905092915050565b620005358162000733565b82525050565b60006200054882620006ee565b62000554818562000711565b9350836020820285016200056885620006de565b8060005b85811015620005aa578484038952815162000588858262000514565b9450620005958362000704565b925060208a019950506001810190506200056c565b50829750879550505050505092915050565b6000620005c982620006f9565b620005d5818562000722565b9350620005e781856020860162000767565b620005f28162000831565b840191505092915050565b60006060820190506200061460008301866200052a565b81810360208301526200062881856200053b565b905081810360408301526200063e81846200053b565b9050949350505050565b6000604051905081810181811067ffffffffffffffff8211171562000672576200067162000802565b5b8060405250919050565b600067ffffffffffffffff8211156200069a576200069962000802565b5b602082029050602081019050919050565b600067ffffffffffffffff821115620006c957620006c862000802565b5b601f19601f8301169050602081019050919050565b6000819050602082019050919050565b600081519050919050565b600081519050919050565b6000602082019050919050565b600082825260208201905092915050565b600082825260208201905092915050565b6000620007408262000747565b9050919050565b600073ffffffffffffffffffffffffffffffffffffffff82169050919050565b60005b83811015620007875780820151818401526020810190506200076a565b8381111562000797576000848401525b50505050565b60006002820490506001821680620007b657607f821691505b60208210811415620007cd57620007cc620007d3565b5b50919050565b7f4e487b7100000000000000000000000000000000000000000000000000000000600052602260045260246000fd5b7f4e487b7100000000000000000000000000000000000000000000000000000000600052604160045260246000fd5b6000601f19601f8301169050919050565b6200084d8162000733565b81146200085957600080fd5b50565b611b9b806200086c6000396000f3fe6080604052600436106100705760003560e01c8063321fff141161004e578063321fff14146100f65780633221688b146101215780635d69dfcc1461014a578063d36fc37d1461017557610070565b80630649f176146100755780630696281a146100a05780631d55ce5b146100cb575b600080fd5b34801561008157600080fd5b5061008a610191565b604051610097919061174a565b60405180910390f35b3480156100ac57600080fd5b506100b5610485565b6040516100c291906116a6565b60405180910390f35b3480156100d757600080fd5b506100e0610513565b6040516100ed91906116c8565b60405180910390f35b34801561010257600080fd5b5061010b61053d565b604051610118919061172f565b60405180910390f35b34801561012d57600080fd5b506101486004803603810190610143919061138b565b6105b9565b005b34801561015657600080fd5b5061015f610ff5565b60405161016c919061176c565b60405180910390f35b61018f600480360381019061018a9190611362565b6110f6565b005b610199611285565b60076040518060a00160405290816000820180546101b6906119ef565b80601f01602080910402602001604051908101604052809291908181526020018280546101e2906119ef565b801561022f5780601f106102045761010080835404028352916020019161022f565b820191906000526020600020905b81548152906001019060200180831161021257829003601f168201915b50505050508152602001600182018054610248906119ef565b80601f0160208091040260200160405190810160405280929190818152602001828054610274906119ef565b80156102c15780601f10610296576101008083540402835291602001916102c1565b820191906000526020600020905b8154815290600101906020018083116102a457829003601f168201915b505050505081526020016002820180546102da906119ef565b80601f0160208091040260200160405190810160405280929190818152602001828054610306906119ef565b80156103535780601f1061032857610100808354040283529160200191610353565b820191906000526020600020905b81548152906001019060200180831161033657829003601f168201915b5050505050815260200160038201805461036c906119ef565b80601f0160208091040260200160405190810160405280929190818152602001828054610398906119ef565b80156103e55780601f106103ba576101008083540402835291602001916103e5565b820191906000526020600020905b8154815290600101906020018083116103c857829003601f168201915b505050505081526020016004820180546103fe906119ef565b80601f016020809104026020016040519081016040528092919081815260200182805461042a906119ef565b80156104775780601f1061044c57610100808354040283529160200191610477565b820191906000526020600020905b81548152906001019060200180831161045a57829003601f168201915b505050505081525050905090565b6060600280548060200260200160405190810160405280929190818152602001828054801561050957602002820191906000526020600020905b8160009054906101000a900473ffffffffffffffffffffffffffffffffffffffff1673ffffffffffffffffffffffffffffffffffffffff16815260200190600101908083116104bf575b5050505050905090565b6000600160009054906101000a900473ffffffffffffffffffffffffffffffffffffffff16905090565b6105456112b4565b600660003373ffffffffffffffffffffffffffffffffffffffff1673ffffffffffffffffffffffffffffffffffffffff1681526020019081526020016000206040518060400160405290816000820160009054906101000a900460ff16151515158152602001600182015481525050905090565b600160009054906101000a900473ffffffffffffffffffffffffffffffffffffffff1673ffffffffffffffffffffffffffffffffffffffff166318ed2ad98484846040518463ffffffff1660e01b8152600401610618939291906116e3565b600060405180830381600087803b15801561063257600080fd5b505af1158015610646573d6000803e3d6000fd5b505050506000600380549050905060008060008060008567ffffffffffffffff81111561069c577f4e487b7100000000000000000000000000000000000000000000000000000000600052604160045260246000fd5b6040519080825280602002602001820160405280156106ca5781602001602082028036833780820191505090505b50905060005b86811015610732576000828281518110610713577f4e487b7100000000000000000000000000000000000000000000000000000000600052603260045260246000fd5b602002602001018181525050808061072a90611a21565b9150506106d0565b5060005b8681101561087c578a15156004828154811061077b577f4e487b7100000000000000000000000000000000000000000000000000000000600052603260045260246000fd5b90600052602060002090602091828204019190069054906101000a900460ff16151514156108085785806107ae90611a21565b965050600381815481106107eb577f4e487b7100000000000000000000000000000000000000000000000000000000600052603260045260246000fd5b906000526020600020015484610801919061184e565b9350610869565b848061081390611a21565b95505060038181548110610850577f4e487b7100000000000000000000000000000000000000000000000000000000600052603260045260246000fd5b906000526020600020015483610866919061184e565b92505b808061087490611a21565b915050610736565b50858514156109425760005b8681101561093c57600381815481106108ca577f4e487b7100000000000000000000000000000000000000000000000000000000600052603260045260246000fd5b906000526020600020015482828151811061090e577f4e487b7100000000000000000000000000000000000000000000000000000000600052603260045260246000fd5b60200260200101818151610922919061184e565b91508181525050808061093490611a21565b915050610888565b50610d07565b60005b86811015610d05578a15156004828154811061098a577f4e487b7100000000000000000000000000000000000000000000000000000000600052603260045260246000fd5b90600052602060002090602091828204019190069054906101000a900460ff1615151415610c4c57600381815481106109ec577f4e487b7100000000000000000000000000000000000000000000000000000000600052603260045260246000fd5b9060005260206000200154828281518110610a30577f4e487b7100000000000000000000000000000000000000000000000000000000600052603260045260246000fd5b60200260200101818151610a44919061184e565b915081815250506000846014610a5a91906118d5565b600960038481548110610a96577f4e487b7100000000000000000000000000000000000000000000000000000000600052603260045260246000fd5b906000526020600020015486610aac91906118d5565b610ab691906118d5565b610ac091906118a4565b905080838381518110610afc577f4e487b7100000000000000000000000000000000000000000000000000000000600052603260045260246000fd5b60200260200101818151610b10919061184e565b9150818152505060038281548110610b51577f4e487b7100000000000000000000000000000000000000000000000000000000600052603260045260246000fd5b90600052602060002001546002610b6891906118d5565b838381518110610ba1577f4e487b7100000000000000000000000000000000000000000000000000000000600052603260045260246000fd5b60200260200101511115610c465760038281548110610be9577f4e487b7100000000000000000000000000000000000000000000000000000000600052603260045260246000fd5b90600052602060002001546002610c0091906118d5565b838381518110610c39577f4e487b7100000000000000000000000000000000000000000000000000000000600052603260045260246000fd5b6020026020010181815250505b50610cf2565b600260038281548110610c88577f4e487b7100000000000000000000000000000000000000000000000000000000600052603260045260246000fd5b9060005260206000200154610c9d91906118a4565b828281518110610cd6577f4e487b7100000000000000000000000000000000000000000000000000000000600052603260045260246000fd5b60200260200101818151610cea919061184e565b915081815250505b8080610cfd90611a21565b915050610945565b505b60005b86811015610f0a5760028181548110610d4c577f4e487b7100000000000000000000000000000000000000000000000000000000600052603260045260246000fd5b9060005260206000200160009054906101000a900473ffffffffffffffffffffffffffffffffffffffff1673ffffffffffffffffffffffffffffffffffffffff166108fc838381518110610dc9577f4e487b7100000000000000000000000000000000000000000000000000000000600052603260045260246000fd5b60200260200101519081150290604051600060405180830381858888f19350505050158015610dfc573d6000803e3d6000fd5b50818181518110610e36577f4e487b7100000000000000000000000000000000000000000000000000000000600052603260045260246000fd5b60200260200101516005600060028481548110610e7c577f4e487b7100000000000000000000000000000000000000000000000000000000600052603260045260246000fd5b9060005260206000200160009054906101000a900473ffffffffffffffffffffffffffffffffffffffff1673ffffffffffffffffffffffffffffffffffffffff1673ffffffffffffffffffffffffffffffffffffffff1681526020019081526020016000206000828254610ef0919061184e565b925050819055508080610f0290611a21565b915050610d0a565b5047600560008060009054906101000a900473ffffffffffffffffffffffffffffffffffffffff1673ffffffffffffffffffffffffffffffffffffffff1673ffffffffffffffffffffffffffffffffffffffff1681526020019081526020016000206000828254610f7b919061184e565b9250508190555060008054906101000a900473ffffffffffffffffffffffffffffffffffffffff1673ffffffffffffffffffffffffffffffffffffffff166108fc479081150290604051600060405180830381858888f19350505050158015610fe8573d6000803e3d6000fd5b5050505050505050505050565b600080600160009054906101000a900473ffffffffffffffffffffffffffffffffffffffff1673ffffffffffffffffffffffffffffffffffffffff1663135dcff3336040518263ffffffff1660e01b81526004016110539190611662565b60206040518083038186803b15801561106b57600080fd5b505afa15801561107f573d6000803e3d6000fd5b505050506040513d601f19601f820116820180604052508101906110a39190611436565b905080600560003373ffffffffffffffffffffffffffffffffffffffff1673ffffffffffffffffffffffffffffffffffffffff168152602001908152602001600020546110f0919061184e565b91505090565b6002339080600181540180825580915050600190039060005260206000200160009091909190916101000a81548173ffffffffffffffffffffffffffffffffffffffff021916908373ffffffffffffffffffffffffffffffffffffffff160217905550600334908060018154018082558091505060019003906000526020600020016000909190919091505560048190806001815401808255809150506001900390600052602060002090602091828204019190069091909190916101000a81548160ff0219169083151502179055506040518060400160405280821515815260200134815250600660003373ffffffffffffffffffffffffffffffffffffffff1673ffffffffffffffffffffffffffffffffffffffff16815260200190815260200160002060008201518160000160006101000a81548160ff021916908315150217905550602082015181600101559050507f505fa9d7c1e6de29c97a8f8c0506e116cd1398a62ae875c534f148877e62c638333460405161127a92919061167d565b60405180910390a150565b6040518060a0016040528060608152602001606081526020016060815260200160608152602001606081525090565b6040518060400160405280600015158152602001600081525090565b60006112e36112de846117b8565b611787565b9050828152602081018484840111156112fb57600080fd5b6113068482856119ad565b509392505050565b60008135905061131d81611b37565b92915050565b600082601f83011261133457600080fd5b81356113448482602086016112d0565b91505092915050565b60008151905061135c81611b4e565b92915050565b60006020828403121561137457600080fd5b60006113828482850161130e565b91505092915050565b600080600080608085870312156113a157600080fd5b60006113af8782880161130e565b945050602085013567ffffffffffffffff8111156113cc57600080fd5b6113d887828801611323565b935050604085013567ffffffffffffffff8111156113f557600080fd5b61140187828801611323565b925050606085013567ffffffffffffffff81111561141e57600080fd5b61142a87828801611323565b91505092959194509250565b60006020828403121561144857600080fd5b60006114568482850161134d565b91505092915050565b600061146b8383611477565b60208301905092915050565b61148081611941565b82525050565b61148f8161192f565b82525050565b60006114a0826117f8565b6114aa818561181b565b93506114b5836117e8565b8060005b838110156114e65781516114cd888261145f565b97506114d88361180e565b9250506001810190506114b9565b5085935050505092915050565b6114fc81611953565b82525050565b61150b81611989565b82525050565b600061151c82611803565b611526818561182c565b93506115368185602086016119bc565b61153f81611b26565b840191505092915050565b600061155582611803565b61155f818561183d565b935061156f8185602086016119bc565b61157881611b26565b840191505092915050565b60408201600082015161159960008501826114f3565b5060208201516115ac6020850182611644565b50505050565b600060a08301600083015184820360008601526115cf8282611511565b915050602083015184820360208601526115e98282611511565b915050604083015184820360408601526116038282611511565b9150506060830151848203606086015261161d8282611511565b915050608083015184820360808601526116378282611511565b9150508091505092915050565b61164d8161197f565b82525050565b61165c8161197f565b82525050565b60006020820190506116776000830184611486565b92915050565b60006040820190506116926000830185611486565b61169f6020830184611653565b9392505050565b600060208201905081810360008301526116c08184611495565b905092915050565b60006020820190506116dd6000830184611502565b92915050565b600060608201905081810360008301526116fd818661154a565b90508181036020830152611711818561154a565b90508181036040830152611725818461154a565b9050949350505050565b60006040820190506117446000830184611583565b92915050565b6000602082019050818103600083015261176481846115b2565b905092915050565b60006020820190506117816000830184611653565b92915050565b6000604051905081810181811067ffffffffffffffff821117156117ae576117ad611af7565b5b8060405250919050565b600067ffffffffffffffff8211156117d3576117d2611af7565b5b601f19601f8301169050602081019050919050565b6000819050602082019050919050565b600081519050919050565b600081519050919050565b6000602082019050919050565b600082825260208201905092915050565b600082825260208201905092915050565b600082825260208201905092915050565b60006118598261197f565b91506118648361197f565b9250827fffffffffffffffffffffffffffffffffffffffffffffffffffffffffffffffff0382111561189957611898611a6a565b5b828201905092915050565b60006118af8261197f565b91506118ba8361197f565b9250826118ca576118c9611a99565b5b828204905092915050565b60006118e08261197f565b91506118eb8361197f565b9250817fffffffffffffffffffffffffffffffffffffffffffffffffffffffffffffffff048311821515161561192457611923611a6a565b5b828202905092915050565b600061193a8261195f565b9050919050565b600061194c8261195f565b9050919050565b60008115159050919050565b600073ffffffffffffffffffffffffffffffffffffffff82169050919050565b6000819050919050565b60006119948261199b565b9050919050565b60006119a68261195f565b9050919050565b82818337600083830152505050565b60005b838110156119da5780820151818401526020810190506119bf565b838111156119e9576000848401525b50505050565b60006002820490506001821680611a0757607f821691505b60208210811415611a1b57611a1a611ac8565b5b50919050565b6000611a2c8261197f565b91507fffffffffffffffffffffffffffffffffffffffffffffffffffffffffffffffff821415611a5f57611a5e611a6a565b5b600182019050919050565b7f4e487b7100000000000000000000000000000000000000000000000000000000600052601160045260246000fd5b7f4e487b7100000000000000000000000000000000000000000000000000000000600052601260045260246000fd5b7f4e487b7100000000000000000000000000000000000000000000000000000000600052602260045260246000fd5b7f4e487b7100000000000000000000000000000000000000000000000000000000600052604160045260246000fd5b6000601f19601f8301169050919050565b611b4081611953565b8114611b4b57600080fd5b50565b611b578161197f565b8114611b6257600080fd5b5056fea26469706673582212207113a211c5415211e26582a915715efa2c7fc1811b1e955dadc056529fe2807064736f6c6343000800003360806040523480156200001157600080fd5b50604051620023a0380380620023a0833981810160405281019062000037919062000378565b826000806101000a81548173ffffffffffffffffffffffffffffffffffffffff021916908373ffffffffffffffffffffffffffffffffffffffff16021790555060405180604001604052808381526020018281525060066000820151816000019080519060200190620000ac929190620000d8565b506020820151816001019080519060200190620000cb929190620000d8565b50905050505050620005ae565b8280548282559060005260206000209081019282156200012c579160200282015b828111156200012b5782518290805190602001906200011a9291906200013f565b5091602001919060010190620000f9565b5b5090506200013b9190620001d0565b5090565b8280546200014d9062000500565b90600052602060002090601f016020900481019282620001715760008555620001bd565b82601f106200018c57805160ff1916838001178555620001bd565b82800160010185558215620001bd579182015b82811115620001bc5782518255916020019190600101906200019f565b5b509050620001cc9190620001f8565b5090565b5b80821115620001f45760008181620001ea919062000217565b50600101620001d1565b5090565b5b8082111562000213576000816000905550600101620001f9565b5090565b508054620002259062000500565b6000825580601f106200023957506200025a565b601f016020900490600052602060002090810190620002599190620001f8565b5b50565b6000620002746200026e8462000434565b62000400565b9050808382526020820190508260005b85811015620002b857815185016200029d88826200034b565b84526020840193506020830192505060018101905062000284565b5050509392505050565b6000620002d9620002d38462000463565b62000400565b905082815260208101848484011115620002f257600080fd5b620002ff848285620004ca565b509392505050565b600081519050620003188162000594565b92915050565b600082601f8301126200033057600080fd5b8151620003428482602086016200025d565b91505092915050565b600082601f8301126200035d57600080fd5b81516200036f848260208601620002c2565b91505092915050565b6000806000606084860312156200038e57600080fd5b60006200039e8682870162000307565b935050602084015167ffffffffffffffff811115620003bc57600080fd5b620003ca868287016200031e565b925050604084015167ffffffffffffffff811115620003e857600080fd5b620003f6868287016200031e565b9150509250925092565b6000604051905081810181811067ffffffffffffffff821117156200042a576200042962000565565b5b8060405250919050565b600067ffffffffffffffff82111562000452576200045162000565565b5b602082029050602081019050919050565b600067ffffffffffffffff82111562000481576200048062000565565b5b601f19601f8301169050602081019050919050565b6000620004a382620004aa565b9050919050565b600073ffffffffffffffffffffffffffffffffffffffff82169050919050565b60005b83811015620004ea578082015181840152602081019050620004cd565b83811115620004fa576000848401525b50505050565b600060028204905060018216806200051957607f821691505b6020821081141562000530576200052f62000536565b5b50919050565b7f4e487b7100000000000000000000000000000000000000000000000000000000600052602260045260246000fd5b7f4e487b7100000000000000000000000000000000000000000000000000000000600052604160045260246000fd5b6200059f8162000496565b8114620005ab57600080fd5b50565b611de280620005be6000396000f3fe6080604052600436106100555760003560e01c80630696281a1461005a578063135dcff31461008557806318ed2ad9146100c2578063321fff14146100eb5780639039a14e14610116578063ce64d8c814610141575b600080fd5b34801561006657600080fd5b5061006f61015d565b60405161007c9190611913565b60405180910390f35b34801561009157600080fd5b506100ac60048036038101906100a7919061148d565b6101eb565b6040516100b99190611979565b60405180910390f35b3480156100ce57600080fd5b506100e960048036038101906100e491906114f7565b610234565b005b3480156100f757600080fd5b50610100610ea5565b60405161010d9190611935565b60405180910390f35b34801561012257600080fd5b5061012b610fdd565b6040516101389190611957565b60405180910390f35b61015b600480360381019061015691906114b6565b6111a9565b005b606060018054806020026020016040519081016040528092919081815260200182805480156101e157602002820191906000526020600020905b8160009054906101000a900473ffffffffffffffffffffffffffffffffffffffff1673ffffffffffffffffffffffffffffffffffffffff1681526020019060010190808311610197575b5050505050905090565b6000600460008373ffffffffffffffffffffffffffffffffffffffff1673ffffffffffffffffffffffffffffffffffffffff168152602001908152602001600020549050919050565b6000600280549050905060008060008060008567ffffffffffffffff811115610286577f4e487b7100000000000000000000000000000000000000000000000000000000600052604160045260246000fd5b6040519080825280602002602001820160405280156102b45781602001602082028036833780820191505090505b50905060005b8681101561031c5760008282815181106102fd577f4e487b7100000000000000000000000000000000000000000000000000000000600052603260045260246000fd5b602002602001018181525050808061031490611c7f565b9150506102ba565b5060005b868110156105ca578960405160200161033991906118bc565b6040516020818303038152906040528051906020012060038281548110610389577f4e487b7100000000000000000000000000000000000000000000000000000000600052603260045260246000fd5b906000526020600020016040516020016103a391906118d3565b6040516020818303038152906040528051906020012014806104535750886040516020016103d191906118bc565b6040516020818303038152906040528051906020012060038281548110610421577f4e487b7100000000000000000000000000000000000000000000000000000000600052603260045260246000fd5b9060005260206000200160405160200161043b91906118d3565b60405160208183030381529060405280519060200120145b806104ec57508760405160200161046a91906118bc565b60405160208183030381529060405280519060200120600382815481106104ba577f4e487b7100000000000000000000000000000000000000000000000000000000600052603260045260246000fd5b906000526020600020016040516020016104d491906118d3565b60405160208183030381529060405280519060200120145b156105565785806104fc90611c7f565b96505060028181548110610539577f4e487b7100000000000000000000000000000000000000000000000000000000600052603260045260246000fd5b90600052602060002001548461054f9190611adc565b93506105b7565b848061056190611c7f565b9550506002818154811061059e577f4e487b7100000000000000000000000000000000000000000000000000000000600052603260045260246000fd5b9060005260206000200154836105b49190611adc565b92505b80806105c290611c7f565b915050610320565b50858514156106905760005b8681101561068a5760028181548110610618577f4e487b7100000000000000000000000000000000000000000000000000000000600052603260045260246000fd5b906000526020600020015482828151811061065c577f4e487b7100000000000000000000000000000000000000000000000000000000600052603260045260246000fd5b602002602001018181516106709190611adc565b91508181525050808061068290611c7f565b9150506105d6565b50610bb8565b60005b86811015610bb657896040516020016106ac91906118bc565b60405160208183030381529060405280519060200120600382815481106106fc577f4e487b7100000000000000000000000000000000000000000000000000000000600052603260045260246000fd5b9060005260206000200160405160200161071691906118d3565b6040516020818303038152906040528051906020012014806107c657508860405160200161074491906118bc565b6040516020818303038152906040528051906020012060038281548110610794577f4e487b7100000000000000000000000000000000000000000000000000000000600052603260045260246000fd5b906000526020600020016040516020016107ae91906118d3565b60405160208183030381529060405280519060200120145b8061085f5750876040516020016107dd91906118bc565b604051602081830303815290604052805190602001206003828154811061082d577f4e487b7100000000000000000000000000000000000000000000000000000000600052603260045260246000fd5b9060005260206000200160405160200161084791906118d3565b60405160208183030381529060405280519060200120145b15610afe576002818154811061089e577f4e487b7100000000000000000000000000000000000000000000000000000000600052603260045260246000fd5b90600052602060002001548282815181106108e2577f4e487b7100000000000000000000000000000000000000000000000000000000600052603260045260246000fd5b602002602001018181516108f69190611adc565b91508181525050600084601461090c9190611b63565b600960028481548110610948577f4e487b7100000000000000000000000000000000000000000000000000000000600052603260045260246000fd5b90600052602060002001548661095e9190611b63565b6109689190611b63565b6109729190611b32565b9050808383815181106109ae577f4e487b7100000000000000000000000000000000000000000000000000000000600052603260045260246000fd5b602002602001018181516109c29190611adc565b9150818152505060028281548110610a03577f4e487b7100000000000000000000000000000000000000000000000000000000600052603260045260246000fd5b90600052602060002001546002610a1a9190611b63565b838381518110610a53577f4e487b7100000000000000000000000000000000000000000000000000000000600052603260045260246000fd5b60200260200101511115610af85760028281548110610a9b577f4e487b7100000000000000000000000000000000000000000000000000000000600052603260045260246000fd5b90600052602060002001546002610ab29190611b63565b838381518110610aeb577f4e487b7100000000000000000000000000000000000000000000000000000000600052603260045260246000fd5b6020026020010181815250505b50610ba3565b6002808281548110610b39577f4e487b7100000000000000000000000000000000000000000000000000000000600052603260045260246000fd5b9060005260206000200154610b4e9190611b32565b828281518110610b87577f4e487b7100000000000000000000000000000000000000000000000000000000600052603260045260246000fd5b60200260200101818151610b9b9190611adc565b915081815250505b8080610bae90611c7f565b915050610693565b505b60005b86811015610dbb5760018181548110610bfd577f4e487b7100000000000000000000000000000000000000000000000000000000600052603260045260246000fd5b9060005260206000200160009054906101000a900473ffffffffffffffffffffffffffffffffffffffff1673ffffffffffffffffffffffffffffffffffffffff166108fc838381518110610c7a577f4e487b7100000000000000000000000000000000000000000000000000000000600052603260045260246000fd5b60200260200101519081150290604051600060405180830381858888f19350505050158015610cad573d6000803e3d6000fd5b50818181518110610ce7577f4e487b7100000000000000000000000000000000000000000000000000000000600052603260045260246000fd5b60200260200101516004600060018481548110610d2d577f4e487b7100000000000000000000000000000000000000000000000000000000600052603260045260246000fd5b9060005260206000200160009054906101000a900473ffffffffffffffffffffffffffffffffffffffff1673ffffffffffffffffffffffffffffffffffffffff1673ffffffffffffffffffffffffffffffffffffffff1681526020019081526020016000206000828254610da19190611adc565b925050819055508080610db390611c7f565b915050610bbb565b5047600460008060009054906101000a900473ffffffffffffffffffffffffffffffffffffffff1673ffffffffffffffffffffffffffffffffffffffff1673ffffffffffffffffffffffffffffffffffffffff1681526020019081526020016000206000828254610e2c9190611adc565b9250508190555060008054906101000a900473ffffffffffffffffffffffffffffffffffffffff1673ffffffffffffffffffffffffffffffffffffffff166108fc479081150290604051600060405180830381858888f19350505050158015610e99573d6000803e3d6000fd5b50505050505050505050565b6060600560003373ffffffffffffffffffffffffffffffffffffffff1673ffffffffffffffffffffffffffffffffffffffff168152602001908152602001600020805480602002602001604051908101604052809291908181526020016000905b82821015610fd45783829060005260206000209060020201604051806040016040529081600082018054610f3990611c4d565b80601f0160208091040260200160405190810160405280929190818152602001828054610f6590611c4d565b8015610fb25780601f10610f8757610100808354040283529160200191610fb2565b820191906000526020600020905b815481529060010190602001808311610f9557829003601f168201915b5050505050815260200160018201548152505081526020019060010190610f06565b50505050905090565b610fe5611353565b600660405180604001604052908160008201805480602002602001604051908101604052809291908181526020016000905b828210156110c357838290600052602060002001805461103690611c4d565b80601f016020809104026020016040519081016040528092919081815260200182805461106290611c4d565b80156110af5780601f10611084576101008083540402835291602001916110af565b820191906000526020600020905b81548152906001019060200180831161109257829003601f168201915b505050505081526020019060010190611017565b50505050815260200160018201805480602002602001604051908101604052809291908181526020016000905b8282101561119c57838290600052602060002001805461110f90611c4d565b80601f016020809104026020016040519081016040528092919081815260200182805461113b90611c4d565b80156111885780601f1061115d57610100808354040283529160200191611188565b820191906000526020600020905b81548152906001019060200180831161116b57829003601f168201915b5050505050815260200190600101906110f0565b5050505081525050905090565b6001339080600181540180825580915050600190039060005260206000200160009091909190916101000a81548173ffffffffffffffffffffffffffffffffffffffff021916908373ffffffffffffffffffffffffffffffffffffffff160217905550600234908060018154018082558091505060019003906000526020600020016000909190919091505560038190806001815401808255809150506001900390600052602060002001600090919091909150908051906020019061127092919061136d565b50600560003373ffffffffffffffffffffffffffffffffffffffff1673ffffffffffffffffffffffffffffffffffffffff1681526020019081526020016000206040518060400160405280838152602001348152509080600181540180825580915050600190039060005260206000209060020201600090919091909150600082015181600001908051906020019061130a92919061136d565b506020820151816001015550507f505fa9d7c1e6de29c97a8f8c0506e116cd1398a62ae875c534f148877e62c63833346040516113489291906118ea565b60405180910390a150565b604051806040016040528060608152602001606081525090565b82805461137990611c4d565b90600052602060002090601f01602090048101928261139b57600085556113e2565b82601f106113b457805160ff19168380011785556113e2565b828001600101855582156113e2579182015b828111156113e15782518255916020019190600101906113c6565b5b5090506113ef91906113f3565b5090565b5b8082111561140c5760008160009055506001016113f4565b5090565b600061142361141e846119c5565b611994565b90508281526020810184848401111561143b57600080fd5b611446848285611c0b565b509392505050565b60008135905061145d81611d95565b92915050565b600082601f83011261147457600080fd5b8135611484848260208601611410565b91505092915050565b60006020828403121561149f57600080fd5b60006114ad8482850161144e565b91505092915050565b6000602082840312156114c857600080fd5b600082013567ffffffffffffffff8111156114e257600080fd5b6114ee84828501611463565b91505092915050565b60008060006060848603121561150c57600080fd5b600084013567ffffffffffffffff81111561152657600080fd5b61153286828701611463565b935050602084013567ffffffffffffffff81111561154f57600080fd5b61155b86828701611463565b925050604084013567ffffffffffffffff81111561157857600080fd5b61158486828701611463565b9150509250925092565b600061159a83836115ce565b60208301905092915050565b60006115b28383611734565b905092915050565b60006115c6838361181d565b905092915050565b6115d781611bcf565b82525050565b6115e681611bbd565b82525050565b60006115f782611a3a565b6116018185611a8d565b935061160c836119f5565b8060005b8381101561163d578151611624888261158e565b975061162f83611a66565b925050600181019050611610565b5085935050505092915050565b600061165582611a45565b61165f8185611a9e565b93508360208202850161167185611a05565b8060005b858110156116ad578484038952815161168e85826115a6565b945061169983611a73565b925060208a01995050600181019050611675565b50829750879550505050505092915050565b60006116ca82611a50565b6116d48185611aaf565b9350836020820285016116e685611a15565b8060005b85811015611722578484038952815161170385826115ba565b945061170e83611a80565b925060208a019950506001810190506116ea565b50829750879550505050505092915050565b600061173f82611a5b565b6117498185611ac0565b9350611759818560208601611c1a565b61176281611d84565b840191505092915050565b600061177882611a5b565b6117828185611ad1565b9350611792818560208601611c1a565b80840191505092915050565b600081546117ab81611c4d565b6117b58186611ad1565b945060018216600081146117d057600181146117e157611814565b60ff19831686528186019350611814565b6117ea85611a25565b60005b8381101561180c578154818901526001820191506020810190506117ed565b838801955050505b50505092915050565b6000604083016000830151848203600086015261183a8282611734565b915050602083015161184f602086018261189e565b508091505092915050565b60006040830160008301518482036000860152611877828261164a565b91505060208301518482036020860152611891828261164a565b9150508091505092915050565b6118a781611c01565b82525050565b6118b681611c01565b82525050565b60006118c8828461176d565b915081905092915050565b60006118df828461179e565b915081905092915050565b60006040820190506118ff60008301856115dd565b61190c60208301846118ad565b9392505050565b6000602082019050818103600083015261192d81846115ec565b905092915050565b6000602082019050818103600083015261194f81846116bf565b905092915050565b60006020820190508181036000830152611971818461185a565b905092915050565b600060208201905061198e60008301846118ad565b92915050565b6000604051905081810181811067ffffffffffffffff821117156119bb576119ba611d55565b5b8060405250919050565b600067ffffffffffffffff8211156119e0576119df611d55565b5b601f19601f8301169050602081019050919050565b6000819050602082019050919050565b6000819050602082019050919050565b6000819050602082019050919050565b60008190508160005260206000209050919050565b600081519050919050565b600081519050919050565b600081519050919050565b600081519050919050565b6000602082019050919050565b6000602082019050919050565b6000602082019050919050565b600082825260208201905092915050565b600082825260208201905092915050565b600082825260208201905092915050565b600082825260208201905092915050565b600081905092915050565b6000611ae782611c01565b9150611af283611c01565b9250827fffffffffffffffffffffffffffffffffffffffffffffffffffffffffffffffff03821115611b2757611b26611cc8565b5b828201905092915050565b6000611b3d82611c01565b9150611b4883611c01565b925082611b5857611b57611cf7565b5b828204905092915050565b6000611b6e82611c01565b9150611b7983611c01565b9250817fffffffffffffffffffffffffffffffffffffffffffffffffffffffffffffffff0483118215151615611bb257611bb1611cc8565b5b828202905092915050565b6000611bc882611be1565b9050919050565b6000611bda82611be1565b9050919050565b600073ffffffffffffffffffffffffffffffffffffffff82169050919050565b6000819050919050565b82818337600083830152505050565b60005b83811015611c38578082015181840152602081019050611c1d565b83811115611c47576000848401525b50505050565b60006002820490506001821680611c6557607f821691505b60208210811415611c7957611c78611d26565b5b50919050565b6000611c8a82611c01565b91507fffffffffffffffffffffffffffffffffffffffffffffffffffffffffffffffff821415611cbd57611cbc611cc8565b5b600182019050919050565b7f4e487b7100000000000000000000000000000000000000000000000000000000600052601160045260246000fd5b7f4e487b7100000000000000000000000000000000000000000000000000000000600052601260045260246000fd5b7f4e487b7100000000000000000000000000000000000000000000000000000000600052602260045260246000fd5b7f4e487b7100000000000000000000000000000000000000000000000000000000600052604160045260246000fd5b6000601f19601f8301169050919050565b611d9e81611bbd565b8114611da957600080fd5b5056fea264697066735822122071490a820275a7441efecadc6299a4430a42afdbd20f4a23306110213962046264736f6c63430008000033a26469706673582212208015382c3c65c14b3220706abb3e410dcf78199d1c38a95d685c4c8bc2453c0264736f6c63430008000033",
  "linkReferences": {},
  "deployedLinkReferences": {}
}