{
  "_format": "hh-sol-artifact-1",
  "contractName": "Wrapper",
  "sourceName": "contracts/Wrapper.sol",
  "abi": [
    {
      "inputs": [],
      "stateMutability": "nonpayable",
      "type": "constructor"
    },
    {
      "inputs": [
        {
          "internalType": "contract Match",
          "name": "closeMatch",
          "type": "address"
        },
        {
          "internalType": "bool",
          "name": "result",
          "type": "bool"
        },
        {
          "internalType": "string",
          "name": "first",
          "type": "string"
        },
        {
          "internalType": "string",
          "name": "second",
          "type": "string"
        },
        {
          "internalType": "string",
          "name": "third",
          "type": "string"
        }
      ],
      "name": "closeBet",
      "outputs": [],
      "stateMutability": "nonpayable",
      "type": "function"
    },
    {
      "inputs": [
        {
          "internalType": "string",
          "name": "team1_input",
          "type": "string"
        },
        {
          "internalType": "string",
          "name": "team2_input",
          "type": "string"
        },
        {
          "internalType": "string[]",
          "name": "player_info_team1_input",
          "type": "string[]"
        },
        {
          "internalType": "string[]",
          "name": "player_info_team2_input",
          "type": "string[]"
        }
      ],
      "name": "createbet",
      "outputs": [
        {
          "internalType": "contract Match",
          "name": "",
          "type": "address"
        }
      ],
      "stateMutability": "nonpayable",
      "type": "function"
    },
    {
      "inputs": [],
      "name": "viewclosematches",
      "outputs": [
        {
          "internalType": "contract Match[]",
          "name": "",
          "type": "address[]"
        }
      ],
      "stateMutability": "view",
      "type": "function"
    },
    {
      "inputs": [],
      "name": "viewlivematches",
      "outputs": [
        {
          "internalType": "contract Match[]",
          "name": "",
          "type": "address[]"
        }
      ],
      "stateMutability": "view",
      "type": "function"
    }
  ],
  "bytecode": "0x608060405234801561001057600080fd5b50336000806101000a81548173ffffffffffffffffffffffffffffffffffffffff021916908373ffffffffffffffffffffffffffffffffffffffff160217905550614df6806100606000396000f3fe60806040523480156200001157600080fd5b5060043610620000525760003560e01c80633d465382146200005757806367eed0d91462000079578063ce3b87e514620000af578063e8bdb76914620000d1575b600080fd5b62000061620000f1565b60405162000070919062000a95565b60405180910390f35b6200009760048036038101906200009191906200076b565b62000181565b604051620000a6919062000b1b565b60405180910390f35b620000b962000256565b604051620000c8919062000a95565b60405180910390f35b620000ef6004803603810190620000e991906200069e565b620002e6565b005b606060028054806020026020016040519081016040528092919081815260200182805480156200017757602002820191906000526020600020905b8160009054906101000a900473ffffffffffffffffffffffffffffffffffffffff1673ffffffffffffffffffffffffffffffffffffffff16815260200190600101908083116200012c575b5050505050905090565b60008060008054906101000a900473ffffffffffffffffffffffffffffffffffffffff1686868686604051620001b7906200055e565b620001c795949392919062000a1c565b604051809103906000f080158015620001e4573d6000803e3d6000fd5b5090506001819080600181540180825580915050600190039060005260206000200160009091909190916101000a81548173ffffffffffffffffffffffffffffffffffffffff021916908373ffffffffffffffffffffffffffffffffffffffff16021790555080915050949350505050565b60606001805480602002602001604051908101604052809291908181526020018280548015620002dc57602002820191906000526020600020905b8160009054906101000a900473ffffffffffffffffffffffffffffffffffffffff1673ffffffffffffffffffffffffffffffffffffffff168152602001906001019080831162000291575b5050505050905090565b600080600090505b600180549050811015620003b0578673ffffffffffffffffffffffffffffffffffffffff16600182815481106200034e577f4e487b7100000000000000000000000000000000000000000000000000000000600052603260045260246000fd5b9060005260206000200160009054906101000a900473ffffffffffffffffffffffffffffffffffffffff1673ffffffffffffffffffffffffffffffffffffffff1614156200039a578091505b8080620003a79062000d4c565b915050620002ee565b50600260018281548110620003ee577f4e487b7100000000000000000000000000000000000000000000000000000000600052603260045260246000fd5b9060005260206000200160009054906101000a900473ffffffffffffffffffffffffffffffffffffffff169080600181540180825580915050600190039060005260206000200160009091909190916101000a81548173ffffffffffffffffffffffffffffffffffffffff021916908373ffffffffffffffffffffffffffffffffffffffff16021790555060018181548110620004b4577f4e487b7100000000000000000000000000000000000000000000000000000000600052603260045260246000fd5b9060005260206000200160006101000a81549073ffffffffffffffffffffffffffffffffffffffff02191690558573ffffffffffffffffffffffffffffffffffffffff16633221688b868686866040518563ffffffff1660e01b815260040162000522949392919062000ab9565b600060405180830381600087803b1580156200053d57600080fd5b505af115801562000552573d6000803e3d6000fd5b50505050505050505050565b613f838062000e3e83390190565b6000620005836200057d8462000b6c565b62000b38565b9050808382526020820190508260005b85811015620005c75781358501620005ac888262000671565b84526020840193506020830192505060018101905062000593565b5050509392505050565b6000620005e8620005e28462000b9b565b62000b38565b9050828152602081018484840111156200060157600080fd5b6200060e84828562000d07565b509392505050565b600082601f8301126200062857600080fd5b81356200063a8482602086016200056c565b91505092915050565b600081359050620006548162000e09565b92915050565b6000813590506200066b8162000e23565b92915050565b600082601f8301126200068357600080fd5b813562000695848260208601620005d1565b91505092915050565b600080600080600060a08688031215620006b757600080fd5b6000620006c7888289016200065a565b9550506020620006da8882890162000643565b945050604086013567ffffffffffffffff811115620006f857600080fd5b620007068882890162000671565b935050606086013567ffffffffffffffff8111156200072457600080fd5b620007328882890162000671565b925050608086013567ffffffffffffffff8111156200075057600080fd5b6200075e8882890162000671565b9150509295509295909350565b600080600080608085870312156200078257600080fd5b600085013567ffffffffffffffff8111156200079d57600080fd5b620007ab8782880162000671565b945050602085013567ffffffffffffffff811115620007c957600080fd5b620007d78782880162000671565b935050604085013567ffffffffffffffff811115620007f557600080fd5b620008038782880162000616565b925050606085013567ffffffffffffffff8111156200082157600080fd5b6200082f8782880162000616565b91505092959194509250565b600062000849838362000978565b60208301905092915050565b60006200086383836200099a565b905092915050565b620008768162000c81565b82525050565b6000620008898262000bee565b62000895818562000c29565b9350620008a28362000bce565b8060005b83811015620008d9578151620008bd88826200083b565b9750620008ca8362000c0f565b925050600181019050620008a6565b5085935050505092915050565b6000620008f38262000bf9565b620008ff818562000c3a565b935083602082028501620009138562000bde565b8060005b8581101562000955578484038952815162000933858262000855565b9450620009408362000c1c565b925060208a0199505060018101905062000917565b50829750879550505050505092915050565b620009728162000c95565b82525050565b620009838162000cdf565b82525050565b620009948162000cdf565b82525050565b6000620009a78262000c04565b620009b3818562000c4b565b9350620009c581856020860162000d16565b620009d08162000df8565b840191505092915050565b6000620009e88262000c04565b620009f4818562000c5c565b935062000a0681856020860162000d16565b62000a118162000df8565b840191505092915050565b600060a08201905062000a3360008301886200086b565b818103602083015262000a478187620009db565b9050818103604083015262000a5d8186620009db565b9050818103606083015262000a738185620008e6565b9050818103608083015262000a898184620008e6565b90509695505050505050565b6000602082019050818103600083015262000ab181846200087c565b905092915050565b600060808201905062000ad0600083018762000967565b818103602083015262000ae48186620009db565b9050818103604083015262000afa8185620009db565b9050818103606083015262000b108184620009db565b905095945050505050565b600060208201905062000b32600083018462000989565b92915050565b6000604051905081810181811067ffffffffffffffff8211171562000b625762000b6162000dc9565b5b8060405250919050565b600067ffffffffffffffff82111562000b8a5762000b8962000dc9565b5b602082029050602081019050919050565b600067ffffffffffffffff82111562000bb95762000bb862000dc9565b5b601f19601f8301169050602081019050919050565b6000819050602082019050919050565b6000819050602082019050919050565b600081519050919050565b600081519050919050565b600081519050919050565b6000602082019050919050565b6000602082019050919050565b600082825260208201905092915050565b600082825260208201905092915050565b600082825260208201905092915050565b600082825260208201905092915050565b600062000c7a8262000cb5565b9050919050565b600062000c8e8262000cb5565b9050919050565b60008115159050919050565b600062000cae8262000c6d565b9050919050565b600073ffffffffffffffffffffffffffffffffffffffff82169050919050565b6000819050919050565b600062000cec8262000cf3565b9050919050565b600062000d008262000cb5565b9050919050565b82818337600083830152505050565b60005b8381101562000d3657808201518184015260208101905062000d19565b8381111562000d46576000848401525b50505050565b600062000d598262000cd5565b91507fffffffffffffffffffffffffffffffffffffffffffffffffffffffffffffffff82141562000d8f5762000d8e62000d9a565b5b600182019050919050565b7f4e487b7100000000000000000000000000000000000000000000000000000000600052601160045260246000fd5b7f4e487b7100000000000000000000000000000000000000000000000000000000600052604160045260246000fd5b6000601f19601f8301169050919050565b62000e148162000c95565b811462000e2057600080fd5b50565b62000e2e8162000ca1565b811462000e3a57600080fd5b5056fe60806040523480156200001157600080fd5b5060405162003f8338038062003f83833981810160405281019062000037919062000330565b846000806101000a81548173ffffffffffffffffffffffffffffffffffffffff021916908373ffffffffffffffffffffffffffffffffffffffff16021790555060405180604001604052808581526020018481525060066000820151816000019080519060200190620000ac92919062000157565b506020820151816001019080519060200190620000cb92919062000157565b50905050848282604051620000e090620001e8565b620000ee93929190620004ff565b604051809103906000f0801580156200010b573d6000803e3d6000fd5b50600160006101000a81548173ffffffffffffffffffffffffffffffffffffffff021916908373ffffffffffffffffffffffffffffffffffffffff16021790555050505050506200075e565b82805462000165906200069f565b90600052602060002090601f016020900481019282620001895760008555620001d5565b82601f10620001a457805160ff1916838001178555620001d5565b82800160010185558215620001d5579182015b82811115620001d4578251825591602001919060010190620001b7565b5b509050620001e49190620001f6565b5090565b61205c8062001f2783390190565b5b8082111562000211576000816000905550600101620001f7565b5090565b60006200022c62000226846200057e565b6200054a565b9050808382526020820190508260005b8581101562000270578151850162000255888262000303565b8452602084019350602083019250506001810190506200023c565b5050509392505050565b6000620002916200028b84620005ad565b6200054a565b905082815260208101848484011115620002aa57600080fd5b620002b784828562000669565b509392505050565b600081519050620002d08162000744565b92915050565b600082601f830112620002e857600080fd5b8151620002fa84826020860162000215565b91505092915050565b600082601f8301126200031557600080fd5b8151620003278482602086016200027a565b91505092915050565b600080600080600060a086880312156200034957600080fd5b60006200035988828901620002bf565b955050602086015167ffffffffffffffff8111156200037757600080fd5b620003858882890162000303565b945050604086015167ffffffffffffffff811115620003a357600080fd5b620003b18882890162000303565b935050606086015167ffffffffffffffff811115620003cf57600080fd5b620003dd88828901620002d6565b925050608086015167ffffffffffffffff811115620003fb57600080fd5b6200040988828901620002d6565b9150509295509295909350565b6000620004248383620004be565b905092915050565b620004378162000635565b82525050565b60006200044a82620005f0565b62000456818562000613565b9350836020820285016200046a85620005e0565b8060005b85811015620004ac57848403895281516200048a858262000416565b9450620004978362000606565b925060208a019950506001810190506200046e565b50829750879550505050505092915050565b6000620004cb82620005fb565b620004d7818562000624565b9350620004e981856020860162000669565b620004f48162000733565b840191505092915050565b60006060820190506200051660008301866200042c565b81810360208301526200052a81856200043d565b905081810360408301526200054081846200043d565b9050949350505050565b6000604051905081810181811067ffffffffffffffff8211171562000574576200057362000704565b5b8060405250919050565b600067ffffffffffffffff8211156200059c576200059b62000704565b5b602082029050602081019050919050565b600067ffffffffffffffff821115620005cb57620005ca62000704565b5b601f19601f8301169050602081019050919050565b6000819050602082019050919050565b600081519050919050565b600081519050919050565b6000602082019050919050565b600082825260208201905092915050565b600082825260208201905092915050565b6000620006428262000649565b9050919050565b600073ffffffffffffffffffffffffffffffffffffffff82169050919050565b60005b83811015620006895780820151818401526020810190506200066c565b8381111562000699576000848401525b50505050565b60006002820490506001821680620006b857607f821691505b60208210811415620006cf57620006ce620006d5565b5b50919050565b7f4e487b7100000000000000000000000000000000000000000000000000000000600052602260045260246000fd5b7f4e487b7100000000000000000000000000000000000000000000000000000000600052604160045260246000fd5b6000601f19601f8301169050919050565b6200074f8162000635565b81146200075b57600080fd5b50565b6117b9806200076e6000396000f3fe6080604052600436106100555760003560e01c80630649f1761461005a5780630696281a146100855780631d55ce5b146100b05780633221688b146100db5780635d69dfcc14610104578063d36fc37d1461012f575b600080fd5b34801561006657600080fd5b5061006f61014b565b60405161007c9190611368565b60405180910390f35b34801561009157600080fd5b5061009a610289565b6040516100a791906112df565b60405180910390f35b3480156100bc57600080fd5b506100c5610317565b6040516100d29190611301565b60405180910390f35b3480156100e757600080fd5b5061010260048036038101906100fd919061105f565b610341565b005b34801561011057600080fd5b50610119610d7d565b604051610126919061138a565b60405180910390f35b61014960048036038101906101449190611036565b610e7e565b005b610153610f8a565b60066040518060400160405290816000820180546101709061160d565b80601f016020809104026020016040519081016040528092919081815260200182805461019c9061160d565b80156101e95780601f106101be576101008083540402835291602001916101e9565b820191906000526020600020905b8154815290600101906020018083116101cc57829003601f168201915b505050505081526020016001820180546102029061160d565b80601f016020809104026020016040519081016040528092919081815260200182805461022e9061160d565b801561027b5780601f106102505761010080835404028352916020019161027b565b820191906000526020600020905b81548152906001019060200180831161025e57829003601f168201915b505050505081525050905090565b6060600280548060200260200160405190810160405280929190818152602001828054801561030d57602002820191906000526020600020905b8160009054906101000a900473ffffffffffffffffffffffffffffffffffffffff1673ffffffffffffffffffffffffffffffffffffffff16815260200190600101908083116102c3575b5050505050905090565b6000600160009054906101000a900473ffffffffffffffffffffffffffffffffffffffff16905090565b600160009054906101000a900473ffffffffffffffffffffffffffffffffffffffff1673ffffffffffffffffffffffffffffffffffffffff166318ed2ad98484846040518463ffffffff1660e01b81526004016103a09392919061131c565b600060405180830381600087803b1580156103ba57600080fd5b505af11580156103ce573d6000803e3d6000fd5b505050506000600380549050905060008060008060008567ffffffffffffffff811115610424577f4e487b7100000000000000000000000000000000000000000000000000000000600052604160045260246000fd5b6040519080825280602002602001820160405280156104525781602001602082028036833780820191505090505b50905060005b868110156104ba57600082828151811061049b577f4e487b7100000000000000000000000000000000000000000000000000000000600052603260045260246000fd5b60200260200101818152505080806104b29061163f565b915050610458565b5060005b86811015610604578a151560048281548110610503577f4e487b7100000000000000000000000000000000000000000000000000000000600052603260045260246000fd5b90600052602060002090602091828204019190069054906101000a900460ff16151514156105905785806105369061163f565b96505060038181548110610573577f4e487b7100000000000000000000000000000000000000000000000000000000600052603260045260246000fd5b906000526020600020015484610589919061146c565b93506105f1565b848061059b9061163f565b955050600381815481106105d8577f4e487b7100000000000000000000000000000000000000000000000000000000600052603260045260246000fd5b9060005260206000200154836105ee919061146c565b92505b80806105fc9061163f565b9150506104be565b50858514156106ca5760005b868110156106c45760038181548110610652577f4e487b7100000000000000000000000000000000000000000000000000000000600052603260045260246000fd5b9060005260206000200154828281518110610696577f4e487b7100000000000000000000000000000000000000000000000000000000600052603260045260246000fd5b602002602001018181516106aa919061146c565b9150818152505080806106bc9061163f565b915050610610565b50610a8f565b60005b86811015610a8d578a151560048281548110610712577f4e487b7100000000000000000000000000000000000000000000000000000000600052603260045260246000fd5b90600052602060002090602091828204019190069054906101000a900460ff16151514156109d45760038181548110610774577f4e487b7100000000000000000000000000000000000000000000000000000000600052603260045260246000fd5b90600052602060002001548282815181106107b8577f4e487b7100000000000000000000000000000000000000000000000000000000600052603260045260246000fd5b602002602001018181516107cc919061146c565b9150818152505060008460146107e291906114f3565b60096003848154811061081e577f4e487b7100000000000000000000000000000000000000000000000000000000600052603260045260246000fd5b90600052602060002001548661083491906114f3565b61083e91906114f3565b61084891906114c2565b905080838381518110610884577f4e487b7100000000000000000000000000000000000000000000000000000000600052603260045260246000fd5b60200260200101818151610898919061146c565b91508181525050600382815481106108d9577f4e487b7100000000000000000000000000000000000000000000000000000000600052603260045260246000fd5b906000526020600020015460026108f091906114f3565b838381518110610929577f4e487b7100000000000000000000000000000000000000000000000000000000600052603260045260246000fd5b602002602001015111156109ce5760038281548110610971577f4e487b7100000000000000000000000000000000000000000000000000000000600052603260045260246000fd5b9060005260206000200154600261098891906114f3565b8383815181106109c1577f4e487b7100000000000000000000000000000000000000000000000000000000600052603260045260246000fd5b6020026020010181815250505b50610a7a565b600260038281548110610a10577f4e487b7100000000000000000000000000000000000000000000000000000000600052603260045260246000fd5b9060005260206000200154610a2591906114c2565b828281518110610a5e577f4e487b7100000000000000000000000000000000000000000000000000000000600052603260045260246000fd5b60200260200101818151610a72919061146c565b915081815250505b8080610a859061163f565b9150506106cd565b505b60005b86811015610c925760028181548110610ad4577f4e487b7100000000000000000000000000000000000000000000000000000000600052603260045260246000fd5b9060005260206000200160009054906101000a900473ffffffffffffffffffffffffffffffffffffffff1673ffffffffffffffffffffffffffffffffffffffff166108fc838381518110610b51577f4e487b7100000000000000000000000000000000000000000000000000000000600052603260045260246000fd5b60200260200101519081150290604051600060405180830381858888f19350505050158015610b84573d6000803e3d6000fd5b50818181518110610bbe577f4e487b7100000000000000000000000000000000000000000000000000000000600052603260045260246000fd5b60200260200101516005600060028481548110610c04577f4e487b7100000000000000000000000000000000000000000000000000000000600052603260045260246000fd5b9060005260206000200160009054906101000a900473ffffffffffffffffffffffffffffffffffffffff1673ffffffffffffffffffffffffffffffffffffffff1673ffffffffffffffffffffffffffffffffffffffff1681526020019081526020016000206000828254610c78919061146c565b925050819055508080610c8a9061163f565b915050610a92565b5047600560008060009054906101000a900473ffffffffffffffffffffffffffffffffffffffff1673ffffffffffffffffffffffffffffffffffffffff1673ffffffffffffffffffffffffffffffffffffffff1681526020019081526020016000206000828254610d03919061146c565b9250508190555060008054906101000a900473ffffffffffffffffffffffffffffffffffffffff1673ffffffffffffffffffffffffffffffffffffffff166108fc479081150290604051600060405180830381858888f19350505050158015610d70573d6000803e3d6000fd5b5050505050505050505050565b600080600160009054906101000a900473ffffffffffffffffffffffffffffffffffffffff1673ffffffffffffffffffffffffffffffffffffffff1663135dcff3336040518263ffffffff1660e01b8152600401610ddb919061129b565b60206040518083038186803b158015610df357600080fd5b505afa158015610e07573d6000803e3d6000fd5b505050506040513d601f19601f82011682018060405250810190610e2b919061110a565b905080600560003373ffffffffffffffffffffffffffffffffffffffff1673ffffffffffffffffffffffffffffffffffffffff16815260200190815260200160002054610e78919061146c565b91505090565b6002339080600181540180825580915050600190039060005260206000200160009091909190916101000a81548173ffffffffffffffffffffffffffffffffffffffff021916908373ffffffffffffffffffffffffffffffffffffffff160217905550600334908060018154018082558091505060019003906000526020600020016000909190919091505560048190806001815401808255809150506001900390600052602060002090602091828204019190069091909190916101000a81548160ff0219169083151502179055507f505fa9d7c1e6de29c97a8f8c0506e116cd1398a62ae875c534f148877e62c6383334604051610f7f9291906112b6565b60405180910390a150565b604051806040016040528060608152602001606081525090565b6000610fb7610fb2846113d6565b6113a5565b905082815260208101848484011115610fcf57600080fd5b610fda8482856115cb565b509392505050565b600081359050610ff181611755565b92915050565b600082601f83011261100857600080fd5b8135611018848260208601610fa4565b91505092915050565b6000815190506110308161176c565b92915050565b60006020828403121561104857600080fd5b600061105684828501610fe2565b91505092915050565b6000806000806080858703121561107557600080fd5b600061108387828801610fe2565b945050602085013567ffffffffffffffff8111156110a057600080fd5b6110ac87828801610ff7565b935050604085013567ffffffffffffffff8111156110c957600080fd5b6110d587828801610ff7565b925050606085013567ffffffffffffffff8111156110f257600080fd5b6110fe87828801610ff7565b91505092959194509250565b60006020828403121561111c57600080fd5b600061112a84828501611021565b91505092915050565b600061113f838361114b565b60208301905092915050565b6111548161155f565b82525050565b6111638161154d565b82525050565b600061117482611416565b61117e8185611439565b935061118983611406565b8060005b838110156111ba5781516111a18882611133565b97506111ac8361142c565b92505060018101905061118d565b5085935050505092915050565b6111d0816115a7565b82525050565b60006111e182611421565b6111eb818561144a565b93506111fb8185602086016115da565b61120481611744565b840191505092915050565b600061121a82611421565b611224818561145b565b93506112348185602086016115da565b61123d81611744565b840191505092915050565b6000604083016000830151848203600086015261126582826111d6565b9150506020830151848203602086015261127f82826111d6565b9150508091505092915050565b6112958161159d565b82525050565b60006020820190506112b0600083018461115a565b92915050565b60006040820190506112cb600083018561115a565b6112d8602083018461128c565b9392505050565b600060208201905081810360008301526112f98184611169565b905092915050565b600060208201905061131660008301846111c7565b92915050565b60006060820190508181036000830152611336818661120f565b9050818103602083015261134a818561120f565b9050818103604083015261135e818461120f565b9050949350505050565b600060208201905081810360008301526113828184611248565b905092915050565b600060208201905061139f600083018461128c565b92915050565b6000604051905081810181811067ffffffffffffffff821117156113cc576113cb611715565b5b8060405250919050565b600067ffffffffffffffff8211156113f1576113f0611715565b5b601f19601f8301169050602081019050919050565b6000819050602082019050919050565b600081519050919050565b600081519050919050565b6000602082019050919050565b600082825260208201905092915050565b600082825260208201905092915050565b600082825260208201905092915050565b60006114778261159d565b91506114828361159d565b9250827fffffffffffffffffffffffffffffffffffffffffffffffffffffffffffffffff038211156114b7576114b6611688565b5b828201905092915050565b60006114cd8261159d565b91506114d88361159d565b9250826114e8576114e76116b7565b5b828204905092915050565b60006114fe8261159d565b91506115098361159d565b9250817fffffffffffffffffffffffffffffffffffffffffffffffffffffffffffffffff048311821515161561154257611541611688565b5b828202905092915050565b60006115588261157d565b9050919050565b600061156a8261157d565b9050919050565b60008115159050919050565b600073ffffffffffffffffffffffffffffffffffffffff82169050919050565b6000819050919050565b60006115b2826115b9565b9050919050565b60006115c48261157d565b9050919050565b82818337600083830152505050565b60005b838110156115f85780820151818401526020810190506115dd565b83811115611607576000848401525b50505050565b6000600282049050600182168061162557607f821691505b60208210811415611639576116386116e6565b5b50919050565b600061164a8261159d565b91507fffffffffffffffffffffffffffffffffffffffffffffffffffffffffffffffff82141561167d5761167c611688565b5b600182019050919050565b7f4e487b7100000000000000000000000000000000000000000000000000000000600052601160045260246000fd5b7f4e487b7100000000000000000000000000000000000000000000000000000000600052601260045260246000fd5b7f4e487b7100000000000000000000000000000000000000000000000000000000600052602260045260246000fd5b7f4e487b7100000000000000000000000000000000000000000000000000000000600052604160045260246000fd5b6000601f19601f8301169050919050565b61175e81611571565b811461176957600080fd5b50565b6117758161159d565b811461178057600080fd5b5056fea26469706673582212203f68c0ae7781c69ebe04778059b4eed31feac278e42606789d8ddb3e33c395c564736f6c6343000800003360806040523480156200001157600080fd5b506040516200205c3803806200205c833981810160405281019062000037919062000378565b826000806101000a81548173ffffffffffffffffffffffffffffffffffffffff021916908373ffffffffffffffffffffffffffffffffffffffff16021790555060405180604001604052808381526020018281525060056000820151816000019080519060200190620000ac929190620000d8565b506020820151816001019080519060200190620000cb929190620000d8565b50905050505050620005ae565b8280548282559060005260206000209081019282156200012c579160200282015b828111156200012b5782518290805190602001906200011a9291906200013f565b5091602001919060010190620000f9565b5b5090506200013b9190620001d0565b5090565b8280546200014d9062000500565b90600052602060002090601f016020900481019282620001715760008555620001bd565b82601f106200018c57805160ff1916838001178555620001bd565b82800160010185558215620001bd579182015b82811115620001bc5782518255916020019190600101906200019f565b5b509050620001cc9190620001f8565b5090565b5b80821115620001f45760008181620001ea919062000217565b50600101620001d1565b5090565b5b8082111562000213576000816000905550600101620001f9565b5090565b508054620002259062000500565b6000825580601f106200023957506200025a565b601f016020900490600052602060002090810190620002599190620001f8565b5b50565b6000620002746200026e8462000434565b62000400565b9050808382526020820190508260005b85811015620002b857815185016200029d88826200034b565b84526020840193506020830192505060018101905062000284565b5050509392505050565b6000620002d9620002d38462000463565b62000400565b905082815260208101848484011115620002f257600080fd5b620002ff848285620004ca565b509392505050565b600081519050620003188162000594565b92915050565b600082601f8301126200033057600080fd5b8151620003428482602086016200025d565b91505092915050565b600082601f8301126200035d57600080fd5b81516200036f848260208601620002c2565b91505092915050565b6000806000606084860312156200038e57600080fd5b60006200039e8682870162000307565b935050602084015167ffffffffffffffff811115620003bc57600080fd5b620003ca868287016200031e565b925050604084015167ffffffffffffffff811115620003e857600080fd5b620003f6868287016200031e565b9150509250925092565b6000604051905081810181811067ffffffffffffffff821117156200042a576200042962000565565b5b8060405250919050565b600067ffffffffffffffff82111562000452576200045162000565565b5b602082029050602081019050919050565b600067ffffffffffffffff82111562000481576200048062000565565b5b601f19601f8301169050602081019050919050565b6000620004a382620004aa565b9050919050565b600073ffffffffffffffffffffffffffffffffffffffff82169050919050565b60005b83811015620004ea578082015181840152602081019050620004cd565b83811115620004fa576000848401525b50505050565b600060028204905060018216806200051957607f821691505b6020821081141562000530576200052f62000536565b5b50919050565b7f4e487b7100000000000000000000000000000000000000000000000000000000600052602260045260246000fd5b7f4e487b7100000000000000000000000000000000000000000000000000000000600052604160045260246000fd5b6200059f8162000496565b8114620005ab57600080fd5b50565b611a9e80620005be6000396000f3fe60806040526004361061004a5760003560e01c80630696281a1461004f578063135dcff31461007a57806318ed2ad9146100b75780639039a14e146100e0578063ce64d8c81461010b575b600080fd5b34801561005b57600080fd5b50610064610127565b604051610071919061162a565b60405180910390f35b34801561008657600080fd5b506100a1600480360381019061009c9190611279565b6101b5565b6040516100ae919061166e565b60405180910390f35b3480156100c357600080fd5b506100de60048036038101906100d991906112e3565b6101fe565b005b3480156100ec57600080fd5b506100f5610e6f565b604051610102919061164c565b60405180910390f35b610125600480360381019061012091906112a2565b61103b565b005b606060018054806020026020016040519081016040528092919081815260200182805480156101ab57602002820191906000526020600020905b8160009054906101000a900473ffffffffffffffffffffffffffffffffffffffff1673ffffffffffffffffffffffffffffffffffffffff1681526020019060010190808311610161575b5050505050905090565b6000600460008373ffffffffffffffffffffffffffffffffffffffff1673ffffffffffffffffffffffffffffffffffffffff168152602001908152602001600020549050919050565b6000600280549050905060008060008060008567ffffffffffffffff811115610250577f4e487b7100000000000000000000000000000000000000000000000000000000600052604160045260246000fd5b60405190808252806020026020018201604052801561027e5781602001602082028036833780820191505090505b50905060005b868110156102e65760008282815181106102c7577f4e487b7100000000000000000000000000000000000000000000000000000000600052603260045260246000fd5b60200260200101818152505080806102de9061193b565b915050610284565b5060005b86811015610594578960405160200161030391906115d3565b6040516020818303038152906040528051906020012060038281548110610353577f4e487b7100000000000000000000000000000000000000000000000000000000600052603260045260246000fd5b9060005260206000200160405160200161036d91906115ea565b60405160208183030381529060405280519060200120148061041d57508860405160200161039b91906115d3565b60405160208183030381529060405280519060200120600382815481106103eb577f4e487b7100000000000000000000000000000000000000000000000000000000600052603260045260246000fd5b9060005260206000200160405160200161040591906115ea565b60405160208183030381529060405280519060200120145b806104b657508760405160200161043491906115d3565b6040516020818303038152906040528051906020012060038281548110610484577f4e487b7100000000000000000000000000000000000000000000000000000000600052603260045260246000fd5b9060005260206000200160405160200161049e91906115ea565b60405160208183030381529060405280519060200120145b156105205785806104c69061193b565b96505060028181548110610503577f4e487b7100000000000000000000000000000000000000000000000000000000600052603260045260246000fd5b9060005260206000200154846105199190611798565b9350610581565b848061052b9061193b565b95505060028181548110610568577f4e487b7100000000000000000000000000000000000000000000000000000000600052603260045260246000fd5b90600052602060002001548361057e9190611798565b92505b808061058c9061193b565b9150506102ea565b508585141561065a5760005b8681101561065457600281815481106105e2577f4e487b7100000000000000000000000000000000000000000000000000000000600052603260045260246000fd5b9060005260206000200154828281518110610626577f4e487b7100000000000000000000000000000000000000000000000000000000600052603260045260246000fd5b6020026020010181815161063a9190611798565b91508181525050808061064c9061193b565b9150506105a0565b50610b82565b60005b86811015610b80578960405160200161067691906115d3565b60405160208183030381529060405280519060200120600382815481106106c6577f4e487b7100000000000000000000000000000000000000000000000000000000600052603260045260246000fd5b906000526020600020016040516020016106e091906115ea565b60405160208183030381529060405280519060200120148061079057508860405160200161070e91906115d3565b604051602081830303815290604052805190602001206003828154811061075e577f4e487b7100000000000000000000000000000000000000000000000000000000600052603260045260246000fd5b9060005260206000200160405160200161077891906115ea565b60405160208183030381529060405280519060200120145b806108295750876040516020016107a791906115d3565b60405160208183030381529060405280519060200120600382815481106107f7577f4e487b7100000000000000000000000000000000000000000000000000000000600052603260045260246000fd5b9060005260206000200160405160200161081191906115ea565b60405160208183030381529060405280519060200120145b15610ac85760028181548110610868577f4e487b7100000000000000000000000000000000000000000000000000000000600052603260045260246000fd5b90600052602060002001548282815181106108ac577f4e487b7100000000000000000000000000000000000000000000000000000000600052603260045260246000fd5b602002602001018181516108c09190611798565b9150818152505060008460146108d6919061181f565b600960028481548110610912577f4e487b7100000000000000000000000000000000000000000000000000000000600052603260045260246000fd5b906000526020600020015486610928919061181f565b610932919061181f565b61093c91906117ee565b905080838381518110610978577f4e487b7100000000000000000000000000000000000000000000000000000000600052603260045260246000fd5b6020026020010181815161098c9190611798565b91508181525050600282815481106109cd577f4e487b7100000000000000000000000000000000000000000000000000000000600052603260045260246000fd5b906000526020600020015460026109e4919061181f565b838381518110610a1d577f4e487b7100000000000000000000000000000000000000000000000000000000600052603260045260246000fd5b60200260200101511115610ac25760028281548110610a65577f4e487b7100000000000000000000000000000000000000000000000000000000600052603260045260246000fd5b90600052602060002001546002610a7c919061181f565b838381518110610ab5577f4e487b7100000000000000000000000000000000000000000000000000000000600052603260045260246000fd5b6020026020010181815250505b50610b6d565b6002808281548110610b03577f4e487b7100000000000000000000000000000000000000000000000000000000600052603260045260246000fd5b9060005260206000200154610b1891906117ee565b828281518110610b51577f4e487b7100000000000000000000000000000000000000000000000000000000600052603260045260246000fd5b60200260200101818151610b659190611798565b915081815250505b8080610b789061193b565b91505061065d565b505b60005b86811015610d855760018181548110610bc7577f4e487b7100000000000000000000000000000000000000000000000000000000600052603260045260246000fd5b9060005260206000200160009054906101000a900473ffffffffffffffffffffffffffffffffffffffff1673ffffffffffffffffffffffffffffffffffffffff166108fc838381518110610c44577f4e487b7100000000000000000000000000000000000000000000000000000000600052603260045260246000fd5b60200260200101519081150290604051600060405180830381858888f19350505050158015610c77573d6000803e3d6000fd5b50818181518110610cb1577f4e487b7100000000000000000000000000000000000000000000000000000000600052603260045260246000fd5b60200260200101516004600060018481548110610cf7577f4e487b7100000000000000000000000000000000000000000000000000000000600052603260045260246000fd5b9060005260206000200160009054906101000a900473ffffffffffffffffffffffffffffffffffffffff1673ffffffffffffffffffffffffffffffffffffffff1673ffffffffffffffffffffffffffffffffffffffff1681526020019081526020016000206000828254610d6b9190611798565b925050819055508080610d7d9061193b565b915050610b85565b5047600460008060009054906101000a900473ffffffffffffffffffffffffffffffffffffffff1673ffffffffffffffffffffffffffffffffffffffff1673ffffffffffffffffffffffffffffffffffffffff1681526020019081526020016000206000828254610df69190611798565b9250508190555060008054906101000a900473ffffffffffffffffffffffffffffffffffffffff1673ffffffffffffffffffffffffffffffffffffffff166108fc479081150290604051600060405180830381858888f19350505050158015610e63573d6000803e3d6000fd5b50505050505050505050565b610e7761113f565b600560405180604001604052908160008201805480602002602001604051908101604052809291908181526020016000905b82821015610f55578382906000526020600020018054610ec890611909565b80601f0160208091040260200160405190810160405280929190818152602001828054610ef490611909565b8015610f415780601f10610f1657610100808354040283529160200191610f41565b820191906000526020600020905b815481529060010190602001808311610f2457829003601f168201915b505050505081526020019060010190610ea9565b50505050815260200160018201805480602002602001604051908101604052809291908181526020016000905b8282101561102e578382906000526020600020018054610fa190611909565b80601f0160208091040260200160405190810160405280929190818152602001828054610fcd90611909565b801561101a5780601f10610fef5761010080835404028352916020019161101a565b820191906000526020600020905b815481529060010190602001808311610ffd57829003601f168201915b505050505081526020019060010190610f82565b5050505081525050905090565b6001339080600181540180825580915050600190039060005260206000200160009091909190916101000a81548173ffffffffffffffffffffffffffffffffffffffff021916908373ffffffffffffffffffffffffffffffffffffffff1602179055506002349080600181540180825580915050600190039060005260206000200160009091909190915055600381908060018154018082558091505060019003906000526020600020016000909190919091509080519060200190611102929190611159565b507f505fa9d7c1e6de29c97a8f8c0506e116cd1398a62ae875c534f148877e62c6383334604051611134929190611601565b60405180910390a150565b604051806040016040528060608152602001606081525090565b82805461116590611909565b90600052602060002090601f01602090048101928261118757600085556111ce565b82601f106111a057805160ff19168380011785556111ce565b828001600101855582156111ce579182015b828111156111cd5782518255916020019190600101906111b2565b5b5090506111db91906111df565b5090565b5b808211156111f85760008160009055506001016111e0565b5090565b600061120f61120a846116ba565b611689565b90508281526020810184848401111561122757600080fd5b6112328482856118c7565b509392505050565b60008135905061124981611a51565b92915050565b600082601f83011261126057600080fd5b81356112708482602086016111fc565b91505092915050565b60006020828403121561128b57600080fd5b60006112998482850161123a565b91505092915050565b6000602082840312156112b457600080fd5b600082013567ffffffffffffffff8111156112ce57600080fd5b6112da8482850161124f565b91505092915050565b6000806000606084860312156112f857600080fd5b600084013567ffffffffffffffff81111561131257600080fd5b61131e8682870161124f565b935050602084013567ffffffffffffffff81111561133b57600080fd5b6113478682870161124f565b925050604084013567ffffffffffffffff81111561136457600080fd5b6113708682870161124f565b9150509250925092565b600061138683836113a6565b60208301905092915050565b600061139e8383611497565b905092915050565b6113af8161188b565b82525050565b6113be81611879565b82525050565b60006113cf8261171f565b6113d9818561175a565b93506113e4836116ea565b8060005b838110156114155781516113fc888261137a565b975061140783611740565b9250506001810190506113e8565b5085935050505092915050565b600061142d8261172a565b611437818561176b565b935083602082028501611449856116fa565b8060005b8581101561148557848403895281516114668582611392565b94506114718361174d565b925060208a0199505060018101905061144d565b50829750879550505050505092915050565b60006114a282611735565b6114ac818561177c565b93506114bc8185602086016118d6565b6114c581611a40565b840191505092915050565b60006114db82611735565b6114e5818561178d565b93506114f58185602086016118d6565b80840191505092915050565b6000815461150e81611909565b611518818661178d565b94506001821660008114611533576001811461154457611577565b60ff19831686528186019350611577565b61154d8561170a565b60005b8381101561156f57815481890152600182019150602081019050611550565b838801955050505b50505092915050565b6000604083016000830151848203600086015261159d8282611422565b915050602083015184820360208601526115b78282611422565b9150508091505092915050565b6115cd816118bd565b82525050565b60006115df82846114d0565b915081905092915050565b60006115f68284611501565b915081905092915050565b600060408201905061161660008301856113b5565b61162360208301846115c4565b9392505050565b6000602082019050818103600083015261164481846113c4565b905092915050565b600060208201905081810360008301526116668184611580565b905092915050565b600060208201905061168360008301846115c4565b92915050565b6000604051905081810181811067ffffffffffffffff821117156116b0576116af611a11565b5b8060405250919050565b600067ffffffffffffffff8211156116d5576116d4611a11565b5b601f19601f8301169050602081019050919050565b6000819050602082019050919050565b6000819050602082019050919050565b60008190508160005260206000209050919050565b600081519050919050565b600081519050919050565b600081519050919050565b6000602082019050919050565b6000602082019050919050565b600082825260208201905092915050565b600082825260208201905092915050565b600082825260208201905092915050565b600081905092915050565b60006117a3826118bd565b91506117ae836118bd565b9250827fffffffffffffffffffffffffffffffffffffffffffffffffffffffffffffffff038211156117e3576117e2611984565b5b828201905092915050565b60006117f9826118bd565b9150611804836118bd565b925082611814576118136119b3565b5b828204905092915050565b600061182a826118bd565b9150611835836118bd565b9250817fffffffffffffffffffffffffffffffffffffffffffffffffffffffffffffffff048311821515161561186e5761186d611984565b5b828202905092915050565b60006118848261189d565b9050919050565b60006118968261189d565b9050919050565b600073ffffffffffffffffffffffffffffffffffffffff82169050919050565b6000819050919050565b82818337600083830152505050565b60005b838110156118f45780820151818401526020810190506118d9565b83811115611903576000848401525b50505050565b6000600282049050600182168061192157607f821691505b60208210811415611935576119346119e2565b5b50919050565b6000611946826118bd565b91507fffffffffffffffffffffffffffffffffffffffffffffffffffffffffffffffff82141561197957611978611984565b5b600182019050919050565b7f4e487b7100000000000000000000000000000000000000000000000000000000600052601160045260246000fd5b7f4e487b7100000000000000000000000000000000000000000000000000000000600052601260045260246000fd5b7f4e487b7100000000000000000000000000000000000000000000000000000000600052602260045260246000fd5b7f4e487b7100000000000000000000000000000000000000000000000000000000600052604160045260246000fd5b6000601f19601f8301169050919050565b611a5a81611879565b8114611a6557600080fd5b5056fea26469706673582212206d53b9c189d2a849b1534465112337230225739d278b4b1d1d4868f6d7b6a55f64736f6c63430008000033a26469706673582212204edf4f627757cfe24735e6b844e506046a625b91a2428116009070128df0620564736f6c63430008000033",
  "linkReferences": {},
  "deployedLinkReferences": {}
}