{
  "_format": "hh-sol-artifact-1",
  "contractName": "Wrapper",
  "sourceName": "contracts/Wrapper.sol",
  "abi": [
    {
      "inputs": [],
      "stateMutability": "nonpayable",
      "type": "constructor"
    },
    {
      "inputs": [
        {
          "internalType": "contract Match",
          "name": "closeMatch",
          "type": "address"
        },
        {
          "internalType": "bool",
          "name": "result",
          "type": "bool"
        },
        {
          "internalType": "string",
          "name": "first",
          "type": "string"
        },
        {
          "internalType": "string",
          "name": "second",
          "type": "string"
        },
        {
          "internalType": "string",
          "name": "third",
          "type": "string"
        }
      ],
      "name": "closeBet",
      "outputs": [],
      "stateMutability": "nonpayable",
      "type": "function"
    },
    {
      "inputs": [
        {
          "internalType": "string",
          "name": "team1_input",
          "type": "string"
        },
        {
          "internalType": "string",
          "name": "team2_input",
          "type": "string"
        },
        {
          "internalType": "string[]",
          "name": "player_info_team1_input",
          "type": "string[]"
        },
        {
          "internalType": "string[]",
          "name": "player_info_team2_input",
          "type": "string[]"
        }
      ],
      "name": "createbet",
      "outputs": [
        {
          "internalType": "contract Match",
          "name": "",
          "type": "address"
        }
      ],
      "stateMutability": "nonpayable",
      "type": "function"
    },
    {
      "inputs": [],
      "name": "viewlivematches",
      "outputs": [
        {
          "internalType": "contract Match[]",
          "name": "",
          "type": "address[]"
        }
      ],
      "stateMutability": "view",
      "type": "function"
    }
  ],
  "bytecode": "0x608060405234801561001057600080fd5b50336000806101000a81548173ffffffffffffffffffffffffffffffffffffffff021916908373ffffffffffffffffffffffffffffffffffffffff1602179055506146cb806100606000396000f3fe60806040523480156200001157600080fd5b5060043610620000465760003560e01c806367eed0d9146200004b578063ce3b87e51462000081578063e8bdb76914620000a3575b600080fd5b620000696004803603810190620000639190620005e5565b620000c3565b60405162000078919062000995565b60405180910390f35b6200008b62000198565b6040516200009a91906200090f565b60405180910390f35b620000c16004803603810190620000bb919062000518565b62000228565b005b60008060008054906101000a900473ffffffffffffffffffffffffffffffffffffffff1686868686604051620000f990620003d8565b6200010995949392919062000896565b604051809103906000f08015801562000126573d6000803e3d6000fd5b5090506001819080600181540180825580915050600190039060005260206000200160009091909190916101000a81548173ffffffffffffffffffffffffffffffffffffffff021916908373ffffffffffffffffffffffffffffffffffffffff16021790555080915050949350505050565b606060018054806020026020016040519081016040528092919081815260200182805480156200021e57602002820191906000526020600020905b8160009054906101000a900473ffffffffffffffffffffffffffffffffffffffff1673ffffffffffffffffffffffffffffffffffffffff1681526020019060010190808311620001d3575b5050505050905090565b600080600090505b600180549050811015620002f2578673ffffffffffffffffffffffffffffffffffffffff166001828154811062000290577f4e487b7100000000000000000000000000000000000000000000000000000000600052603260045260246000fd5b9060005260206000200160009054906101000a900473ffffffffffffffffffffffffffffffffffffffff1673ffffffffffffffffffffffffffffffffffffffff161415620002dc578091505b8080620002e99062000bc6565b91505062000230565b50600181815481106200032e577f4e487b7100000000000000000000000000000000000000000000000000000000600052603260045260246000fd5b9060005260206000200160006101000a81549073ffffffffffffffffffffffffffffffffffffffff02191690558573ffffffffffffffffffffffffffffffffffffffff16633221688b868686866040518563ffffffff1660e01b81526004016200039c949392919062000933565b600060405180830381600087803b158015620003b757600080fd5b505af1158015620003cc573d6000803e3d6000fd5b50505050505050505050565b6139de8062000cb883390190565b6000620003fd620003f784620009e6565b620009b2565b9050808382526020820190508260005b85811015620004415781358501620004268882620004eb565b8452602084019350602083019250506001810190506200040d565b5050509392505050565b6000620004626200045c8462000a15565b620009b2565b9050828152602081018484840111156200047b57600080fd5b6200048884828562000b81565b509392505050565b600082601f830112620004a257600080fd5b8135620004b4848260208601620003e6565b91505092915050565b600081359050620004ce8162000c83565b92915050565b600081359050620004e58162000c9d565b92915050565b600082601f830112620004fd57600080fd5b81356200050f8482602086016200044b565b91505092915050565b600080600080600060a086880312156200053157600080fd5b60006200054188828901620004d4565b95505060206200055488828901620004bd565b945050604086013567ffffffffffffffff8111156200057257600080fd5b6200058088828901620004eb565b935050606086013567ffffffffffffffff8111156200059e57600080fd5b620005ac88828901620004eb565b925050608086013567ffffffffffffffff811115620005ca57600080fd5b620005d888828901620004eb565b9150509295509295909350565b60008060008060808587031215620005fc57600080fd5b600085013567ffffffffffffffff8111156200061757600080fd5b6200062587828801620004eb565b945050602085013567ffffffffffffffff8111156200064357600080fd5b6200065187828801620004eb565b935050604085013567ffffffffffffffff8111156200066f57600080fd5b6200067d8782880162000490565b925050606085013567ffffffffffffffff8111156200069b57600080fd5b620006a98782880162000490565b91505092959194509250565b6000620006c38383620007f2565b60208301905092915050565b6000620006dd838362000814565b905092915050565b620006f08162000afb565b82525050565b6000620007038262000a68565b6200070f818562000aa3565b93506200071c8362000a48565b8060005b8381101562000753578151620007378882620006b5565b9750620007448362000a89565b92505060018101905062000720565b5085935050505092915050565b60006200076d8262000a73565b62000779818562000ab4565b9350836020820285016200078d8562000a58565b8060005b85811015620007cf5784840389528151620007ad8582620006cf565b9450620007ba8362000a96565b925060208a0199505060018101905062000791565b50829750879550505050505092915050565b620007ec8162000b0f565b82525050565b620007fd8162000b59565b82525050565b6200080e8162000b59565b82525050565b6000620008218262000a7e565b6200082d818562000ac5565b93506200083f81856020860162000b90565b6200084a8162000c72565b840191505092915050565b6000620008628262000a7e565b6200086e818562000ad6565b93506200088081856020860162000b90565b6200088b8162000c72565b840191505092915050565b600060a082019050620008ad6000830188620006e5565b8181036020830152620008c1818762000855565b90508181036040830152620008d7818662000855565b90508181036060830152620008ed818562000760565b9050818103608083015262000903818462000760565b90509695505050505050565b600060208201905081810360008301526200092b8184620006f6565b905092915050565b60006080820190506200094a6000830187620007e1565b81810360208301526200095e818662000855565b9050818103604083015262000974818562000855565b905081810360608301526200098a818462000855565b905095945050505050565b6000602082019050620009ac600083018462000803565b92915050565b6000604051905081810181811067ffffffffffffffff82111715620009dc57620009db62000c43565b5b8060405250919050565b600067ffffffffffffffff82111562000a045762000a0362000c43565b5b602082029050602081019050919050565b600067ffffffffffffffff82111562000a335762000a3262000c43565b5b601f19601f8301169050602081019050919050565b6000819050602082019050919050565b6000819050602082019050919050565b600081519050919050565b600081519050919050565b600081519050919050565b6000602082019050919050565b6000602082019050919050565b600082825260208201905092915050565b600082825260208201905092915050565b600082825260208201905092915050565b600082825260208201905092915050565b600062000af48262000b2f565b9050919050565b600062000b088262000b2f565b9050919050565b60008115159050919050565b600062000b288262000ae7565b9050919050565b600073ffffffffffffffffffffffffffffffffffffffff82169050919050565b6000819050919050565b600062000b668262000b6d565b9050919050565b600062000b7a8262000b2f565b9050919050565b82818337600083830152505050565b60005b8381101562000bb057808201518184015260208101905062000b93565b8381111562000bc0576000848401525b50505050565b600062000bd38262000b4f565b91507fffffffffffffffffffffffffffffffffffffffffffffffffffffffffffffffff82141562000c095762000c0862000c14565b5b600182019050919050565b7f4e487b7100000000000000000000000000000000000000000000000000000000600052601160045260246000fd5b7f4e487b7100000000000000000000000000000000000000000000000000000000600052604160045260246000fd5b6000601f19601f8301169050919050565b62000c8e8162000b0f565b811462000c9a57600080fd5b50565b62000ca88162000b1b565b811462000cb457600080fd5b5056fe60806040523480156200001157600080fd5b50604051620039de380380620039de833981810160405281019062000037919062000330565b846000806101000a81548173ffffffffffffffffffffffffffffffffffffffff021916908373ffffffffffffffffffffffffffffffffffffffff16021790555060405180604001604052808581526020018481525060056000820151816000019080519060200190620000ac92919062000157565b506020820151816001019080519060200190620000cb92919062000157565b50905050848282604051620000e090620001e8565b620000ee93929190620004ff565b604051809103906000f0801580156200010b573d6000803e3d6000fd5b50600160006101000a81548173ffffffffffffffffffffffffffffffffffffffff021916908373ffffffffffffffffffffffffffffffffffffffff16021790555050505050506200075e565b82805462000165906200069f565b90600052602060002090601f016020900481019282620001895760008555620001d5565b82601f10620001a457805160ff1916838001178555620001d5565b82800160010185558215620001d5579182015b82811115620001d4578251825591602001919060010190620001b7565b5b509050620001e49190620001f6565b5090565b611dea8062001bf483390190565b5b8082111562000211576000816000905550600101620001f7565b5090565b60006200022c62000226846200057e565b6200054a565b9050808382526020820190508260005b8581101562000270578151850162000255888262000303565b8452602084019350602083019250506001810190506200023c565b5050509392505050565b6000620002916200028b84620005ad565b6200054a565b905082815260208101848484011115620002aa57600080fd5b620002b784828562000669565b509392505050565b600081519050620002d08162000744565b92915050565b600082601f830112620002e857600080fd5b8151620002fa84826020860162000215565b91505092915050565b600082601f8301126200031557600080fd5b8151620003278482602086016200027a565b91505092915050565b600080600080600060a086880312156200034957600080fd5b60006200035988828901620002bf565b955050602086015167ffffffffffffffff8111156200037757600080fd5b620003858882890162000303565b945050604086015167ffffffffffffffff811115620003a357600080fd5b620003b18882890162000303565b935050606086015167ffffffffffffffff811115620003cf57600080fd5b620003dd88828901620002d6565b925050608086015167ffffffffffffffff811115620003fb57600080fd5b6200040988828901620002d6565b9150509295509295909350565b6000620004248383620004be565b905092915050565b620004378162000635565b82525050565b60006200044a82620005f0565b62000456818562000613565b9350836020820285016200046a85620005e0565b8060005b85811015620004ac57848403895281516200048a858262000416565b9450620004978362000606565b925060208a019950506001810190506200046e565b50829750879550505050505092915050565b6000620004cb82620005fb565b620004d7818562000624565b9350620004e981856020860162000669565b620004f48162000733565b840191505092915050565b60006060820190506200051660008301866200042c565b81810360208301526200052a81856200043d565b905081810360408301526200054081846200043d565b9050949350505050565b6000604051905081810181811067ffffffffffffffff8211171562000574576200057362000704565b5b8060405250919050565b600067ffffffffffffffff8211156200059c576200059b62000704565b5b602082029050602081019050919050565b600067ffffffffffffffff821115620005cb57620005ca62000704565b5b601f19601f8301169050602081019050919050565b6000819050602082019050919050565b600081519050919050565b600081519050919050565b6000602082019050919050565b600082825260208201905092915050565b600082825260208201905092915050565b6000620006428262000649565b9050919050565b600073ffffffffffffffffffffffffffffffffffffffff82169050919050565b60005b83811015620006895780820151818401526020810190506200066c565b8381111562000699576000848401525b50505050565b60006002820490506001821680620006b857607f821691505b60208210811415620006cf57620006ce620006d5565b5b50919050565b7f4e487b7100000000000000000000000000000000000000000000000000000000600052602260045260246000fd5b7f4e487b7100000000000000000000000000000000000000000000000000000000600052604160045260246000fd5b6000601f19601f8301169050919050565b6200074f8162000635565b81146200075b57600080fd5b50565b611486806200076e6000396000f3fe60806040526004361061004a5760003560e01c80630649f1761461004f5780630696281a1461007a5780631d55ce5b146100a55780633221688b146100d0578063d36fc37d146100f9575b600080fd5b34801561005b57600080fd5b50610064610115565b6040516100719190611067565b60405180910390f35b34801561008657600080fd5b5061008f610253565b60405161009c9190610fde565b60405180910390f35b3480156100b157600080fd5b506100ba6102e1565b6040516100c79190611000565b60405180910390f35b3480156100dc57600080fd5b506100f760048036038101906100f29190610da2565b61030b565b005b610113600480360381019061010e9190610d79565b610bd6565b005b61011d610ce2565b600560405180604001604052908160008201805461013a906112f1565b80601f0160208091040260200160405190810160405280929190818152602001828054610166906112f1565b80156101b35780601f10610188576101008083540402835291602001916101b3565b820191906000526020600020905b81548152906001019060200180831161019657829003601f168201915b505050505081526020016001820180546101cc906112f1565b80601f01602080910402602001604051908101604052809291908181526020018280546101f8906112f1565b80156102455780601f1061021a57610100808354040283529160200191610245565b820191906000526020600020905b81548152906001019060200180831161022857829003601f168201915b505050505081525050905090565b606060028054806020026020016040519081016040528092919081815260200182805480156102d757602002820191906000526020600020905b8160009054906101000a900473ffffffffffffffffffffffffffffffffffffffff1673ffffffffffffffffffffffffffffffffffffffff168152602001906001019080831161028d575b5050505050905090565b6000600160009054906101000a900473ffffffffffffffffffffffffffffffffffffffff16905090565b600160009054906101000a900473ffffffffffffffffffffffffffffffffffffffff1673ffffffffffffffffffffffffffffffffffffffff166318ed2ad98484846040518463ffffffff1660e01b815260040161036a9392919061101b565b600060405180830381600087803b15801561038457600080fd5b505af1158015610398573d6000803e3d6000fd5b505050506000600380549050905060008060008060008567ffffffffffffffff8111156103ee577f4e487b7100000000000000000000000000000000000000000000000000000000600052604160045260246000fd5b60405190808252806020026020018201604052801561041c5781602001602082028036833780820191505090505b50905060005b86811015610484576000828281518110610465577f4e487b7100000000000000000000000000000000000000000000000000000000600052603260045260246000fd5b602002602001018181525050808061047c90611323565b915050610422565b5060005b868110156105ce578a1515600482815481106104cd577f4e487b7100000000000000000000000000000000000000000000000000000000600052603260045260246000fd5b90600052602060002090602091828204019190069054906101000a900460ff161515141561055a57858061050090611323565b9650506003818154811061053d577f4e487b7100000000000000000000000000000000000000000000000000000000600052603260045260246000fd5b9060005260206000200154846105539190611150565b93506105bb565b848061056590611323565b955050600381815481106105a2577f4e487b7100000000000000000000000000000000000000000000000000000000600052603260045260246000fd5b9060005260206000200154836105b89190611150565b92505b80806105c690611323565b915050610488565b50858514156106945760005b8681101561068e576003818154811061061c577f4e487b7100000000000000000000000000000000000000000000000000000000600052603260045260246000fd5b9060005260206000200154828281518110610660577f4e487b7100000000000000000000000000000000000000000000000000000000600052603260045260246000fd5b602002602001018181516106749190611150565b91508181525050808061068690611323565b9150506105da565b50610a59565b60005b86811015610a57578a1515600482815481106106dc577f4e487b7100000000000000000000000000000000000000000000000000000000600052603260045260246000fd5b90600052602060002090602091828204019190069054906101000a900460ff161515141561099e576003818154811061073e577f4e487b7100000000000000000000000000000000000000000000000000000000600052603260045260246000fd5b9060005260206000200154828281518110610782577f4e487b7100000000000000000000000000000000000000000000000000000000600052603260045260246000fd5b602002602001018181516107969190611150565b9150818152505060008460146107ac91906111d7565b6009600384815481106107e8577f4e487b7100000000000000000000000000000000000000000000000000000000600052603260045260246000fd5b9060005260206000200154866107fe91906111d7565b61080891906111d7565b61081291906111a6565b90508083838151811061084e577f4e487b7100000000000000000000000000000000000000000000000000000000600052603260045260246000fd5b602002602001018181516108629190611150565b91508181525050600382815481106108a3577f4e487b7100000000000000000000000000000000000000000000000000000000600052603260045260246000fd5b906000526020600020015460026108ba91906111d7565b8383815181106108f3577f4e487b7100000000000000000000000000000000000000000000000000000000600052603260045260246000fd5b60200260200101511115610998576003828154811061093b577f4e487b7100000000000000000000000000000000000000000000000000000000600052603260045260246000fd5b9060005260206000200154600261095291906111d7565b83838151811061098b577f4e487b7100000000000000000000000000000000000000000000000000000000600052603260045260246000fd5b6020026020010181815250505b50610a44565b6002600382815481106109da577f4e487b7100000000000000000000000000000000000000000000000000000000600052603260045260246000fd5b90600052602060002001546109ef91906111a6565b828281518110610a28577f4e487b7100000000000000000000000000000000000000000000000000000000600052603260045260246000fd5b60200260200101818151610a3c9190611150565b915081815250505b8080610a4f90611323565b915050610697565b505b60005b86811015610b625760028181548110610a9e577f4e487b7100000000000000000000000000000000000000000000000000000000600052603260045260246000fd5b9060005260206000200160009054906101000a900473ffffffffffffffffffffffffffffffffffffffff1673ffffffffffffffffffffffffffffffffffffffff166108fc838381518110610b1b577f4e487b7100000000000000000000000000000000000000000000000000000000600052603260045260246000fd5b60200260200101519081150290604051600060405180830381858888f19350505050158015610b4e573d6000803e3d6000fd5b508080610b5a90611323565b915050610a5c565b5060008054906101000a900473ffffffffffffffffffffffffffffffffffffffff1673ffffffffffffffffffffffffffffffffffffffff166108fc479081150290604051600060405180830381858888f19350505050158015610bc9573d6000803e3d6000fd5b5050505050505050505050565b6002339080600181540180825580915050600190039060005260206000200160009091909190916101000a81548173ffffffffffffffffffffffffffffffffffffffff021916908373ffffffffffffffffffffffffffffffffffffffff160217905550600334908060018154018082558091505060019003906000526020600020016000909190919091505560048190806001815401808255809150506001900390600052602060002090602091828204019190069091909190916101000a81548160ff0219169083151502179055507f505fa9d7c1e6de29c97a8f8c0506e116cd1398a62ae875c534f148877e62c6383334604051610cd7929190610fb5565b60405180910390a150565b604051806040016040528060608152602001606081525090565b6000610d0f610d0a846110ba565b611089565b905082815260208101848484011115610d2757600080fd5b610d328482856112af565b509392505050565b600081359050610d4981611439565b92915050565b600082601f830112610d6057600080fd5b8135610d70848260208601610cfc565b91505092915050565b600060208284031215610d8b57600080fd5b6000610d9984828501610d3a565b91505092915050565b60008060008060808587031215610db857600080fd5b6000610dc687828801610d3a565b945050602085013567ffffffffffffffff811115610de357600080fd5b610def87828801610d4f565b935050604085013567ffffffffffffffff811115610e0c57600080fd5b610e1887828801610d4f565b925050606085013567ffffffffffffffff811115610e3557600080fd5b610e4187828801610d4f565b91505092959194509250565b6000610e598383610e65565b60208301905092915050565b610e6e81611243565b82525050565b610e7d81611231565b82525050565b6000610e8e826110fa565b610e98818561111d565b9350610ea3836110ea565b8060005b83811015610ed4578151610ebb8882610e4d565b9750610ec683611110565b925050600181019050610ea7565b5085935050505092915050565b610eea8161128b565b82525050565b6000610efb82611105565b610f05818561112e565b9350610f158185602086016112be565b610f1e81611428565b840191505092915050565b6000610f3482611105565b610f3e818561113f565b9350610f4e8185602086016112be565b610f5781611428565b840191505092915050565b60006040830160008301518482036000860152610f7f8282610ef0565b91505060208301518482036020860152610f998282610ef0565b9150508091505092915050565b610faf81611281565b82525050565b6000604082019050610fca6000830185610e74565b610fd76020830184610fa6565b9392505050565b60006020820190508181036000830152610ff88184610e83565b905092915050565b60006020820190506110156000830184610ee1565b92915050565b600060608201905081810360008301526110358186610f29565b905081810360208301526110498185610f29565b9050818103604083015261105d8184610f29565b9050949350505050565b600060208201905081810360008301526110818184610f62565b905092915050565b6000604051905081810181811067ffffffffffffffff821117156110b0576110af6113f9565b5b8060405250919050565b600067ffffffffffffffff8211156110d5576110d46113f9565b5b601f19601f8301169050602081019050919050565b6000819050602082019050919050565b600081519050919050565b600081519050919050565b6000602082019050919050565b600082825260208201905092915050565b600082825260208201905092915050565b600082825260208201905092915050565b600061115b82611281565b915061116683611281565b9250827fffffffffffffffffffffffffffffffffffffffffffffffffffffffffffffffff0382111561119b5761119a61136c565b5b828201905092915050565b60006111b182611281565b91506111bc83611281565b9250826111cc576111cb61139b565b5b828204905092915050565b60006111e282611281565b91506111ed83611281565b9250817fffffffffffffffffffffffffffffffffffffffffffffffffffffffffffffffff04831182151516156112265761122561136c565b5b828202905092915050565b600061123c82611261565b9050919050565b600061124e82611261565b9050919050565b60008115159050919050565b600073ffffffffffffffffffffffffffffffffffffffff82169050919050565b6000819050919050565b60006112968261129d565b9050919050565b60006112a882611261565b9050919050565b82818337600083830152505050565b60005b838110156112dc5780820151818401526020810190506112c1565b838111156112eb576000848401525b50505050565b6000600282049050600182168061130957607f821691505b6020821081141561131d5761131c6113ca565b5b50919050565b600061132e82611281565b91507fffffffffffffffffffffffffffffffffffffffffffffffffffffffffffffffff8214156113615761136061136c565b5b600182019050919050565b7f4e487b7100000000000000000000000000000000000000000000000000000000600052601160045260246000fd5b7f4e487b7100000000000000000000000000000000000000000000000000000000600052601260045260246000fd5b7f4e487b7100000000000000000000000000000000000000000000000000000000600052602260045260246000fd5b7f4e487b7100000000000000000000000000000000000000000000000000000000600052604160045260246000fd5b6000601f19601f8301169050919050565b61144281611255565b811461144d57600080fd5b5056fea26469706673582212208ec59b27a2cf6e30bfbb5a891a91636a5cc99e5ca73a0dac86f5cd7235889db964736f6c6343000800003360806040523480156200001157600080fd5b5060405162001dea38038062001dea833981810160405281019062000037919062000378565b826000806101000a81548173ffffffffffffffffffffffffffffffffffffffff021916908373ffffffffffffffffffffffffffffffffffffffff16021790555060405180604001604052808381526020018281525060046000820151816000019080519060200190620000ac929190620000d8565b506020820151816001019080519060200190620000cb929190620000d8565b50905050505050620005ae565b8280548282559060005260206000209081019282156200012c579160200282015b828111156200012b5782518290805190602001906200011a9291906200013f565b5091602001919060010190620000f9565b5b5090506200013b9190620001d0565b5090565b8280546200014d9062000500565b90600052602060002090601f016020900481019282620001715760008555620001bd565b82601f106200018c57805160ff1916838001178555620001bd565b82800160010185558215620001bd579182015b82811115620001bc5782518255916020019190600101906200019f565b5b509050620001cc9190620001f8565b5090565b5b80821115620001f45760008181620001ea919062000217565b50600101620001d1565b5090565b5b8082111562000213576000816000905550600101620001f9565b5090565b508054620002259062000500565b6000825580601f106200023957506200025a565b601f016020900490600052602060002090810190620002599190620001f8565b5b50565b6000620002746200026e8462000434565b62000400565b9050808382526020820190508260005b85811015620002b857815185016200029d88826200034b565b84526020840193506020830192505060018101905062000284565b5050509392505050565b6000620002d9620002d38462000463565b62000400565b905082815260208101848484011115620002f257600080fd5b620002ff848285620004ca565b509392505050565b600081519050620003188162000594565b92915050565b600082601f8301126200033057600080fd5b8151620003428482602086016200025d565b91505092915050565b600082601f8301126200035d57600080fd5b81516200036f848260208601620002c2565b91505092915050565b6000806000606084860312156200038e57600080fd5b60006200039e8682870162000307565b935050602084015167ffffffffffffffff811115620003bc57600080fd5b620003ca868287016200031e565b925050604084015167ffffffffffffffff811115620003e857600080fd5b620003f6868287016200031e565b9150509250925092565b6000604051905081810181811067ffffffffffffffff821117156200042a576200042962000565565b5b8060405250919050565b600067ffffffffffffffff82111562000452576200045162000565565b5b602082029050602081019050919050565b600067ffffffffffffffff82111562000481576200048062000565565b5b601f19601f8301169050602081019050919050565b6000620004a382620004aa565b9050919050565b600073ffffffffffffffffffffffffffffffffffffffff82169050919050565b60005b83811015620004ea578082015181840152602081019050620004cd565b83811115620004fa576000848401525b50505050565b600060028204905060018216806200051957607f821691505b6020821081141562000530576200052f62000536565b5b50919050565b7f4e487b7100000000000000000000000000000000000000000000000000000000600052602260045260246000fd5b7f4e487b7100000000000000000000000000000000000000000000000000000000600052604160045260246000fd5b6200059f8162000496565b8114620005ab57600080fd5b50565b61182c80620005be6000396000f3fe60806040526004361061003f5760003560e01c80630696281a1461004457806318ed2ad91461006f5780639039a14e14610098578063ce64d8c8146100c3575b600080fd5b34801561005057600080fd5b506100596100df565b60405161006691906113ea565b60405180910390f35b34801561007b57600080fd5b50610096600480360381019061009191906110a3565b61016d565b005b3480156100a457600080fd5b506100ad610c6d565b6040516100ba919061140c565b60405180910390f35b6100dd60048036038101906100d89190611062565b610e39565b005b6060600180548060200260200160405190810160405280929190818152602001828054801561016357602002820191906000526020600020905b8160009054906101000a900473ffffffffffffffffffffffffffffffffffffffff1673ffffffffffffffffffffffffffffffffffffffff1681526020019060010190808311610119575b5050505050905090565b6000600280549050905060008060008060008567ffffffffffffffff8111156101bf577f4e487b7100000000000000000000000000000000000000000000000000000000600052604160045260246000fd5b6040519080825280602002602001820160405280156101ed5781602001602082028036833780820191505090505b50905060005b86811015610255576000828281518110610236577f4e487b7100000000000000000000000000000000000000000000000000000000600052603260045260246000fd5b602002602001018181525050808061024d906116e0565b9150506101f3565b5060005b8681101561050357896040516020016102729190611393565b60405160208183030381529060405280519060200120600382815481106102c2577f4e487b7100000000000000000000000000000000000000000000000000000000600052603260045260246000fd5b906000526020600020016040516020016102dc91906113aa565b60405160208183030381529060405280519060200120148061038c57508860405160200161030a9190611393565b604051602081830303815290604052805190602001206003828154811061035a577f4e487b7100000000000000000000000000000000000000000000000000000000600052603260045260246000fd5b9060005260206000200160405160200161037491906113aa565b60405160208183030381529060405280519060200120145b806104255750876040516020016103a39190611393565b60405160208183030381529060405280519060200120600382815481106103f3577f4e487b7100000000000000000000000000000000000000000000000000000000600052603260045260246000fd5b9060005260206000200160405160200161040d91906113aa565b60405160208183030381529060405280519060200120145b1561048f578580610435906116e0565b96505060028181548110610472577f4e487b7100000000000000000000000000000000000000000000000000000000600052603260045260246000fd5b906000526020600020015484610488919061153d565b93506104f0565b848061049a906116e0565b955050600281815481106104d7577f4e487b7100000000000000000000000000000000000000000000000000000000600052603260045260246000fd5b9060005260206000200154836104ed919061153d565b92505b80806104fb906116e0565b915050610259565b50858514156105c95760005b868110156105c35760028181548110610551577f4e487b7100000000000000000000000000000000000000000000000000000000600052603260045260246000fd5b9060005260206000200154828281518110610595577f4e487b7100000000000000000000000000000000000000000000000000000000600052603260045260246000fd5b602002602001018181516105a9919061153d565b9150818152505080806105bb906116e0565b91505061050f565b50610af1565b60005b86811015610aef57896040516020016105e59190611393565b6040516020818303038152906040528051906020012060038281548110610635577f4e487b7100000000000000000000000000000000000000000000000000000000600052603260045260246000fd5b9060005260206000200160405160200161064f91906113aa565b6040516020818303038152906040528051906020012014806106ff57508860405160200161067d9190611393565b60405160208183030381529060405280519060200120600382815481106106cd577f4e487b7100000000000000000000000000000000000000000000000000000000600052603260045260246000fd5b906000526020600020016040516020016106e791906113aa565b60405160208183030381529060405280519060200120145b806107985750876040516020016107169190611393565b6040516020818303038152906040528051906020012060038281548110610766577f4e487b7100000000000000000000000000000000000000000000000000000000600052603260045260246000fd5b9060005260206000200160405160200161078091906113aa565b60405160208183030381529060405280519060200120145b15610a3757600281815481106107d7577f4e487b7100000000000000000000000000000000000000000000000000000000600052603260045260246000fd5b906000526020600020015482828151811061081b577f4e487b7100000000000000000000000000000000000000000000000000000000600052603260045260246000fd5b6020026020010181815161082f919061153d565b91508181525050600084601461084591906115c4565b600960028481548110610881577f4e487b7100000000000000000000000000000000000000000000000000000000600052603260045260246000fd5b90600052602060002001548661089791906115c4565b6108a191906115c4565b6108ab9190611593565b9050808383815181106108e7577f4e487b7100000000000000000000000000000000000000000000000000000000600052603260045260246000fd5b602002602001018181516108fb919061153d565b915081815250506002828154811061093c577f4e487b7100000000000000000000000000000000000000000000000000000000600052603260045260246000fd5b9060005260206000200154600261095391906115c4565b83838151811061098c577f4e487b7100000000000000000000000000000000000000000000000000000000600052603260045260246000fd5b60200260200101511115610a3157600282815481106109d4577f4e487b7100000000000000000000000000000000000000000000000000000000600052603260045260246000fd5b906000526020600020015460026109eb91906115c4565b838381518110610a24577f4e487b7100000000000000000000000000000000000000000000000000000000600052603260045260246000fd5b6020026020010181815250505b50610adc565b6002808281548110610a72577f4e487b7100000000000000000000000000000000000000000000000000000000600052603260045260246000fd5b9060005260206000200154610a879190611593565b828281518110610ac0577f4e487b7100000000000000000000000000000000000000000000000000000000600052603260045260246000fd5b60200260200101818151610ad4919061153d565b915081815250505b8080610ae7906116e0565b9150506105cc565b505b60005b86811015610bfa5760018181548110610b36577f4e487b7100000000000000000000000000000000000000000000000000000000600052603260045260246000fd5b9060005260206000200160009054906101000a900473ffffffffffffffffffffffffffffffffffffffff1673ffffffffffffffffffffffffffffffffffffffff166108fc838381518110610bb3577f4e487b7100000000000000000000000000000000000000000000000000000000600052603260045260246000fd5b60200260200101519081150290604051600060405180830381858888f19350505050158015610be6573d6000803e3d6000fd5b508080610bf2906116e0565b915050610af4565b5060008054906101000a900473ffffffffffffffffffffffffffffffffffffffff1673ffffffffffffffffffffffffffffffffffffffff166108fc479081150290604051600060405180830381858888f19350505050158015610c61573d6000803e3d6000fd5b50505050505050505050565b610c75610f3d565b600460405180604001604052908160008201805480602002602001604051908101604052809291908181526020016000905b82821015610d53578382906000526020600020018054610cc6906116ae565b80601f0160208091040260200160405190810160405280929190818152602001828054610cf2906116ae565b8015610d3f5780601f10610d1457610100808354040283529160200191610d3f565b820191906000526020600020905b815481529060010190602001808311610d2257829003601f168201915b505050505081526020019060010190610ca7565b50505050815260200160018201805480602002602001604051908101604052809291908181526020016000905b82821015610e2c578382906000526020600020018054610d9f906116ae565b80601f0160208091040260200160405190810160405280929190818152602001828054610dcb906116ae565b8015610e185780601f10610ded57610100808354040283529160200191610e18565b820191906000526020600020905b815481529060010190602001808311610dfb57829003601f168201915b505050505081526020019060010190610d80565b5050505081525050905090565b6001339080600181540180825580915050600190039060005260206000200160009091909190916101000a81548173ffffffffffffffffffffffffffffffffffffffff021916908373ffffffffffffffffffffffffffffffffffffffff1602179055506002349080600181540180825580915050600190039060005260206000200160009091909190915055600381908060018154018082558091505060019003906000526020600020016000909190919091509080519060200190610f00929190610f57565b507f505fa9d7c1e6de29c97a8f8c0506e116cd1398a62ae875c534f148877e62c6383334604051610f329291906113c1565b60405180910390a150565b604051806040016040528060608152602001606081525090565b828054610f63906116ae565b90600052602060002090601f016020900481019282610f855760008555610fcc565b82601f10610f9e57805160ff1916838001178555610fcc565b82800160010185558215610fcc579182015b82811115610fcb578251825591602001919060010190610fb0565b5b509050610fd99190610fdd565b5090565b5b80821115610ff6576000816000905550600101610fde565b5090565b600061100d6110088461145f565b61142e565b90508281526020810184848401111561102557600080fd5b61103084828561166c565b509392505050565b600082601f83011261104957600080fd5b8135611059848260208601610ffa565b91505092915050565b60006020828403121561107457600080fd5b600082013567ffffffffffffffff81111561108e57600080fd5b61109a84828501611038565b91505092915050565b6000806000606084860312156110b857600080fd5b600084013567ffffffffffffffff8111156110d257600080fd5b6110de86828701611038565b935050602084013567ffffffffffffffff8111156110fb57600080fd5b61110786828701611038565b925050604084013567ffffffffffffffff81111561112457600080fd5b61113086828701611038565b9150509250925092565b60006111468383611166565b60208301905092915050565b600061115e8383611257565b905092915050565b61116f81611630565b82525050565b61117e8161161e565b82525050565b600061118f826114c4565b61119981856114ff565b93506111a48361148f565b8060005b838110156111d55781516111bc888261113a565b97506111c7836114e5565b9250506001810190506111a8565b5085935050505092915050565b60006111ed826114cf565b6111f78185611510565b9350836020820285016112098561149f565b8060005b8581101561124557848403895281516112268582611152565b9450611231836114f2565b925060208a0199505060018101905061120d565b50829750879550505050505092915050565b6000611262826114da565b61126c8185611521565b935061127c81856020860161167b565b611285816117e5565b840191505092915050565b600061129b826114da565b6112a58185611532565b93506112b581856020860161167b565b80840191505092915050565b600081546112ce816116ae565b6112d88186611532565b945060018216600081146112f3576001811461130457611337565b60ff19831686528186019350611337565b61130d856114af565b60005b8381101561132f57815481890152600182019150602081019050611310565b838801955050505b50505092915050565b6000604083016000830151848203600086015261135d82826111e2565b9150506020830151848203602086015261137782826111e2565b9150508091505092915050565b61138d81611662565b82525050565b600061139f8284611290565b915081905092915050565b60006113b682846112c1565b915081905092915050565b60006040820190506113d66000830185611175565b6113e36020830184611384565b9392505050565b600060208201905081810360008301526114048184611184565b905092915050565b600060208201905081810360008301526114268184611340565b905092915050565b6000604051905081810181811067ffffffffffffffff82111715611455576114546117b6565b5b8060405250919050565b600067ffffffffffffffff82111561147a576114796117b6565b5b601f19601f8301169050602081019050919050565b6000819050602082019050919050565b6000819050602082019050919050565b60008190508160005260206000209050919050565b600081519050919050565b600081519050919050565b600081519050919050565b6000602082019050919050565b6000602082019050919050565b600082825260208201905092915050565b600082825260208201905092915050565b600082825260208201905092915050565b600081905092915050565b600061154882611662565b915061155383611662565b9250827fffffffffffffffffffffffffffffffffffffffffffffffffffffffffffffffff0382111561158857611587611729565b5b828201905092915050565b600061159e82611662565b91506115a983611662565b9250826115b9576115b8611758565b5b828204905092915050565b60006115cf82611662565b91506115da83611662565b9250817fffffffffffffffffffffffffffffffffffffffffffffffffffffffffffffffff048311821515161561161357611612611729565b5b828202905092915050565b600061162982611642565b9050919050565b600061163b82611642565b9050919050565b600073ffffffffffffffffffffffffffffffffffffffff82169050919050565b6000819050919050565b82818337600083830152505050565b60005b8381101561169957808201518184015260208101905061167e565b838111156116a8576000848401525b50505050565b600060028204905060018216806116c657607f821691505b602082108114156116da576116d9611787565b5b50919050565b60006116eb82611662565b91507fffffffffffffffffffffffffffffffffffffffffffffffffffffffffffffffff82141561171e5761171d611729565b5b600182019050919050565b7f4e487b7100000000000000000000000000000000000000000000000000000000600052601160045260246000fd5b7f4e487b7100000000000000000000000000000000000000000000000000000000600052601260045260246000fd5b7f4e487b7100000000000000000000000000000000000000000000000000000000600052602260045260246000fd5b7f4e487b7100000000000000000000000000000000000000000000000000000000600052604160045260246000fd5b6000601f19601f830116905091905056fea2646970667358221220c5d23256a838c10e97f00b605084c21d3dcade56b99fe559f2d79f6cabc60b2664736f6c63430008000033a26469706673582212206a3a6c7f2cf9edcb82652520aca027853fb11bffd26c98bf80a633a1524f4c9964736f6c63430008000033",
  "linkReferences": {},
  "deployedLinkReferences": {}
}