{
  "_format": "hh-sol-artifact-1",
  "contractName": "Match",
  "sourceName": "contracts/Wrapper.sol",
  "abi": [
    {
      "inputs": [
        {
          "internalType": "address payable",
          "name": "ownercontract",
          "type": "address"
        },
        {
          "internalType": "string",
          "name": "team1_input",
          "type": "string"
        },
        {
          "internalType": "string",
          "name": "team2_input",
          "type": "string"
        },
        {
          "internalType": "string",
          "name": "time_input",
          "type": "string"
        },
        {
          "internalType": "string",
          "name": "date_input",
          "type": "string"
        },
        {
          "internalType": "string",
          "name": "venue_input",
          "type": "string"
        },
        {
          "internalType": "string[]",
          "name": "player_info_team1_input",
          "type": "string[]"
        },
        {
          "internalType": "string[]",
          "name": "player_info_team2_input",
          "type": "string[]"
        }
      ],
      "stateMutability": "nonpayable",
      "type": "constructor"
    },
    {
      "anonymous": false,
      "inputs": [
        {
          "indexed": false,
          "internalType": "address",
          "name": "sender",
          "type": "address"
        },
        {
          "indexed": false,
          "internalType": "uint256",
          "name": "amount",
          "type": "uint256"
        }
      ],
      "name": "betplaced",
      "type": "event"
    },
    {
      "inputs": [],
      "name": "amountrefunded",
      "outputs": [
        {
          "internalType": "uint256",
          "name": "",
          "type": "uint256"
        }
      ],
      "stateMutability": "view",
      "type": "function"
    },
    {
      "inputs": [],
      "name": "getplayercontract",
      "outputs": [
        {
          "internalType": "contract Player",
          "name": "",
          "type": "address"
        }
      ],
      "stateMutability": "view",
      "type": "function"
    },
    {
      "inputs": [
        {
          "internalType": "bool",
          "name": "teambetplaced",
          "type": "bool"
        }
      ],
      "name": "placebet",
      "outputs": [],
      "stateMutability": "payable",
      "type": "function"
    },
    {
      "inputs": [
        {
          "internalType": "bool",
          "name": "result",
          "type": "bool"
        },
        {
          "internalType": "string",
          "name": "first",
          "type": "string"
        },
        {
          "internalType": "string",
          "name": "second",
          "type": "string"
        },
        {
          "internalType": "string",
          "name": "third",
          "type": "string"
        }
      ],
      "name": "poolDistribution",
      "outputs": [],
      "stateMutability": "nonpayable",
      "type": "function"
    },
    {
      "inputs": [],
      "name": "viewbets",
      "outputs": [
        {
          "internalType": "address payable[]",
          "name": "",
          "type": "address[]"
        }
      ],
      "stateMutability": "view",
      "type": "function"
    },
    {
      "inputs": [],
      "name": "viewmatch",
      "outputs": [
        {
          "components": [
            {
              "internalType": "string",
              "name": "team1",
              "type": "string"
            },
            {
              "internalType": "string",
              "name": "team2",
              "type": "string"
            },
            {
              "internalType": "string",
              "name": "time",
              "type": "string"
            },
            {
              "internalType": "string",
              "name": "date",
              "type": "string"
            },
            {
              "internalType": "string",
              "name": "venue",
              "type": "string"
            }
          ],
          "internalType": "struct Match.MatchInfo",
          "name": "",
          "type": "tuple"
        }
      ],
      "stateMutability": "view",
      "type": "function"
    }
  ],
  "bytecode": "0x60806040523480156200001157600080fd5b506040516200429a3803806200429a8339818101604052810190620000379190620003a2565b876000806101000a81548173ffffffffffffffffffffffffffffffffffffffff021916908373ffffffffffffffffffffffffffffffffffffffff1602179055506040518060a001604052808881526020018781526020018681526020018581526020018481525060066000820151816000019080519060200190620000be929190620001c9565b506020820151816001019080519060200190620000dd929190620001c9565b506040820151816002019080519060200190620000fc929190620001c9565b5060608201518160030190805190602001906200011b929190620001c9565b5060808201518160040190805190602001906200013a929190620001c9565b509050508782826040516200014f906200025a565b6200015d93929190620005fd565b604051809103906000f0801580156200017a573d6000803e3d6000fd5b50600160006101000a81548173ffffffffffffffffffffffffffffffffffffffff021916908373ffffffffffffffffffffffffffffffffffffffff16021790555050505050505050506200085c565b828054620001d7906200079d565b90600052602060002090601f016020900481019282620001fb576000855562000247565b82601f106200021657805160ff191683800117855562000247565b8280016001018555821562000247579182015b828111156200024657825182559160200191906001019062000229565b5b50905062000256919062000268565b5090565b61205c806200223e83390190565b5b808211156200028357600081600090555060010162000269565b5090565b60006200029e62000298846200067c565b62000648565b9050808382526020820190508260005b85811015620002e25781518501620002c7888262000375565b845260208401935060208301925050600181019050620002ae565b5050509392505050565b600062000303620002fd84620006ab565b62000648565b9050828152602081018484840111156200031c57600080fd5b6200032984828562000767565b509392505050565b600081519050620003428162000842565b92915050565b600082601f8301126200035a57600080fd5b81516200036c84826020860162000287565b91505092915050565b600082601f8301126200038757600080fd5b815162000399848260208601620002ec565b91505092915050565b600080600080600080600080610100898b031215620003c057600080fd5b6000620003d08b828c0162000331565b985050602089015167ffffffffffffffff811115620003ee57600080fd5b620003fc8b828c0162000375565b975050604089015167ffffffffffffffff8111156200041a57600080fd5b620004288b828c0162000375565b965050606089015167ffffffffffffffff8111156200044657600080fd5b620004548b828c0162000375565b955050608089015167ffffffffffffffff8111156200047257600080fd5b620004808b828c0162000375565b94505060a089015167ffffffffffffffff8111156200049e57600080fd5b620004ac8b828c0162000375565b93505060c089015167ffffffffffffffff811115620004ca57600080fd5b620004d88b828c0162000348565b92505060e089015167ffffffffffffffff811115620004f657600080fd5b620005048b828c0162000348565b9150509295985092959890939650565b6000620005228383620005bc565b905092915050565b620005358162000733565b82525050565b60006200054882620006ee565b62000554818562000711565b9350836020820285016200056885620006de565b8060005b85811015620005aa578484038952815162000588858262000514565b9450620005958362000704565b925060208a019950506001810190506200056c565b50829750879550505050505092915050565b6000620005c982620006f9565b620005d5818562000722565b9350620005e781856020860162000767565b620005f28162000831565b840191505092915050565b60006060820190506200061460008301866200052a565b81810360208301526200062881856200053b565b905081810360408301526200063e81846200053b565b9050949350505050565b6000604051905081810181811067ffffffffffffffff8211171562000672576200067162000802565b5b8060405250919050565b600067ffffffffffffffff8211156200069a576200069962000802565b5b602082029050602081019050919050565b600067ffffffffffffffff821115620006c957620006c862000802565b5b601f19601f8301169050602081019050919050565b6000819050602082019050919050565b600081519050919050565b600081519050919050565b6000602082019050919050565b600082825260208201905092915050565b600082825260208201905092915050565b6000620007408262000747565b9050919050565b600073ffffffffffffffffffffffffffffffffffffffff82169050919050565b60005b83811015620007875780820151818401526020810190506200076a565b8381111562000797576000848401525b50505050565b60006002820490506001821680620007b657607f821691505b60208210811415620007cd57620007cc620007d3565b5b50919050565b7f4e487b7100000000000000000000000000000000000000000000000000000000600052602260045260246000fd5b7f4e487b7100000000000000000000000000000000000000000000000000000000600052604160045260246000fd5b6000601f19601f8301169050919050565b6200084d8162000733565b81146200085957600080fd5b50565b6119d2806200086c6000396000f3fe6080604052600436106100555760003560e01c80630649f1761461005a5780630696281a146100855780631d55ce5b146100b05780633221688b146100db5780635d69dfcc14610104578063d36fc37d1461012f575b600080fd5b34801561006657600080fd5b5061006f61014b565b60405161007c9190611581565b60405180910390f35b34801561009157600080fd5b5061009a61043f565b6040516100a791906114f8565b60405180910390f35b3480156100bc57600080fd5b506100c56104cd565b6040516100d2919061151a565b60405180910390f35b3480156100e757600080fd5b5061010260048036038101906100fd919061122a565b6104f7565b005b34801561011057600080fd5b50610119610f33565b60405161012691906115a3565b60405180910390f35b61014960048036038101906101449190611201565b611034565b005b610153611140565b60066040518060a001604052908160008201805461017090611826565b80601f016020809104026020016040519081016040528092919081815260200182805461019c90611826565b80156101e95780601f106101be576101008083540402835291602001916101e9565b820191906000526020600020905b8154815290600101906020018083116101cc57829003601f168201915b5050505050815260200160018201805461020290611826565b80601f016020809104026020016040519081016040528092919081815260200182805461022e90611826565b801561027b5780601f106102505761010080835404028352916020019161027b565b820191906000526020600020905b81548152906001019060200180831161025e57829003601f168201915b5050505050815260200160028201805461029490611826565b80601f01602080910402602001604051908101604052809291908181526020018280546102c090611826565b801561030d5780601f106102e25761010080835404028352916020019161030d565b820191906000526020600020905b8154815290600101906020018083116102f057829003601f168201915b5050505050815260200160038201805461032690611826565b80601f016020809104026020016040519081016040528092919081815260200182805461035290611826565b801561039f5780601f106103745761010080835404028352916020019161039f565b820191906000526020600020905b81548152906001019060200180831161038257829003601f168201915b505050505081526020016004820180546103b890611826565b80601f01602080910402602001604051908101604052809291908181526020018280546103e490611826565b80156104315780601f1061040657610100808354040283529160200191610431565b820191906000526020600020905b81548152906001019060200180831161041457829003601f168201915b505050505081525050905090565b606060028054806020026020016040519081016040528092919081815260200182805480156104c357602002820191906000526020600020905b8160009054906101000a900473ffffffffffffffffffffffffffffffffffffffff1673ffffffffffffffffffffffffffffffffffffffff1681526020019060010190808311610479575b5050505050905090565b6000600160009054906101000a900473ffffffffffffffffffffffffffffffffffffffff16905090565b600160009054906101000a900473ffffffffffffffffffffffffffffffffffffffff1673ffffffffffffffffffffffffffffffffffffffff166318ed2ad98484846040518463ffffffff1660e01b815260040161055693929190611535565b600060405180830381600087803b15801561057057600080fd5b505af1158015610584573d6000803e3d6000fd5b505050506000600380549050905060008060008060008567ffffffffffffffff8111156105da577f4e487b7100000000000000000000000000000000000000000000000000000000600052604160045260246000fd5b6040519080825280602002602001820160405280156106085781602001602082028036833780820191505090505b50905060005b86811015610670576000828281518110610651577f4e487b7100000000000000000000000000000000000000000000000000000000600052603260045260246000fd5b602002602001018181525050808061066890611858565b91505061060e565b5060005b868110156107ba578a1515600482815481106106b9577f4e487b7100000000000000000000000000000000000000000000000000000000600052603260045260246000fd5b90600052602060002090602091828204019190069054906101000a900460ff16151514156107465785806106ec90611858565b96505060038181548110610729577f4e487b7100000000000000000000000000000000000000000000000000000000600052603260045260246000fd5b90600052602060002001548461073f9190611685565b93506107a7565b848061075190611858565b9550506003818154811061078e577f4e487b7100000000000000000000000000000000000000000000000000000000600052603260045260246000fd5b9060005260206000200154836107a49190611685565b92505b80806107b290611858565b915050610674565b50858514156108805760005b8681101561087a5760038181548110610808577f4e487b7100000000000000000000000000000000000000000000000000000000600052603260045260246000fd5b906000526020600020015482828151811061084c577f4e487b7100000000000000000000000000000000000000000000000000000000600052603260045260246000fd5b602002602001018181516108609190611685565b91508181525050808061087290611858565b9150506107c6565b50610c45565b60005b86811015610c43578a1515600482815481106108c8577f4e487b7100000000000000000000000000000000000000000000000000000000600052603260045260246000fd5b90600052602060002090602091828204019190069054906101000a900460ff1615151415610b8a576003818154811061092a577f4e487b7100000000000000000000000000000000000000000000000000000000600052603260045260246000fd5b906000526020600020015482828151811061096e577f4e487b7100000000000000000000000000000000000000000000000000000000600052603260045260246000fd5b602002602001018181516109829190611685565b915081815250506000846014610998919061170c565b6009600384815481106109d4577f4e487b7100000000000000000000000000000000000000000000000000000000600052603260045260246000fd5b9060005260206000200154866109ea919061170c565b6109f4919061170c565b6109fe91906116db565b905080838381518110610a3a577f4e487b7100000000000000000000000000000000000000000000000000000000600052603260045260246000fd5b60200260200101818151610a4e9190611685565b9150818152505060038281548110610a8f577f4e487b7100000000000000000000000000000000000000000000000000000000600052603260045260246000fd5b90600052602060002001546002610aa6919061170c565b838381518110610adf577f4e487b7100000000000000000000000000000000000000000000000000000000600052603260045260246000fd5b60200260200101511115610b845760038281548110610b27577f4e487b7100000000000000000000000000000000000000000000000000000000600052603260045260246000fd5b90600052602060002001546002610b3e919061170c565b838381518110610b77577f4e487b7100000000000000000000000000000000000000000000000000000000600052603260045260246000fd5b6020026020010181815250505b50610c30565b600260038281548110610bc6577f4e487b7100000000000000000000000000000000000000000000000000000000600052603260045260246000fd5b9060005260206000200154610bdb91906116db565b828281518110610c14577f4e487b7100000000000000000000000000000000000000000000000000000000600052603260045260246000fd5b60200260200101818151610c289190611685565b915081815250505b8080610c3b90611858565b915050610883565b505b60005b86811015610e485760028181548110610c8a577f4e487b7100000000000000000000000000000000000000000000000000000000600052603260045260246000fd5b9060005260206000200160009054906101000a900473ffffffffffffffffffffffffffffffffffffffff1673ffffffffffffffffffffffffffffffffffffffff166108fc838381518110610d07577f4e487b7100000000000000000000000000000000000000000000000000000000600052603260045260246000fd5b60200260200101519081150290604051600060405180830381858888f19350505050158015610d3a573d6000803e3d6000fd5b50818181518110610d74577f4e487b7100000000000000000000000000000000000000000000000000000000600052603260045260246000fd5b60200260200101516005600060028481548110610dba577f4e487b7100000000000000000000000000000000000000000000000000000000600052603260045260246000fd5b9060005260206000200160009054906101000a900473ffffffffffffffffffffffffffffffffffffffff1673ffffffffffffffffffffffffffffffffffffffff1673ffffffffffffffffffffffffffffffffffffffff1681526020019081526020016000206000828254610e2e9190611685565b925050819055508080610e4090611858565b915050610c48565b5047600560008060009054906101000a900473ffffffffffffffffffffffffffffffffffffffff1673ffffffffffffffffffffffffffffffffffffffff1673ffffffffffffffffffffffffffffffffffffffff1681526020019081526020016000206000828254610eb99190611685565b9250508190555060008054906101000a900473ffffffffffffffffffffffffffffffffffffffff1673ffffffffffffffffffffffffffffffffffffffff166108fc479081150290604051600060405180830381858888f19350505050158015610f26573d6000803e3d6000fd5b5050505050505050505050565b600080600160009054906101000a900473ffffffffffffffffffffffffffffffffffffffff1673ffffffffffffffffffffffffffffffffffffffff1663135dcff3336040518263ffffffff1660e01b8152600401610f9191906114b4565b60206040518083038186803b158015610fa957600080fd5b505afa158015610fbd573d6000803e3d6000fd5b505050506040513d601f19601f82011682018060405250810190610fe191906112d5565b905080600560003373ffffffffffffffffffffffffffffffffffffffff1673ffffffffffffffffffffffffffffffffffffffff1681526020019081526020016000205461102e9190611685565b91505090565b6002339080600181540180825580915050600190039060005260206000200160009091909190916101000a81548173ffffffffffffffffffffffffffffffffffffffff021916908373ffffffffffffffffffffffffffffffffffffffff160217905550600334908060018154018082558091505060019003906000526020600020016000909190919091505560048190806001815401808255809150506001900390600052602060002090602091828204019190069091909190916101000a81548160ff0219169083151502179055507f505fa9d7c1e6de29c97a8f8c0506e116cd1398a62ae875c534f148877e62c63833346040516111359291906114cf565b60405180910390a150565b6040518060a0016040528060608152602001606081526020016060815260200160608152602001606081525090565b600061118261117d846115ef565b6115be565b90508281526020810184848401111561119a57600080fd5b6111a58482856117e4565b509392505050565b6000813590506111bc8161196e565b92915050565b600082601f8301126111d357600080fd5b81356111e384826020860161116f565b91505092915050565b6000815190506111fb81611985565b92915050565b60006020828403121561121357600080fd5b6000611221848285016111ad565b91505092915050565b6000806000806080858703121561124057600080fd5b600061124e878288016111ad565b945050602085013567ffffffffffffffff81111561126b57600080fd5b611277878288016111c2565b935050604085013567ffffffffffffffff81111561129457600080fd5b6112a0878288016111c2565b925050606085013567ffffffffffffffff8111156112bd57600080fd5b6112c9878288016111c2565b91505092959194509250565b6000602082840312156112e757600080fd5b60006112f5848285016111ec565b91505092915050565b600061130a8383611316565b60208301905092915050565b61131f81611778565b82525050565b61132e81611766565b82525050565b600061133f8261162f565b6113498185611652565b93506113548361161f565b8060005b8381101561138557815161136c88826112fe565b975061137783611645565b925050600181019050611358565b5085935050505092915050565b61139b816117c0565b82525050565b60006113ac8261163a565b6113b68185611663565b93506113c68185602086016117f3565b6113cf8161195d565b840191505092915050565b60006113e58261163a565b6113ef8185611674565b93506113ff8185602086016117f3565b6114088161195d565b840191505092915050565b600060a083016000830151848203600086015261143082826113a1565b9150506020830151848203602086015261144a82826113a1565b9150506040830151848203604086015261146482826113a1565b9150506060830151848203606086015261147e82826113a1565b9150506080830151848203608086015261149882826113a1565b9150508091505092915050565b6114ae816117b6565b82525050565b60006020820190506114c96000830184611325565b92915050565b60006040820190506114e46000830185611325565b6114f160208301846114a5565b9392505050565b600060208201905081810360008301526115128184611334565b905092915050565b600060208201905061152f6000830184611392565b92915050565b6000606082019050818103600083015261154f81866113da565b9050818103602083015261156381856113da565b9050818103604083015261157781846113da565b9050949350505050565b6000602082019050818103600083015261159b8184611413565b905092915050565b60006020820190506115b860008301846114a5565b92915050565b6000604051905081810181811067ffffffffffffffff821117156115e5576115e461192e565b5b8060405250919050565b600067ffffffffffffffff82111561160a5761160961192e565b5b601f19601f8301169050602081019050919050565b6000819050602082019050919050565b600081519050919050565b600081519050919050565b6000602082019050919050565b600082825260208201905092915050565b600082825260208201905092915050565b600082825260208201905092915050565b6000611690826117b6565b915061169b836117b6565b9250827fffffffffffffffffffffffffffffffffffffffffffffffffffffffffffffffff038211156116d0576116cf6118a1565b5b828201905092915050565b60006116e6826117b6565b91506116f1836117b6565b925082611701576117006118d0565b5b828204905092915050565b6000611717826117b6565b9150611722836117b6565b9250817fffffffffffffffffffffffffffffffffffffffffffffffffffffffffffffffff048311821515161561175b5761175a6118a1565b5b828202905092915050565b600061177182611796565b9050919050565b600061178382611796565b9050919050565b60008115159050919050565b600073ffffffffffffffffffffffffffffffffffffffff82169050919050565b6000819050919050565b60006117cb826117d2565b9050919050565b60006117dd82611796565b9050919050565b82818337600083830152505050565b60005b838110156118115780820151818401526020810190506117f6565b83811115611820576000848401525b50505050565b6000600282049050600182168061183e57607f821691505b60208210811415611852576118516118ff565b5b50919050565b6000611863826117b6565b91507fffffffffffffffffffffffffffffffffffffffffffffffffffffffffffffffff821415611896576118956118a1565b5b600182019050919050565b7f4e487b7100000000000000000000000000000000000000000000000000000000600052601160045260246000fd5b7f4e487b7100000000000000000000000000000000000000000000000000000000600052601260045260246000fd5b7f4e487b7100000000000000000000000000000000000000000000000000000000600052602260045260246000fd5b7f4e487b7100000000000000000000000000000000000000000000000000000000600052604160045260246000fd5b6000601f19601f8301169050919050565b6119778161178a565b811461198257600080fd5b50565b61198e816117b6565b811461199957600080fd5b5056fea26469706673582212207d72f78ba1c131e12d7e091e3e952ccd556d3f1bfb629688c087266c015f462164736f6c6343000800003360806040523480156200001157600080fd5b506040516200205c3803806200205c833981810160405281019062000037919062000378565b826000806101000a81548173ffffffffffffffffffffffffffffffffffffffff021916908373ffffffffffffffffffffffffffffffffffffffff16021790555060405180604001604052808381526020018281525060056000820151816000019080519060200190620000ac929190620000d8565b506020820151816001019080519060200190620000cb929190620000d8565b50905050505050620005ae565b8280548282559060005260206000209081019282156200012c579160200282015b828111156200012b5782518290805190602001906200011a9291906200013f565b5091602001919060010190620000f9565b5b5090506200013b9190620001d0565b5090565b8280546200014d9062000500565b90600052602060002090601f016020900481019282620001715760008555620001bd565b82601f106200018c57805160ff1916838001178555620001bd565b82800160010185558215620001bd579182015b82811115620001bc5782518255916020019190600101906200019f565b5b509050620001cc9190620001f8565b5090565b5b80821115620001f45760008181620001ea919062000217565b50600101620001d1565b5090565b5b8082111562000213576000816000905550600101620001f9565b5090565b508054620002259062000500565b6000825580601f106200023957506200025a565b601f016020900490600052602060002090810190620002599190620001f8565b5b50565b6000620002746200026e8462000434565b62000400565b9050808382526020820190508260005b85811015620002b857815185016200029d88826200034b565b84526020840193506020830192505060018101905062000284565b5050509392505050565b6000620002d9620002d38462000463565b62000400565b905082815260208101848484011115620002f257600080fd5b620002ff848285620004ca565b509392505050565b600081519050620003188162000594565b92915050565b600082601f8301126200033057600080fd5b8151620003428482602086016200025d565b91505092915050565b600082601f8301126200035d57600080fd5b81516200036f848260208601620002c2565b91505092915050565b6000806000606084860312156200038e57600080fd5b60006200039e8682870162000307565b935050602084015167ffffffffffffffff811115620003bc57600080fd5b620003ca868287016200031e565b925050604084015167ffffffffffffffff811115620003e857600080fd5b620003f6868287016200031e565b9150509250925092565b6000604051905081810181811067ffffffffffffffff821117156200042a576200042962000565565b5b8060405250919050565b600067ffffffffffffffff82111562000452576200045162000565565b5b602082029050602081019050919050565b600067ffffffffffffffff82111562000481576200048062000565565b5b601f19601f8301169050602081019050919050565b6000620004a382620004aa565b9050919050565b600073ffffffffffffffffffffffffffffffffffffffff82169050919050565b60005b83811015620004ea578082015181840152602081019050620004cd565b83811115620004fa576000848401525b50505050565b600060028204905060018216806200051957607f821691505b6020821081141562000530576200052f62000536565b5b50919050565b7f4e487b7100000000000000000000000000000000000000000000000000000000600052602260045260246000fd5b7f4e487b7100000000000000000000000000000000000000000000000000000000600052604160045260246000fd5b6200059f8162000496565b8114620005ab57600080fd5b50565b611a9e80620005be6000396000f3fe60806040526004361061004a5760003560e01c80630696281a1461004f578063135dcff31461007a57806318ed2ad9146100b75780639039a14e146100e0578063ce64d8c81461010b575b600080fd5b34801561005b57600080fd5b50610064610127565b604051610071919061162a565b60405180910390f35b34801561008657600080fd5b506100a1600480360381019061009c9190611279565b6101b5565b6040516100ae919061166e565b60405180910390f35b3480156100c357600080fd5b506100de60048036038101906100d991906112e3565b6101fe565b005b3480156100ec57600080fd5b506100f5610e6f565b604051610102919061164c565b60405180910390f35b610125600480360381019061012091906112a2565b61103b565b005b606060018054806020026020016040519081016040528092919081815260200182805480156101ab57602002820191906000526020600020905b8160009054906101000a900473ffffffffffffffffffffffffffffffffffffffff1673ffffffffffffffffffffffffffffffffffffffff1681526020019060010190808311610161575b5050505050905090565b6000600460008373ffffffffffffffffffffffffffffffffffffffff1673ffffffffffffffffffffffffffffffffffffffff168152602001908152602001600020549050919050565b6000600280549050905060008060008060008567ffffffffffffffff811115610250577f4e487b7100000000000000000000000000000000000000000000000000000000600052604160045260246000fd5b60405190808252806020026020018201604052801561027e5781602001602082028036833780820191505090505b50905060005b868110156102e65760008282815181106102c7577f4e487b7100000000000000000000000000000000000000000000000000000000600052603260045260246000fd5b60200260200101818152505080806102de9061193b565b915050610284565b5060005b86811015610594578960405160200161030391906115d3565b6040516020818303038152906040528051906020012060038281548110610353577f4e487b7100000000000000000000000000000000000000000000000000000000600052603260045260246000fd5b9060005260206000200160405160200161036d91906115ea565b60405160208183030381529060405280519060200120148061041d57508860405160200161039b91906115d3565b60405160208183030381529060405280519060200120600382815481106103eb577f4e487b7100000000000000000000000000000000000000000000000000000000600052603260045260246000fd5b9060005260206000200160405160200161040591906115ea565b60405160208183030381529060405280519060200120145b806104b657508760405160200161043491906115d3565b6040516020818303038152906040528051906020012060038281548110610484577f4e487b7100000000000000000000000000000000000000000000000000000000600052603260045260246000fd5b9060005260206000200160405160200161049e91906115ea565b60405160208183030381529060405280519060200120145b156105205785806104c69061193b565b96505060028181548110610503577f4e487b7100000000000000000000000000000000000000000000000000000000600052603260045260246000fd5b9060005260206000200154846105199190611798565b9350610581565b848061052b9061193b565b95505060028181548110610568577f4e487b7100000000000000000000000000000000000000000000000000000000600052603260045260246000fd5b90600052602060002001548361057e9190611798565b92505b808061058c9061193b565b9150506102ea565b508585141561065a5760005b8681101561065457600281815481106105e2577f4e487b7100000000000000000000000000000000000000000000000000000000600052603260045260246000fd5b9060005260206000200154828281518110610626577f4e487b7100000000000000000000000000000000000000000000000000000000600052603260045260246000fd5b6020026020010181815161063a9190611798565b91508181525050808061064c9061193b565b9150506105a0565b50610b82565b60005b86811015610b80578960405160200161067691906115d3565b60405160208183030381529060405280519060200120600382815481106106c6577f4e487b7100000000000000000000000000000000000000000000000000000000600052603260045260246000fd5b906000526020600020016040516020016106e091906115ea565b60405160208183030381529060405280519060200120148061079057508860405160200161070e91906115d3565b604051602081830303815290604052805190602001206003828154811061075e577f4e487b7100000000000000000000000000000000000000000000000000000000600052603260045260246000fd5b9060005260206000200160405160200161077891906115ea565b60405160208183030381529060405280519060200120145b806108295750876040516020016107a791906115d3565b60405160208183030381529060405280519060200120600382815481106107f7577f4e487b7100000000000000000000000000000000000000000000000000000000600052603260045260246000fd5b9060005260206000200160405160200161081191906115ea565b60405160208183030381529060405280519060200120145b15610ac85760028181548110610868577f4e487b7100000000000000000000000000000000000000000000000000000000600052603260045260246000fd5b90600052602060002001548282815181106108ac577f4e487b7100000000000000000000000000000000000000000000000000000000600052603260045260246000fd5b602002602001018181516108c09190611798565b9150818152505060008460146108d6919061181f565b600960028481548110610912577f4e487b7100000000000000000000000000000000000000000000000000000000600052603260045260246000fd5b906000526020600020015486610928919061181f565b610932919061181f565b61093c91906117ee565b905080838381518110610978577f4e487b7100000000000000000000000000000000000000000000000000000000600052603260045260246000fd5b6020026020010181815161098c9190611798565b91508181525050600282815481106109cd577f4e487b7100000000000000000000000000000000000000000000000000000000600052603260045260246000fd5b906000526020600020015460026109e4919061181f565b838381518110610a1d577f4e487b7100000000000000000000000000000000000000000000000000000000600052603260045260246000fd5b60200260200101511115610ac25760028281548110610a65577f4e487b7100000000000000000000000000000000000000000000000000000000600052603260045260246000fd5b90600052602060002001546002610a7c919061181f565b838381518110610ab5577f4e487b7100000000000000000000000000000000000000000000000000000000600052603260045260246000fd5b6020026020010181815250505b50610b6d565b6002808281548110610b03577f4e487b7100000000000000000000000000000000000000000000000000000000600052603260045260246000fd5b9060005260206000200154610b1891906117ee565b828281518110610b51577f4e487b7100000000000000000000000000000000000000000000000000000000600052603260045260246000fd5b60200260200101818151610b659190611798565b915081815250505b8080610b789061193b565b91505061065d565b505b60005b86811015610d855760018181548110610bc7577f4e487b7100000000000000000000000000000000000000000000000000000000600052603260045260246000fd5b9060005260206000200160009054906101000a900473ffffffffffffffffffffffffffffffffffffffff1673ffffffffffffffffffffffffffffffffffffffff166108fc838381518110610c44577f4e487b7100000000000000000000000000000000000000000000000000000000600052603260045260246000fd5b60200260200101519081150290604051600060405180830381858888f19350505050158015610c77573d6000803e3d6000fd5b50818181518110610cb1577f4e487b7100000000000000000000000000000000000000000000000000000000600052603260045260246000fd5b60200260200101516004600060018481548110610cf7577f4e487b7100000000000000000000000000000000000000000000000000000000600052603260045260246000fd5b9060005260206000200160009054906101000a900473ffffffffffffffffffffffffffffffffffffffff1673ffffffffffffffffffffffffffffffffffffffff1673ffffffffffffffffffffffffffffffffffffffff1681526020019081526020016000206000828254610d6b9190611798565b925050819055508080610d7d9061193b565b915050610b85565b5047600460008060009054906101000a900473ffffffffffffffffffffffffffffffffffffffff1673ffffffffffffffffffffffffffffffffffffffff1673ffffffffffffffffffffffffffffffffffffffff1681526020019081526020016000206000828254610df69190611798565b9250508190555060008054906101000a900473ffffffffffffffffffffffffffffffffffffffff1673ffffffffffffffffffffffffffffffffffffffff166108fc479081150290604051600060405180830381858888f19350505050158015610e63573d6000803e3d6000fd5b50505050505050505050565b610e7761113f565b600560405180604001604052908160008201805480602002602001604051908101604052809291908181526020016000905b82821015610f55578382906000526020600020018054610ec890611909565b80601f0160208091040260200160405190810160405280929190818152602001828054610ef490611909565b8015610f415780601f10610f1657610100808354040283529160200191610f41565b820191906000526020600020905b815481529060010190602001808311610f2457829003601f168201915b505050505081526020019060010190610ea9565b50505050815260200160018201805480602002602001604051908101604052809291908181526020016000905b8282101561102e578382906000526020600020018054610fa190611909565b80601f0160208091040260200160405190810160405280929190818152602001828054610fcd90611909565b801561101a5780601f10610fef5761010080835404028352916020019161101a565b820191906000526020600020905b815481529060010190602001808311610ffd57829003601f168201915b505050505081526020019060010190610f82565b5050505081525050905090565b6001339080600181540180825580915050600190039060005260206000200160009091909190916101000a81548173ffffffffffffffffffffffffffffffffffffffff021916908373ffffffffffffffffffffffffffffffffffffffff1602179055506002349080600181540180825580915050600190039060005260206000200160009091909190915055600381908060018154018082558091505060019003906000526020600020016000909190919091509080519060200190611102929190611159565b507f505fa9d7c1e6de29c97a8f8c0506e116cd1398a62ae875c534f148877e62c6383334604051611134929190611601565b60405180910390a150565b604051806040016040528060608152602001606081525090565b82805461116590611909565b90600052602060002090601f01602090048101928261118757600085556111ce565b82601f106111a057805160ff19168380011785556111ce565b828001600101855582156111ce579182015b828111156111cd5782518255916020019190600101906111b2565b5b5090506111db91906111df565b5090565b5b808211156111f85760008160009055506001016111e0565b5090565b600061120f61120a846116ba565b611689565b90508281526020810184848401111561122757600080fd5b6112328482856118c7565b509392505050565b60008135905061124981611a51565b92915050565b600082601f83011261126057600080fd5b81356112708482602086016111fc565b91505092915050565b60006020828403121561128b57600080fd5b60006112998482850161123a565b91505092915050565b6000602082840312156112b457600080fd5b600082013567ffffffffffffffff8111156112ce57600080fd5b6112da8482850161124f565b91505092915050565b6000806000606084860312156112f857600080fd5b600084013567ffffffffffffffff81111561131257600080fd5b61131e8682870161124f565b935050602084013567ffffffffffffffff81111561133b57600080fd5b6113478682870161124f565b925050604084013567ffffffffffffffff81111561136457600080fd5b6113708682870161124f565b9150509250925092565b600061138683836113a6565b60208301905092915050565b600061139e8383611497565b905092915050565b6113af8161188b565b82525050565b6113be81611879565b82525050565b60006113cf8261171f565b6113d9818561175a565b93506113e4836116ea565b8060005b838110156114155781516113fc888261137a565b975061140783611740565b9250506001810190506113e8565b5085935050505092915050565b600061142d8261172a565b611437818561176b565b935083602082028501611449856116fa565b8060005b8581101561148557848403895281516114668582611392565b94506114718361174d565b925060208a0199505060018101905061144d565b50829750879550505050505092915050565b60006114a282611735565b6114ac818561177c565b93506114bc8185602086016118d6565b6114c581611a40565b840191505092915050565b60006114db82611735565b6114e5818561178d565b93506114f58185602086016118d6565b80840191505092915050565b6000815461150e81611909565b611518818661178d565b94506001821660008114611533576001811461154457611577565b60ff19831686528186019350611577565b61154d8561170a565b60005b8381101561156f57815481890152600182019150602081019050611550565b838801955050505b50505092915050565b6000604083016000830151848203600086015261159d8282611422565b915050602083015184820360208601526115b78282611422565b9150508091505092915050565b6115cd816118bd565b82525050565b60006115df82846114d0565b915081905092915050565b60006115f68284611501565b915081905092915050565b600060408201905061161660008301856113b5565b61162360208301846115c4565b9392505050565b6000602082019050818103600083015261164481846113c4565b905092915050565b600060208201905081810360008301526116668184611580565b905092915050565b600060208201905061168360008301846115c4565b92915050565b6000604051905081810181811067ffffffffffffffff821117156116b0576116af611a11565b5b8060405250919050565b600067ffffffffffffffff8211156116d5576116d4611a11565b5b601f19601f8301169050602081019050919050565b6000819050602082019050919050565b6000819050602082019050919050565b60008190508160005260206000209050919050565b600081519050919050565b600081519050919050565b600081519050919050565b6000602082019050919050565b6000602082019050919050565b600082825260208201905092915050565b600082825260208201905092915050565b600082825260208201905092915050565b600081905092915050565b60006117a3826118bd565b91506117ae836118bd565b9250827fffffffffffffffffffffffffffffffffffffffffffffffffffffffffffffffff038211156117e3576117e2611984565b5b828201905092915050565b60006117f9826118bd565b9150611804836118bd565b925082611814576118136119b3565b5b828204905092915050565b600061182a826118bd565b9150611835836118bd565b9250817fffffffffffffffffffffffffffffffffffffffffffffffffffffffffffffffff048311821515161561186e5761186d611984565b5b828202905092915050565b60006118848261189d565b9050919050565b60006118968261189d565b9050919050565b600073ffffffffffffffffffffffffffffffffffffffff82169050919050565b6000819050919050565b82818337600083830152505050565b60005b838110156118f45780820151818401526020810190506118d9565b83811115611903576000848401525b50505050565b6000600282049050600182168061192157607f821691505b60208210811415611935576119346119e2565b5b50919050565b6000611946826118bd565b91507fffffffffffffffffffffffffffffffffffffffffffffffffffffffffffffffff82141561197957611978611984565b5b600182019050919050565b7f4e487b7100000000000000000000000000000000000000000000000000000000600052601160045260246000fd5b7f4e487b7100000000000000000000000000000000000000000000000000000000600052601260045260246000fd5b7f4e487b7100000000000000000000000000000000000000000000000000000000600052602260045260246000fd5b7f4e487b7100000000000000000000000000000000000000000000000000000000600052604160045260246000fd5b6000601f19601f8301169050919050565b611a5a81611879565b8114611a6557600080fd5b5056fea264697066735822122023f0595bab92227cc0116bca78bf17d9eaceffa3fb61669e6b5dfa692107f97564736f6c63430008000033",
  "linkReferences": {},
  "deployedLinkReferences": {}
}