{
  "_format": "hh-sol-artifact-1",
  "contractName": "Player",
  "sourceName": "contracts/Wrapper.sol",
  "abi": [
    {
      "inputs": [
        {
          "internalType": "address payable",
          "name": "ownercontract",
          "type": "address"
        },
        {
          "internalType": "string[]",
          "name": "player_info_team1_input",
          "type": "string[]"
        },
        {
          "internalType": "string[]",
          "name": "player_info_team2_input",
          "type": "string[]"
        }
      ],
      "stateMutability": "nonpayable",
      "type": "constructor"
    },
    {
      "anonymous": false,
      "inputs": [
        {
          "indexed": false,
          "internalType": "address",
          "name": "sender",
          "type": "address"
        },
        {
          "indexed": false,
          "internalType": "uint256",
          "name": "amount",
          "type": "uint256"
        }
      ],
      "name": "betplaced",
      "type": "event"
    },
    {
      "inputs": [
        {
          "internalType": "string",
          "name": "playerbetplaced",
          "type": "string"
        }
      ],
      "name": "placebet",
      "outputs": [],
      "stateMutability": "payable",
      "type": "function"
    },
    {
      "inputs": [
        {
          "internalType": "string",
          "name": "first",
          "type": "string"
        },
        {
          "internalType": "string",
          "name": "second",
          "type": "string"
        },
        {
          "internalType": "string",
          "name": "third",
          "type": "string"
        }
      ],
      "name": "poolDistribution",
      "outputs": [],
      "stateMutability": "nonpayable",
      "type": "function"
    },
    {
      "inputs": [],
      "name": "viewbets",
      "outputs": [
        {
          "internalType": "address payable[]",
          "name": "",
          "type": "address[]"
        }
      ],
      "stateMutability": "view",
      "type": "function"
    },
    {
      "inputs": [],
      "name": "viewplayer",
      "outputs": [
        {
          "components": [
            {
              "internalType": "string[]",
              "name": "player_info_team1",
              "type": "string[]"
            },
            {
              "internalType": "string[]",
              "name": "player_info_team2",
              "type": "string[]"
            }
          ],
          "internalType": "struct Player.PlayerInfo",
          "name": "",
          "type": "tuple"
        }
      ],
      "stateMutability": "view",
      "type": "function"
    }
  ],
  "bytecode": "0x60806040523480156200001157600080fd5b5060405162001dea38038062001dea833981810160405281019062000037919062000378565b826000806101000a81548173ffffffffffffffffffffffffffffffffffffffff021916908373ffffffffffffffffffffffffffffffffffffffff16021790555060405180604001604052808381526020018281525060046000820151816000019080519060200190620000ac929190620000d8565b506020820151816001019080519060200190620000cb929190620000d8565b50905050505050620005ae565b8280548282559060005260206000209081019282156200012c579160200282015b828111156200012b5782518290805190602001906200011a9291906200013f565b5091602001919060010190620000f9565b5b5090506200013b9190620001d0565b5090565b8280546200014d9062000500565b90600052602060002090601f016020900481019282620001715760008555620001bd565b82601f106200018c57805160ff1916838001178555620001bd565b82800160010185558215620001bd579182015b82811115620001bc5782518255916020019190600101906200019f565b5b509050620001cc9190620001f8565b5090565b5b80821115620001f45760008181620001ea919062000217565b50600101620001d1565b5090565b5b8082111562000213576000816000905550600101620001f9565b5090565b508054620002259062000500565b6000825580601f106200023957506200025a565b601f016020900490600052602060002090810190620002599190620001f8565b5b50565b6000620002746200026e8462000434565b62000400565b9050808382526020820190508260005b85811015620002b857815185016200029d88826200034b565b84526020840193506020830192505060018101905062000284565b5050509392505050565b6000620002d9620002d38462000463565b62000400565b905082815260208101848484011115620002f257600080fd5b620002ff848285620004ca565b509392505050565b600081519050620003188162000594565b92915050565b600082601f8301126200033057600080fd5b8151620003428482602086016200025d565b91505092915050565b600082601f8301126200035d57600080fd5b81516200036f848260208601620002c2565b91505092915050565b6000806000606084860312156200038e57600080fd5b60006200039e8682870162000307565b935050602084015167ffffffffffffffff811115620003bc57600080fd5b620003ca868287016200031e565b925050604084015167ffffffffffffffff811115620003e857600080fd5b620003f6868287016200031e565b9150509250925092565b6000604051905081810181811067ffffffffffffffff821117156200042a576200042962000565565b5b8060405250919050565b600067ffffffffffffffff82111562000452576200045162000565565b5b602082029050602081019050919050565b600067ffffffffffffffff82111562000481576200048062000565565b5b601f19601f8301169050602081019050919050565b6000620004a382620004aa565b9050919050565b600073ffffffffffffffffffffffffffffffffffffffff82169050919050565b60005b83811015620004ea578082015181840152602081019050620004cd565b83811115620004fa576000848401525b50505050565b600060028204905060018216806200051957607f821691505b6020821081141562000530576200052f62000536565b5b50919050565b7f4e487b7100000000000000000000000000000000000000000000000000000000600052602260045260246000fd5b7f4e487b7100000000000000000000000000000000000000000000000000000000600052604160045260246000fd5b6200059f8162000496565b8114620005ab57600080fd5b50565b61182c80620005be6000396000f3fe60806040526004361061003f5760003560e01c80630696281a1461004457806318ed2ad91461006f5780639039a14e14610098578063ce64d8c8146100c3575b600080fd5b34801561005057600080fd5b506100596100df565b60405161006691906113ea565b60405180910390f35b34801561007b57600080fd5b50610096600480360381019061009191906110a3565b61016d565b005b3480156100a457600080fd5b506100ad610c6d565b6040516100ba919061140c565b60405180910390f35b6100dd60048036038101906100d89190611062565b610e39565b005b6060600180548060200260200160405190810160405280929190818152602001828054801561016357602002820191906000526020600020905b8160009054906101000a900473ffffffffffffffffffffffffffffffffffffffff1673ffffffffffffffffffffffffffffffffffffffff1681526020019060010190808311610119575b5050505050905090565b6000600280549050905060008060008060008567ffffffffffffffff8111156101bf577f4e487b7100000000000000000000000000000000000000000000000000000000600052604160045260246000fd5b6040519080825280602002602001820160405280156101ed5781602001602082028036833780820191505090505b50905060005b86811015610255576000828281518110610236577f4e487b7100000000000000000000000000000000000000000000000000000000600052603260045260246000fd5b602002602001018181525050808061024d906116e0565b9150506101f3565b5060005b8681101561050357896040516020016102729190611393565b60405160208183030381529060405280519060200120600382815481106102c2577f4e487b7100000000000000000000000000000000000000000000000000000000600052603260045260246000fd5b906000526020600020016040516020016102dc91906113aa565b60405160208183030381529060405280519060200120148061038c57508860405160200161030a9190611393565b604051602081830303815290604052805190602001206003828154811061035a577f4e487b7100000000000000000000000000000000000000000000000000000000600052603260045260246000fd5b9060005260206000200160405160200161037491906113aa565b60405160208183030381529060405280519060200120145b806104255750876040516020016103a39190611393565b60405160208183030381529060405280519060200120600382815481106103f3577f4e487b7100000000000000000000000000000000000000000000000000000000600052603260045260246000fd5b9060005260206000200160405160200161040d91906113aa565b60405160208183030381529060405280519060200120145b1561048f578580610435906116e0565b96505060028181548110610472577f4e487b7100000000000000000000000000000000000000000000000000000000600052603260045260246000fd5b906000526020600020015484610488919061153d565b93506104f0565b848061049a906116e0565b955050600281815481106104d7577f4e487b7100000000000000000000000000000000000000000000000000000000600052603260045260246000fd5b9060005260206000200154836104ed919061153d565b92505b80806104fb906116e0565b915050610259565b50858514156105c95760005b868110156105c35760028181548110610551577f4e487b7100000000000000000000000000000000000000000000000000000000600052603260045260246000fd5b9060005260206000200154828281518110610595577f4e487b7100000000000000000000000000000000000000000000000000000000600052603260045260246000fd5b602002602001018181516105a9919061153d565b9150818152505080806105bb906116e0565b91505061050f565b50610af1565b60005b86811015610aef57896040516020016105e59190611393565b6040516020818303038152906040528051906020012060038281548110610635577f4e487b7100000000000000000000000000000000000000000000000000000000600052603260045260246000fd5b9060005260206000200160405160200161064f91906113aa565b6040516020818303038152906040528051906020012014806106ff57508860405160200161067d9190611393565b60405160208183030381529060405280519060200120600382815481106106cd577f4e487b7100000000000000000000000000000000000000000000000000000000600052603260045260246000fd5b906000526020600020016040516020016106e791906113aa565b60405160208183030381529060405280519060200120145b806107985750876040516020016107169190611393565b6040516020818303038152906040528051906020012060038281548110610766577f4e487b7100000000000000000000000000000000000000000000000000000000600052603260045260246000fd5b9060005260206000200160405160200161078091906113aa565b60405160208183030381529060405280519060200120145b15610a3757600281815481106107d7577f4e487b7100000000000000000000000000000000000000000000000000000000600052603260045260246000fd5b906000526020600020015482828151811061081b577f4e487b7100000000000000000000000000000000000000000000000000000000600052603260045260246000fd5b6020026020010181815161082f919061153d565b91508181525050600084601461084591906115c4565b600960028481548110610881577f4e487b7100000000000000000000000000000000000000000000000000000000600052603260045260246000fd5b90600052602060002001548661089791906115c4565b6108a191906115c4565b6108ab9190611593565b9050808383815181106108e7577f4e487b7100000000000000000000000000000000000000000000000000000000600052603260045260246000fd5b602002602001018181516108fb919061153d565b915081815250506002828154811061093c577f4e487b7100000000000000000000000000000000000000000000000000000000600052603260045260246000fd5b9060005260206000200154600261095391906115c4565b83838151811061098c577f4e487b7100000000000000000000000000000000000000000000000000000000600052603260045260246000fd5b60200260200101511115610a3157600282815481106109d4577f4e487b7100000000000000000000000000000000000000000000000000000000600052603260045260246000fd5b906000526020600020015460026109eb91906115c4565b838381518110610a24577f4e487b7100000000000000000000000000000000000000000000000000000000600052603260045260246000fd5b6020026020010181815250505b50610adc565b6002808281548110610a72577f4e487b7100000000000000000000000000000000000000000000000000000000600052603260045260246000fd5b9060005260206000200154610a879190611593565b828281518110610ac0577f4e487b7100000000000000000000000000000000000000000000000000000000600052603260045260246000fd5b60200260200101818151610ad4919061153d565b915081815250505b8080610ae7906116e0565b9150506105cc565b505b60005b86811015610bfa5760018181548110610b36577f4e487b7100000000000000000000000000000000000000000000000000000000600052603260045260246000fd5b9060005260206000200160009054906101000a900473ffffffffffffffffffffffffffffffffffffffff1673ffffffffffffffffffffffffffffffffffffffff166108fc838381518110610bb3577f4e487b7100000000000000000000000000000000000000000000000000000000600052603260045260246000fd5b60200260200101519081150290604051600060405180830381858888f19350505050158015610be6573d6000803e3d6000fd5b508080610bf2906116e0565b915050610af4565b5060008054906101000a900473ffffffffffffffffffffffffffffffffffffffff1673ffffffffffffffffffffffffffffffffffffffff166108fc479081150290604051600060405180830381858888f19350505050158015610c61573d6000803e3d6000fd5b50505050505050505050565b610c75610f3d565b600460405180604001604052908160008201805480602002602001604051908101604052809291908181526020016000905b82821015610d53578382906000526020600020018054610cc6906116ae565b80601f0160208091040260200160405190810160405280929190818152602001828054610cf2906116ae565b8015610d3f5780601f10610d1457610100808354040283529160200191610d3f565b820191906000526020600020905b815481529060010190602001808311610d2257829003601f168201915b505050505081526020019060010190610ca7565b50505050815260200160018201805480602002602001604051908101604052809291908181526020016000905b82821015610e2c578382906000526020600020018054610d9f906116ae565b80601f0160208091040260200160405190810160405280929190818152602001828054610dcb906116ae565b8015610e185780601f10610ded57610100808354040283529160200191610e18565b820191906000526020600020905b815481529060010190602001808311610dfb57829003601f168201915b505050505081526020019060010190610d80565b5050505081525050905090565b6001339080600181540180825580915050600190039060005260206000200160009091909190916101000a81548173ffffffffffffffffffffffffffffffffffffffff021916908373ffffffffffffffffffffffffffffffffffffffff1602179055506002349080600181540180825580915050600190039060005260206000200160009091909190915055600381908060018154018082558091505060019003906000526020600020016000909190919091509080519060200190610f00929190610f57565b507f505fa9d7c1e6de29c97a8f8c0506e116cd1398a62ae875c534f148877e62c6383334604051610f329291906113c1565b60405180910390a150565b604051806040016040528060608152602001606081525090565b828054610f63906116ae565b90600052602060002090601f016020900481019282610f855760008555610fcc565b82601f10610f9e57805160ff1916838001178555610fcc565b82800160010185558215610fcc579182015b82811115610fcb578251825591602001919060010190610fb0565b5b509050610fd99190610fdd565b5090565b5b80821115610ff6576000816000905550600101610fde565b5090565b600061100d6110088461145f565b61142e565b90508281526020810184848401111561102557600080fd5b61103084828561166c565b509392505050565b600082601f83011261104957600080fd5b8135611059848260208601610ffa565b91505092915050565b60006020828403121561107457600080fd5b600082013567ffffffffffffffff81111561108e57600080fd5b61109a84828501611038565b91505092915050565b6000806000606084860312156110b857600080fd5b600084013567ffffffffffffffff8111156110d257600080fd5b6110de86828701611038565b935050602084013567ffffffffffffffff8111156110fb57600080fd5b61110786828701611038565b925050604084013567ffffffffffffffff81111561112457600080fd5b61113086828701611038565b9150509250925092565b60006111468383611166565b60208301905092915050565b600061115e8383611257565b905092915050565b61116f81611630565b82525050565b61117e8161161e565b82525050565b600061118f826114c4565b61119981856114ff565b93506111a48361148f565b8060005b838110156111d55781516111bc888261113a565b97506111c7836114e5565b9250506001810190506111a8565b5085935050505092915050565b60006111ed826114cf565b6111f78185611510565b9350836020820285016112098561149f565b8060005b8581101561124557848403895281516112268582611152565b9450611231836114f2565b925060208a0199505060018101905061120d565b50829750879550505050505092915050565b6000611262826114da565b61126c8185611521565b935061127c81856020860161167b565b611285816117e5565b840191505092915050565b600061129b826114da565b6112a58185611532565b93506112b581856020860161167b565b80840191505092915050565b600081546112ce816116ae565b6112d88186611532565b945060018216600081146112f3576001811461130457611337565b60ff19831686528186019350611337565b61130d856114af565b60005b8381101561132f57815481890152600182019150602081019050611310565b838801955050505b50505092915050565b6000604083016000830151848203600086015261135d82826111e2565b9150506020830151848203602086015261137782826111e2565b9150508091505092915050565b61138d81611662565b82525050565b600061139f8284611290565b915081905092915050565b60006113b682846112c1565b915081905092915050565b60006040820190506113d66000830185611175565b6113e36020830184611384565b9392505050565b600060208201905081810360008301526114048184611184565b905092915050565b600060208201905081810360008301526114268184611340565b905092915050565b6000604051905081810181811067ffffffffffffffff82111715611455576114546117b6565b5b8060405250919050565b600067ffffffffffffffff82111561147a576114796117b6565b5b601f19601f8301169050602081019050919050565b6000819050602082019050919050565b6000819050602082019050919050565b60008190508160005260206000209050919050565b600081519050919050565b600081519050919050565b600081519050919050565b6000602082019050919050565b6000602082019050919050565b600082825260208201905092915050565b600082825260208201905092915050565b600082825260208201905092915050565b600081905092915050565b600061154882611662565b915061155383611662565b9250827fffffffffffffffffffffffffffffffffffffffffffffffffffffffffffffffff0382111561158857611587611729565b5b828201905092915050565b600061159e82611662565b91506115a983611662565b9250826115b9576115b8611758565b5b828204905092915050565b60006115cf82611662565b91506115da83611662565b9250817fffffffffffffffffffffffffffffffffffffffffffffffffffffffffffffffff048311821515161561161357611612611729565b5b828202905092915050565b600061162982611642565b9050919050565b600061163b82611642565b9050919050565b600073ffffffffffffffffffffffffffffffffffffffff82169050919050565b6000819050919050565b82818337600083830152505050565b60005b8381101561169957808201518184015260208101905061167e565b838111156116a8576000848401525b50505050565b600060028204905060018216806116c657607f821691505b602082108114156116da576116d9611787565b5b50919050565b60006116eb82611662565b91507fffffffffffffffffffffffffffffffffffffffffffffffffffffffffffffffff82141561171e5761171d611729565b5b600182019050919050565b7f4e487b7100000000000000000000000000000000000000000000000000000000600052601160045260246000fd5b7f4e487b7100000000000000000000000000000000000000000000000000000000600052601260045260246000fd5b7f4e487b7100000000000000000000000000000000000000000000000000000000600052602260045260246000fd5b7f4e487b7100000000000000000000000000000000000000000000000000000000600052604160045260246000fd5b6000601f19601f830116905091905056fea2646970667358221220c5d23256a838c10e97f00b605084c21d3dcade56b99fe559f2d79f6cabc60b2664736f6c63430008000033",
  "linkReferences": {},
  "deployedLinkReferences": {}
}