{
  "_format": "hh-sol-artifact-1",
  "contractName": "Player",
  "sourceName": "contracts/Wrapper.sol",
  "abi": [
    {
      "inputs": [
        {
          "internalType": "address payable",
          "name": "ownercontract",
          "type": "address"
        },
        {
          "internalType": "string[]",
          "name": "player_info_team1_input",
          "type": "string[]"
        },
        {
          "internalType": "string[]",
          "name": "player_info_team2_input",
          "type": "string[]"
        }
      ],
      "stateMutability": "nonpayable",
      "type": "constructor"
    },
    {
      "anonymous": false,
      "inputs": [
        {
          "indexed": false,
          "internalType": "address",
          "name": "sender",
          "type": "address"
        },
        {
          "indexed": false,
          "internalType": "uint256",
          "name": "amount",
          "type": "uint256"
        }
      ],
      "name": "betplaced",
      "type": "event"
    },
    {
      "inputs": [
        {
          "internalType": "address",
          "name": "sender",
          "type": "address"
        }
      ],
      "name": "amountrefundedplayer",
      "outputs": [
        {
          "internalType": "uint256",
          "name": "",
          "type": "uint256"
        }
      ],
      "stateMutability": "view",
      "type": "function"
    },
    {
      "inputs": [],
      "name": "bethistory",
      "outputs": [
        {
          "components": [
            {
              "internalType": "string",
              "name": "player",
              "type": "string"
            },
            {
              "internalType": "uint256",
              "name": "amount",
              "type": "uint256"
            }
          ],
          "internalType": "struct Player.Betinfo[]",
          "name": "",
          "type": "tuple[]"
        }
      ],
      "stateMutability": "view",
      "type": "function"
    },
    {
      "inputs": [
        {
          "internalType": "string",
          "name": "playerbetplaced",
          "type": "string"
        }
      ],
      "name": "placebet",
      "outputs": [],
      "stateMutability": "payable",
      "type": "function"
    },
    {
      "inputs": [
        {
          "internalType": "string",
          "name": "first",
          "type": "string"
        },
        {
          "internalType": "string",
          "name": "second",
          "type": "string"
        },
        {
          "internalType": "string",
          "name": "third",
          "type": "string"
        }
      ],
      "name": "poolDistribution",
      "outputs": [],
      "stateMutability": "nonpayable",
      "type": "function"
    },
    {
      "inputs": [],
      "name": "viewbets",
      "outputs": [
        {
          "internalType": "address payable[]",
          "name": "",
          "type": "address[]"
        }
      ],
      "stateMutability": "view",
      "type": "function"
    },
    {
      "inputs": [],
      "name": "viewplayer",
      "outputs": [
        {
          "components": [
            {
              "internalType": "string[]",
              "name": "player_info_team1",
              "type": "string[]"
            },
            {
              "internalType": "string[]",
              "name": "player_info_team2",
              "type": "string[]"
            }
          ],
          "internalType": "struct Player.PlayerInfo",
          "name": "",
          "type": "tuple"
        }
      ],
      "stateMutability": "view",
      "type": "function"
    }
  ],
  "bytecode": "0x60806040523480156200001157600080fd5b50604051620023a0380380620023a0833981810160405281019062000037919062000378565b826000806101000a81548173ffffffffffffffffffffffffffffffffffffffff021916908373ffffffffffffffffffffffffffffffffffffffff16021790555060405180604001604052808381526020018281525060066000820151816000019080519060200190620000ac929190620000d8565b506020820151816001019080519060200190620000cb929190620000d8565b50905050505050620005ae565b8280548282559060005260206000209081019282156200012c579160200282015b828111156200012b5782518290805190602001906200011a9291906200013f565b5091602001919060010190620000f9565b5b5090506200013b9190620001d0565b5090565b8280546200014d9062000500565b90600052602060002090601f016020900481019282620001715760008555620001bd565b82601f106200018c57805160ff1916838001178555620001bd565b82800160010185558215620001bd579182015b82811115620001bc5782518255916020019190600101906200019f565b5b509050620001cc9190620001f8565b5090565b5b80821115620001f45760008181620001ea919062000217565b50600101620001d1565b5090565b5b8082111562000213576000816000905550600101620001f9565b5090565b508054620002259062000500565b6000825580601f106200023957506200025a565b601f016020900490600052602060002090810190620002599190620001f8565b5b50565b6000620002746200026e8462000434565b62000400565b9050808382526020820190508260005b85811015620002b857815185016200029d88826200034b565b84526020840193506020830192505060018101905062000284565b5050509392505050565b6000620002d9620002d38462000463565b62000400565b905082815260208101848484011115620002f257600080fd5b620002ff848285620004ca565b509392505050565b600081519050620003188162000594565b92915050565b600082601f8301126200033057600080fd5b8151620003428482602086016200025d565b91505092915050565b600082601f8301126200035d57600080fd5b81516200036f848260208601620002c2565b91505092915050565b6000806000606084860312156200038e57600080fd5b60006200039e8682870162000307565b935050602084015167ffffffffffffffff811115620003bc57600080fd5b620003ca868287016200031e565b925050604084015167ffffffffffffffff811115620003e857600080fd5b620003f6868287016200031e565b9150509250925092565b6000604051905081810181811067ffffffffffffffff821117156200042a576200042962000565565b5b8060405250919050565b600067ffffffffffffffff82111562000452576200045162000565565b5b602082029050602081019050919050565b600067ffffffffffffffff82111562000481576200048062000565565b5b601f19601f8301169050602081019050919050565b6000620004a382620004aa565b9050919050565b600073ffffffffffffffffffffffffffffffffffffffff82169050919050565b60005b83811015620004ea578082015181840152602081019050620004cd565b83811115620004fa576000848401525b50505050565b600060028204905060018216806200051957607f821691505b6020821081141562000530576200052f62000536565b5b50919050565b7f4e487b7100000000000000000000000000000000000000000000000000000000600052602260045260246000fd5b7f4e487b7100000000000000000000000000000000000000000000000000000000600052604160045260246000fd5b6200059f8162000496565b8114620005ab57600080fd5b50565b611de280620005be6000396000f3fe6080604052600436106100555760003560e01c80630696281a1461005a578063135dcff31461008557806318ed2ad9146100c2578063321fff14146100eb5780639039a14e14610116578063ce64d8c814610141575b600080fd5b34801561006657600080fd5b5061006f61015d565b60405161007c9190611913565b60405180910390f35b34801561009157600080fd5b506100ac60048036038101906100a7919061148d565b6101eb565b6040516100b99190611979565b60405180910390f35b3480156100ce57600080fd5b506100e960048036038101906100e491906114f7565b610234565b005b3480156100f757600080fd5b50610100610ea5565b60405161010d9190611935565b60405180910390f35b34801561012257600080fd5b5061012b610fdd565b6040516101389190611957565b60405180910390f35b61015b600480360381019061015691906114b6565b6111a9565b005b606060018054806020026020016040519081016040528092919081815260200182805480156101e157602002820191906000526020600020905b8160009054906101000a900473ffffffffffffffffffffffffffffffffffffffff1673ffffffffffffffffffffffffffffffffffffffff1681526020019060010190808311610197575b5050505050905090565b6000600460008373ffffffffffffffffffffffffffffffffffffffff1673ffffffffffffffffffffffffffffffffffffffff168152602001908152602001600020549050919050565b6000600280549050905060008060008060008567ffffffffffffffff811115610286577f4e487b7100000000000000000000000000000000000000000000000000000000600052604160045260246000fd5b6040519080825280602002602001820160405280156102b45781602001602082028036833780820191505090505b50905060005b8681101561031c5760008282815181106102fd577f4e487b7100000000000000000000000000000000000000000000000000000000600052603260045260246000fd5b602002602001018181525050808061031490611c7f565b9150506102ba565b5060005b868110156105ca578960405160200161033991906118bc565b6040516020818303038152906040528051906020012060038281548110610389577f4e487b7100000000000000000000000000000000000000000000000000000000600052603260045260246000fd5b906000526020600020016040516020016103a391906118d3565b6040516020818303038152906040528051906020012014806104535750886040516020016103d191906118bc565b6040516020818303038152906040528051906020012060038281548110610421577f4e487b7100000000000000000000000000000000000000000000000000000000600052603260045260246000fd5b9060005260206000200160405160200161043b91906118d3565b60405160208183030381529060405280519060200120145b806104ec57508760405160200161046a91906118bc565b60405160208183030381529060405280519060200120600382815481106104ba577f4e487b7100000000000000000000000000000000000000000000000000000000600052603260045260246000fd5b906000526020600020016040516020016104d491906118d3565b60405160208183030381529060405280519060200120145b156105565785806104fc90611c7f565b96505060028181548110610539577f4e487b7100000000000000000000000000000000000000000000000000000000600052603260045260246000fd5b90600052602060002001548461054f9190611adc565b93506105b7565b848061056190611c7f565b9550506002818154811061059e577f4e487b7100000000000000000000000000000000000000000000000000000000600052603260045260246000fd5b9060005260206000200154836105b49190611adc565b92505b80806105c290611c7f565b915050610320565b50858514156106905760005b8681101561068a5760028181548110610618577f4e487b7100000000000000000000000000000000000000000000000000000000600052603260045260246000fd5b906000526020600020015482828151811061065c577f4e487b7100000000000000000000000000000000000000000000000000000000600052603260045260246000fd5b602002602001018181516106709190611adc565b91508181525050808061068290611c7f565b9150506105d6565b50610bb8565b60005b86811015610bb657896040516020016106ac91906118bc565b60405160208183030381529060405280519060200120600382815481106106fc577f4e487b7100000000000000000000000000000000000000000000000000000000600052603260045260246000fd5b9060005260206000200160405160200161071691906118d3565b6040516020818303038152906040528051906020012014806107c657508860405160200161074491906118bc565b6040516020818303038152906040528051906020012060038281548110610794577f4e487b7100000000000000000000000000000000000000000000000000000000600052603260045260246000fd5b906000526020600020016040516020016107ae91906118d3565b60405160208183030381529060405280519060200120145b8061085f5750876040516020016107dd91906118bc565b604051602081830303815290604052805190602001206003828154811061082d577f4e487b7100000000000000000000000000000000000000000000000000000000600052603260045260246000fd5b9060005260206000200160405160200161084791906118d3565b60405160208183030381529060405280519060200120145b15610afe576002818154811061089e577f4e487b7100000000000000000000000000000000000000000000000000000000600052603260045260246000fd5b90600052602060002001548282815181106108e2577f4e487b7100000000000000000000000000000000000000000000000000000000600052603260045260246000fd5b602002602001018181516108f69190611adc565b91508181525050600084601461090c9190611b63565b600960028481548110610948577f4e487b7100000000000000000000000000000000000000000000000000000000600052603260045260246000fd5b90600052602060002001548661095e9190611b63565b6109689190611b63565b6109729190611b32565b9050808383815181106109ae577f4e487b7100000000000000000000000000000000000000000000000000000000600052603260045260246000fd5b602002602001018181516109c29190611adc565b9150818152505060028281548110610a03577f4e487b7100000000000000000000000000000000000000000000000000000000600052603260045260246000fd5b90600052602060002001546002610a1a9190611b63565b838381518110610a53577f4e487b7100000000000000000000000000000000000000000000000000000000600052603260045260246000fd5b60200260200101511115610af85760028281548110610a9b577f4e487b7100000000000000000000000000000000000000000000000000000000600052603260045260246000fd5b90600052602060002001546002610ab29190611b63565b838381518110610aeb577f4e487b7100000000000000000000000000000000000000000000000000000000600052603260045260246000fd5b6020026020010181815250505b50610ba3565b6002808281548110610b39577f4e487b7100000000000000000000000000000000000000000000000000000000600052603260045260246000fd5b9060005260206000200154610b4e9190611b32565b828281518110610b87577f4e487b7100000000000000000000000000000000000000000000000000000000600052603260045260246000fd5b60200260200101818151610b9b9190611adc565b915081815250505b8080610bae90611c7f565b915050610693565b505b60005b86811015610dbb5760018181548110610bfd577f4e487b7100000000000000000000000000000000000000000000000000000000600052603260045260246000fd5b9060005260206000200160009054906101000a900473ffffffffffffffffffffffffffffffffffffffff1673ffffffffffffffffffffffffffffffffffffffff166108fc838381518110610c7a577f4e487b7100000000000000000000000000000000000000000000000000000000600052603260045260246000fd5b60200260200101519081150290604051600060405180830381858888f19350505050158015610cad573d6000803e3d6000fd5b50818181518110610ce7577f4e487b7100000000000000000000000000000000000000000000000000000000600052603260045260246000fd5b60200260200101516004600060018481548110610d2d577f4e487b7100000000000000000000000000000000000000000000000000000000600052603260045260246000fd5b9060005260206000200160009054906101000a900473ffffffffffffffffffffffffffffffffffffffff1673ffffffffffffffffffffffffffffffffffffffff1673ffffffffffffffffffffffffffffffffffffffff1681526020019081526020016000206000828254610da19190611adc565b925050819055508080610db390611c7f565b915050610bbb565b5047600460008060009054906101000a900473ffffffffffffffffffffffffffffffffffffffff1673ffffffffffffffffffffffffffffffffffffffff1673ffffffffffffffffffffffffffffffffffffffff1681526020019081526020016000206000828254610e2c9190611adc565b9250508190555060008054906101000a900473ffffffffffffffffffffffffffffffffffffffff1673ffffffffffffffffffffffffffffffffffffffff166108fc479081150290604051600060405180830381858888f19350505050158015610e99573d6000803e3d6000fd5b50505050505050505050565b6060600560003373ffffffffffffffffffffffffffffffffffffffff1673ffffffffffffffffffffffffffffffffffffffff168152602001908152602001600020805480602002602001604051908101604052809291908181526020016000905b82821015610fd45783829060005260206000209060020201604051806040016040529081600082018054610f3990611c4d565b80601f0160208091040260200160405190810160405280929190818152602001828054610f6590611c4d565b8015610fb25780601f10610f8757610100808354040283529160200191610fb2565b820191906000526020600020905b815481529060010190602001808311610f9557829003601f168201915b5050505050815260200160018201548152505081526020019060010190610f06565b50505050905090565b610fe5611353565b600660405180604001604052908160008201805480602002602001604051908101604052809291908181526020016000905b828210156110c357838290600052602060002001805461103690611c4d565b80601f016020809104026020016040519081016040528092919081815260200182805461106290611c4d565b80156110af5780601f10611084576101008083540402835291602001916110af565b820191906000526020600020905b81548152906001019060200180831161109257829003601f168201915b505050505081526020019060010190611017565b50505050815260200160018201805480602002602001604051908101604052809291908181526020016000905b8282101561119c57838290600052602060002001805461110f90611c4d565b80601f016020809104026020016040519081016040528092919081815260200182805461113b90611c4d565b80156111885780601f1061115d57610100808354040283529160200191611188565b820191906000526020600020905b81548152906001019060200180831161116b57829003601f168201915b5050505050815260200190600101906110f0565b5050505081525050905090565b6001339080600181540180825580915050600190039060005260206000200160009091909190916101000a81548173ffffffffffffffffffffffffffffffffffffffff021916908373ffffffffffffffffffffffffffffffffffffffff160217905550600234908060018154018082558091505060019003906000526020600020016000909190919091505560038190806001815401808255809150506001900390600052602060002001600090919091909150908051906020019061127092919061136d565b50600560003373ffffffffffffffffffffffffffffffffffffffff1673ffffffffffffffffffffffffffffffffffffffff1681526020019081526020016000206040518060400160405280838152602001348152509080600181540180825580915050600190039060005260206000209060020201600090919091909150600082015181600001908051906020019061130a92919061136d565b506020820151816001015550507f505fa9d7c1e6de29c97a8f8c0506e116cd1398a62ae875c534f148877e62c63833346040516113489291906118ea565b60405180910390a150565b604051806040016040528060608152602001606081525090565b82805461137990611c4d565b90600052602060002090601f01602090048101928261139b57600085556113e2565b82601f106113b457805160ff19168380011785556113e2565b828001600101855582156113e2579182015b828111156113e15782518255916020019190600101906113c6565b5b5090506113ef91906113f3565b5090565b5b8082111561140c5760008160009055506001016113f4565b5090565b600061142361141e846119c5565b611994565b90508281526020810184848401111561143b57600080fd5b611446848285611c0b565b509392505050565b60008135905061145d81611d95565b92915050565b600082601f83011261147457600080fd5b8135611484848260208601611410565b91505092915050565b60006020828403121561149f57600080fd5b60006114ad8482850161144e565b91505092915050565b6000602082840312156114c857600080fd5b600082013567ffffffffffffffff8111156114e257600080fd5b6114ee84828501611463565b91505092915050565b60008060006060848603121561150c57600080fd5b600084013567ffffffffffffffff81111561152657600080fd5b61153286828701611463565b935050602084013567ffffffffffffffff81111561154f57600080fd5b61155b86828701611463565b925050604084013567ffffffffffffffff81111561157857600080fd5b61158486828701611463565b9150509250925092565b600061159a83836115ce565b60208301905092915050565b60006115b28383611734565b905092915050565b60006115c6838361181d565b905092915050565b6115d781611bcf565b82525050565b6115e681611bbd565b82525050565b60006115f782611a3a565b6116018185611a8d565b935061160c836119f5565b8060005b8381101561163d578151611624888261158e565b975061162f83611a66565b925050600181019050611610565b5085935050505092915050565b600061165582611a45565b61165f8185611a9e565b93508360208202850161167185611a05565b8060005b858110156116ad578484038952815161168e85826115a6565b945061169983611a73565b925060208a01995050600181019050611675565b50829750879550505050505092915050565b60006116ca82611a50565b6116d48185611aaf565b9350836020820285016116e685611a15565b8060005b85811015611722578484038952815161170385826115ba565b945061170e83611a80565b925060208a019950506001810190506116ea565b50829750879550505050505092915050565b600061173f82611a5b565b6117498185611ac0565b9350611759818560208601611c1a565b61176281611d84565b840191505092915050565b600061177882611a5b565b6117828185611ad1565b9350611792818560208601611c1a565b80840191505092915050565b600081546117ab81611c4d565b6117b58186611ad1565b945060018216600081146117d057600181146117e157611814565b60ff19831686528186019350611814565b6117ea85611a25565b60005b8381101561180c578154818901526001820191506020810190506117ed565b838801955050505b50505092915050565b6000604083016000830151848203600086015261183a8282611734565b915050602083015161184f602086018261189e565b508091505092915050565b60006040830160008301518482036000860152611877828261164a565b91505060208301518482036020860152611891828261164a565b9150508091505092915050565b6118a781611c01565b82525050565b6118b681611c01565b82525050565b60006118c8828461176d565b915081905092915050565b60006118df828461179e565b915081905092915050565b60006040820190506118ff60008301856115dd565b61190c60208301846118ad565b9392505050565b6000602082019050818103600083015261192d81846115ec565b905092915050565b6000602082019050818103600083015261194f81846116bf565b905092915050565b60006020820190508181036000830152611971818461185a565b905092915050565b600060208201905061198e60008301846118ad565b92915050565b6000604051905081810181811067ffffffffffffffff821117156119bb576119ba611d55565b5b8060405250919050565b600067ffffffffffffffff8211156119e0576119df611d55565b5b601f19601f8301169050602081019050919050565b6000819050602082019050919050565b6000819050602082019050919050565b6000819050602082019050919050565b60008190508160005260206000209050919050565b600081519050919050565b600081519050919050565b600081519050919050565b600081519050919050565b6000602082019050919050565b6000602082019050919050565b6000602082019050919050565b600082825260208201905092915050565b600082825260208201905092915050565b600082825260208201905092915050565b600082825260208201905092915050565b600081905092915050565b6000611ae782611c01565b9150611af283611c01565b9250827fffffffffffffffffffffffffffffffffffffffffffffffffffffffffffffffff03821115611b2757611b26611cc8565b5b828201905092915050565b6000611b3d82611c01565b9150611b4883611c01565b925082611b5857611b57611cf7565b5b828204905092915050565b6000611b6e82611c01565b9150611b7983611c01565b9250817fffffffffffffffffffffffffffffffffffffffffffffffffffffffffffffffff0483118215151615611bb257611bb1611cc8565b5b828202905092915050565b6000611bc882611be1565b9050919050565b6000611bda82611be1565b9050919050565b600073ffffffffffffffffffffffffffffffffffffffff82169050919050565b6000819050919050565b82818337600083830152505050565b60005b83811015611c38578082015181840152602081019050611c1d565b83811115611c47576000848401525b50505050565b60006002820490506001821680611c6557607f821691505b60208210811415611c7957611c78611d26565b5b50919050565b6000611c8a82611c01565b91507fffffffffffffffffffffffffffffffffffffffffffffffffffffffffffffffff821415611cbd57611cbc611cc8565b5b600182019050919050565b7f4e487b7100000000000000000000000000000000000000000000000000000000600052601160045260246000fd5b7f4e487b7100000000000000000000000000000000000000000000000000000000600052601260045260246000fd5b7f4e487b7100000000000000000000000000000000000000000000000000000000600052602260045260246000fd5b7f4e487b7100000000000000000000000000000000000000000000000000000000600052604160045260246000fd5b6000601f19601f8301169050919050565b611d9e81611bbd565b8114611da957600080fd5b5056fea264697066735822122071490a820275a7441efecadc6299a4430a42afdbd20f4a23306110213962046264736f6c63430008000033",
  "linkReferences": {},
  "deployedLinkReferences": {}
}